:0300000002210FCB
:0C210F00787FE4F6D8FD7581210221568E
:10000300526563656976656420646174612028685C
:1000130065782920696E207265675F62616E6B5B2C
:1000230025645D3A203078253038580A00726567B8
:100033003A25642C203078253038580A002D2D2D90
:100043002D2D2D2D2D2D2D2D2D2D2D2D0A004572D0
:10005300726F7220636F6E74726F6C207369676E58
:10006300616C3A203078253038580A0000000000CF
:10007300000000000000000000000000000000007D
:10008300000000000000000000000000000202FA6F
:10009300FAAAAAFFFFAAAAFAFA020200004272729F
:1000A3003A7A424B5B52626213776600203C1CFF34
:1000B300FFB0B424243F3FE4E4242420020203FFDE
:1000C300FF0001051D59C1FF7F010101000000F878
:1000D300F8484C4F4B4A4848F8F80000000000FF2E
:1000E300FF44444444444444FFFF0000202424E4E8
:1000F300E42424243010FFFF10F0F000081C1F0B31
:100103000C0D4F6E341C0F23607F3F0080C060F8DE
:10011300FF070200FFFFE0703C1C08000000007FA7
:100123007F0406033F7F40404078780000000000D2
:1001330000000000000000000000000000000000BC
:1001430000000000000000000000000000000000AC
:10015300000000000000000000000000000000009C
:100163000000000000000000000000001021867065
:10017300007E4A4A4A4A4A7E0000000002FE0140CD
:100183007F41417F41417F41417F40000000FC04AA
:100193002424FCA5A6A4FC242424040080601F803E
:1001A3008042462A12122A2642C04000080808FF4D
:1001B3008848009848280A2C48D808000242817FC2
:1001C3000000404242427E424242400000504F4AB9
:1001D30048FF48484800FC0000FF000000003F01C2
:1001E30001FF21613F000F40807F000000908CA43D
:1001F300A4A4A5A6A4A4A4A4948C040000804020D5
:1002030018070000003F404040700000000474D411
:10021300FFD47404100CB744B40C04000042437AB6
:100223004342437E4B4B4A4A4243010008080808B5
:100233000808F94A4C4848C80808080040402010FC
:100243000C0300002040403F0000000000202C244D
:100253006474ADA6E43424242C2400000024242553
:1002630015150DFE040D171424642400000000F876
:1002730048484C4B4A484848F8000000000000FF3B
:100283004444444444444444FF000000202424E400
:10029300242424201010FF1010F00000081C0B0869
:1002A3000C054E24100C0320403F0000080808FFF3
:1002B3008848009848280A2C48D808000242817FC1
:1002C3000000404242427E424242400000504F4AB8
:1002D30048FF48484800FC0000FF000000003F01C1
:1002E30001FF21613F000F40807F00000807FAAA49
:1002F300AEAAAAA8ACABAAFE0A02020008088B6A3F
:100303001E0A0A0A0AFE0A0B08080800106001C642
:100313003000101010FF1010101000000404FE0134
:10032300004161514D43414151E101004041CE043F
:10033300008040BE828282BEC040400000007F2019
:10034300908040432C10102C43C0400020212EE409
:10035300000020202020FF20202020000000007F1C
:10036300201008000000FF00000000000000F84813
:10037300484848FF48484848F800000000000F0478
:100383000404043F444444444F407000000002020C
:10039300020202E2120A06020080000001010101CA
:1003A3000141817F0101010101010100002020229F
:1003B30022E2222222E222222220200000402010D8
:1003C3000C030000003F4040404070004020F80F05
:1003D30082601E1410FF1010101000000000FF00B8
:1003E3000101010101FF0101010101000000000001
:1003F3007E4848484848484848CC0800000404045C
:100403000404040404244644201F0000849494FF3D
:10041300949480242424FC1213120000201806FF55
:10042300021C0A0202023F41414171001010D0FE3A
:10043300509000101010D0FE10101000080601FF9D
:10044300000110080443807F000000009088A7A2E9
:10045300A6BAA2F8A7A2A6BAA28280000004040446
:10046300040C340444847F040404000000000000EE
:1004730000000000002F0000000007000700001428
:100483007F147F1400242A7F2A1200626408132336
:1004930000364955225000000503000000001C22CD
:1004A3004100000041221C000014083E081400080B
:1004B300083E0808000000A06000000808080808BB
:1004C300000060600000002010080402003E514953
:1004D300453E0000427F40000042615149460021F1
:1004E30041454B31001814127F100027454545390B
:1004F300003C4A4949300001710905030036494966
:10050300493600064949291E00003636000000001E
:100513005636000000081422410000141414141469
:100523000000412214080002015109060032495912
:10053300513E007C1211127C007F49494936003E2E
:1005430041414122007F4141221C007F49494941E9
:10055300007F09090901003E4149497A007F0808E3
:10056300087F0000417F4100002040413F01007FA0
:1005730008142241007F40404040007F020C027F6C
:10058300007F0408107F003E4141413E007F09097E
:100593000906003E4151215E007F091929460046A4
:1005A300494949310001017F0101003F4040403F7B
:1005B300001F2040201F003F4038403F00631408C5
:1005C30014630007087008070061514945430000A0
:1005D3007F41410000552A552A55000041417F00C3
:1005E30000040201020400404040404000000102B8
:1005F3000400002054545478007F484444380038A1
:100603004444442000384444487F00385454541828
:1006130000087E0901020018A4A4A47C007F08043A
:1006230004780000447D4000004080847D00007F0A
:10063300102844000000417F4000007C0418047827
:10064300007C0804047800384444443800FC242423
:1006530024180018242418FC007C0804040800480B
:100663005454542000043F444020003C4040207C2C
:10067300001C2040201C003C4030403C004428101B
:100683002844001CA0A0A07C004464544C441414CF
:100693001414141400000000000000000000000007
:1006A30000000000000000F800000000000000331C
:1006B3003000000000100C06100C060000000000C3
:1006C3000000000040C07840C0784000043F0404AC
:1006D3003F040400007088FC08300000001820FF6D
:1006E300211E0000F008F000E018000000211C03A8
:1006F3001E211E0000F00888700000001E21232424
:100703001927211010160E00000000000000000041
:1007130000000000000000E01804020000000007D1
:100723001820400000020418E000000000402018D8
:1007330007000000404080F0804040000202010FAB
:1007430001020200000000F0000000000101011F8F
:1007530001010100000000000000000080B07000F3
:100763000000000000000000000000000001010183
:100773000101010100000000000000000030300012
:1007830000000000000000008060180400601806EC
:100793000100000000E010080810E000000F102026
:1007A30020100F00001010F8000000000020203F70
:1007B30020200000007008080888700000302824FA
:1007C300222130000030088888483000001820209B
:1007D30020110E000000C02010F8000000070424C0
:1007E300243F240000F80888880808000019212005
:1007F30020110E0000E0108888180000000F11205F
:1008030020110E0000380808C83808000000003F17
:10081300000000000070880808887000001C222176
:1008230021221C0000E010080810E0000000312223
:1008330022110F00000000C0C000000000000030C3
:100843003000000000000080000000000000806015
:100853000000000000008040201008000001020496
:10086300081020004040404040404000040404047D
:100873000404040000081020408000000020100839
:1008830004020100007048080808F000000000306E
:1008930036010000C030C828E810E00007182724FC
:1008A30023140B000000C038E0000000203C2302AA
:1008B3000227382008F8888888700000203F20200D
:1008C30020110E00C030080808083800071820203F
:1008D3002010080008F808080810E000203F202036
:1008E30020100F0008F88888E8081000203F202017
:1008F3002320180008F88888E8081000203F20000B
:1009030003000000C0300808083800000718202042
:10091300221E020008F808000008F808203F210101
:1009230001213F20000808F8080800000020203FAC
:100933002020000000000808F8080800C08080801C
:100943007F00000008F888C028180800203F200115
:100953002638200008F8080000000000203F20206F
:100963002020300008F8F800F8F80800203F003F86
:10097300003F200008F830C00008F808203F20009E
:1009830007183F00E01008080810E0000F102020AF
:1009930020100F0008F808080808F000203F210184
:1009A30001010000E01008080810E0000F182424DB
:1009B30038504F0008F8888888887000203F20004E
:1009C300030C302000708808080838000038202104
:1009D30021221C00180808F8080818000000203F0E
:1009E3002000000008F808000008F808001F202075
:1009F30020201F000878880000C838080000073846
:100A03000E010000F80800F80008F800033C070096
:100A1300073C0300081868808068180820302C03FE
:100A2300032C30200838C800C83808000000203FD5
:100A33002000000010080808C838080020382621C4
:100A430020201800000000FE020202000000007FC8
:100A530040404000000C30C00000000000000001D6
:100A63000638C00000020202FE00000000404040C1
:100A73007F000000000004020202040000000000E6
:100A83000000000000000000000000008080808063
:100A9300808080800002020400000000000000004B
:100AA30000000000000080808080000000192422E4
:100AB30022223F2008F8008080000000003F112020
:100AC30020110E000000008080800000000E112025
:100AD30020201100000000808088F800000E112003
:100AE30020103F200000808080800000001F222211
:100AF30022221300008080F0888888180020203F7D
:100B0300202000000000808080808000006B94948F
:100B13009493600008F8008080800000203F21004B
:100B230000203F2000809898000000000020203F14
:100B330020200000000000809898000000C0808002
:100B4300807F000008F8000080808000203F24029E
:100B53002D302000000808F8000000000020203F8E
:100B6300202000008080808080808000203F200043
:100B73003F20003F8080008080800000203F2100D4
:100B830000203F200000808080800000001F202084
:100B930020201F00808000808000000080FFA120B3
:100BA30020110E000000008080808000000E1120C4
:100BB30020A0FF80808080008080800020203F2153
:100BC3002000010000008080808080000033242406
:100BD30024241900008080E0808000000000001FB2
:100BE300202000008080000000808000001F202063
:100BF30020103F20808080000080808000010E3024
:100C03000806010080800080008080800F300C0384
:100C13000C300F0000808000808080000020312E87
:100C23000E312000808080000080808080818E7063
:100C33001806010000808080808080000021302C15
:100C43002221300000000000807C0202000000002E
:100C5300003F404000000000FF00000000000000D3
:100C6300FF0000000002027C800000000040403FC3
:100C7300000000000006010102020404000000005D
:100C83000000000000000000000000000000000061
:100C93000000000000000000000000000000000051
:100CA3000000000000000000000000000000000041
:100CB30000000000000080004040002020101010C1
:100CC3001010101010101010002020400040008061
:100CD3000000000000000000000000000000000011
:100CE3000000000000000000000000000000000001
:100CF30000000000000000000000000000000000F1
:100D030000000000000000000000000000000000E0
:100D130000000000000000000000000000000000D0
:100D23000000000000000000000000000080400000
:100D33001008000200010000000000000000000095
:100D43000000008000000000000000000000000020
:100D530001020004080010208000000000000000D1
:100D63000000000000000000000000000000000080
:100D73000000000000000000000000000000000070
:100D83000000000000000000000080C00000C04020
:100D93004040C000004040C040400000C0404040D0
:100DA30040C00000000000000080200C0200000092
:100DB3000000000000808040404040408000000070
:100DC300189EFF8808C84828282828282808C00013
:100DD300000000000000000000000410800000106C
:100DE3001010101010F00000F01010101010100070
:100DF3000000F010101010100000000000000000B0
:100E03000000000000E0382C262321FF00008F089B
:100E13000808F800000000FF00000000FF000000C9
:100E230000C1000000000000001F000000000000DF
:100E3300000000007FF9880808080808FFFF0C0677
:100E430003E1FF070030494949494949494930000D
:100E5300000000000000000000000000910000807E
:100E63008282828282FF0000FF8484848484FC0067
:100E73000000878484848484FC0000000000000058
:100E8300000000000000000000000000000001015D
:100E93000101010000010101010100000101010143
:100EA3000101000000000000000F400000000000EE
:100EB3000000000000101113131313191918181848
:100EC3007CFF01001080084A497FFF2424241F006F
:100ED30000000000000000000000004018000000B7
:100EE30000000000000000000000000000000000FF
:100EF30000000000000000000000000000000000EF
:100F030000000000000000000000000000000000DE
:100F130000000000000000000000000000000000CE
:100F2300000000000000000000000100007040000D
:100F330000000000000000008000000080808000AE
:100F4300000F9C808000000080808103000000006F
:100F530000000000000000806008020000000000A4
:100F6300000000000000000000000000000000007E
:100F7300000000000000000000000000000000006E
:100F8300000000000000000000000000000000005E
:100F9300000000000000000000000000000000004E
:100FA300000000000000000000000000000000003E
:100FB30002000808080020000F00800003020F0051
:100FC30000000F080F0000000B0A0E000080004015
:100FD30000000808000001000000000000000000FD
:100FE30000000000000000000000000000000000FE
:100FF30000000000000000000000000000000000EE
:1010030000000000000000000000000000000000DD
:1010130000000000000000000000000000000000CD
:1010230000000000000000000000000000000000BD
:1010330000000000000000000000000001020202A6
:101043000002000202020200000100000000000092
:10105300000000000000000000000000000000008D
:10106300000000000000000000000000000000007D
:10107300000000000000000000000000000000006D
:101083000000000000000000000000000004040451
:10109300FC04040400000000000000000000000045
:1010A300000000000000FFFFFFFFFFFFFFFFFFFF47
:1010B300FFFFFFFFFFFFFFFFFFFFFFFFFFFFFFFF3D
:1010C300FFFFFFFFFFFFFFFFFFFFFFFFFFFFFFFF2D
:1010D300FFFFFFFFFFFFFFFFFFFFFFFFFFFFFF001C
:1010E30000000000000000000000000000C0F09CB1
:1010F300B8C08000000000000000000000000000F5
:1011030000000000000000000000000000F08080EC
:1011130083F0000000000000000000000000000059
:10112300000000000000FFFFFFFFFFFFFFFFFFFFC6
:10113300FFFFFFFFFFFFFF1F0F0F0F1F1F1F7F7F0C
:101143007F7F7F7F7F7F7F7F7F7F7F7F7FFFFFFF2C
:10115300FFFFFFFFFFFFFFFFFFFFFFFFFFFFFF009B
:1011630000000000000000000000000086C36020B3
:10117300604043060800000000000000000000007B
:101183000000000000000000000000000007002035
:1011930020E7200000000000000000000000000025
:1011A300000000000000FFFFFFFFFFFFFFFFFFFF46
:1011B300FFFFFFFF0300000000000000000000002D
:1011C300000000000000000000000000000007070E
:1011D30007077FFFFFFFFFFFFFFFFFFFFFFFFF008B
:1011E3000000000000000000000000001F3020206D
:1011F3002434FC0000000000000000000000000098
:1012030000000000000000000000000000001010BB
:10121300101F10100000000000000000000000007C
:10122300000000000000FFFFFFFFFFFFFFFFFFFFC5
:10123300FFFF1F1F2E10181C0E8E8E8E0E0E0C0C11
:1012430000000000000000000000003030383C3C8B
:101253003C3C7CFFFFFFFFFFFFFFFFFFFFFFFF00A3
:101263000000000000000000000000000000F8780B
:10127300183060C080000000000000000000000083
:101283000000000000000000000000000000F80F54
:101293001E30C0FE0300000000000000000000003C
:1012A300000000000000FFFFFFFF01070F3FFFFFEB
:1012B300FFFF040400000003030103030303000012
:1012C3000000000000000078000000030707030F80
:1012D3000F0F0F1FFFFFFFFF7F3F1FFFFFFFFF00EA
:1012E30000000000000000000000000000060701ED
:1012F300414141C0414306000000000000000000DE
:1013030000000000000000000000000000000000DA
:10131300F000C0E02000000000000000000000001A
:10132300000000000000FFFFFFFFF8E0E0E8FFFF20
:10133300FF1F10100000000000000000000010104C
:101343001010100000202020363618000000000086
:1013530000000080FFFFAFAFF0FAFEFFFFFFFF00CA
:10136300000000000000000000000000000000007A
:101373001010101F181000000000000000000000F3
:10138300000000000000000000000000000000005A
:101393003F0101070C1830000000000000000000AE
:1013A3000000000000003F3F3F3FFFFFFFFFFFFF44
:1013B300FFF8E0E080000000000000000707418123
:1013C3000000000000000101676F27070100804053
:1013D300404080FF7F6160606078F8B8B8E0C0008B
:1013E3000000000000000000000000000000FF03F8
:1013F3000E1870C080FF0000000000000000000015
:1014030000000000000000000000000000000000D9
:1014130000000000000000000000000000000000C9
:1014230000000000000000000000000000000000B9
:1014330030FF1F1F1F3F3F7E7CF8F0E0C0C0C0801D
:101443008080808080808080E0E0F0F8FCFFFF07F0
:10145300070703000000000002010101010103006E
:101463000000000000000000000000000000010078
:101473000000000001010000000000000000000067
:041483000000000065
:1024F2004100000060200103FFFFFFFF0460084766
:1025020019DF48C40000000021D000000000015281
:082512006800006C00000000ED
:1025B500D3EF9400EE940040147D6E7C00ED1D7009
:0D25C500011CED4C70F7EF1F70E61E80E367
:0125D20022E6
:09266400D2A4D2A5C2A5C2A42291
:09266D00C2A4C2A5D2A4D2A52288
:07251B00AD071226647F7872
:10252200E4FEEF30E704D2A58002C2A5D2A4C2A481
:0F253200EF25E0FF0EEEB408E9D2A5D2A4C2A4B3
:012541002277
:0D25D300746F2BF58274003AF583E493FFDA
:1025E00012251B7F40122522AF0512252202266DDF
:1024C700AC05AB07EC131313541F7E0024B0FF12A7
:0B24D70024E2EB54F0C4540F4410FF4B
:1024E20012251BE4FF122522AF0512252202266DBA
:06262900E0FFA3A3E0FDA9
:10262F00AC07ED24B0FF1224E2EC1224DAEC540FC5
:04263F00FF0224E290
:1025F0001224C7EB540FFF1224E2EC5407FF7401BE
:0D260000A807088002C333D8FCFF0225E0C4
:10260D001224C7EB540FFF1224E2EC5407FFE4A889
:0C261D0007088002C333D8FCFF0225E050
:02254200AC07E4
:10254400E4FBEB24B0FF1224E2E4FF1224E27F1048
:102554001224E2E4FAAF041225E00AEAB480F60B8E
:04256400EBB408DEEE
:012568002250
:10259000E4FCEC24B0FF1224E27F011224E27F105D
:1025A0001224E2E4FBE4FF1225E00BEBB480F60C0E
:0425B000ECB408DEA1
:0125B4002204
:101FDE007FF47E011225B57FAE1224E2E4FF1224B7
:101FEE00E27F101224E27F401224E27F811224E26B
:101FFE007FCF1224E27FA11224E27FC81224E27F57
:10200E00A61224E27FA81224E27F3F1224E27FD39D
:10201E001224E2E4FF1224E27FD51224E27F801222
:10202E0024E27FD91224E27FF11224E27FDA122415
:10203E00E27F121224E27FDB1224E27F401224E2BE
:10204E007F201224E27F021224E27F8D1224E27F8F
:10205E00141224E27FA41224E27FA61224E27FAFA0
:0E206E001224E2E4FF122542E4FDFF02262FB9
:10219B00900172EFF0A3ECF0A3EDF0A3EBF0A3EA48
:0421AB00F0A3E9F0C4
:1021AF00E4A3F0FCA3F0900175E0FBA3E0FAA3E039
:1021BF00F9900179E0F582758300121805605824B3
:1021CF00E0900178F0900172E0D3947E4010E4F03B
:1021DF00900174E004F07006900173E004F0900138
:1021EF0072122629E4FC900178E075F006A4246FA2
:1021FF00F582E5F03404F583E5822CF582E435832E
:10220F001225DB0CECB406DE900172E02406F09090
:07221F000179E004F0808F5B
:012226002295
:101F1D0090017AEFF0A3ECF0A3EDF0A3EBF0A3EAC0
:041F2D00F0A3E9F044
:101F3100E4A3F0FCA3F090017DE0FBA3E0FAA3E0B1
:101F4100F9900181E0F58275830012180570030292
:101F51001FDD24E0900180F090017AE0D394784075
:101F610010E4F090017CE004F0700690017BE00445
:101F7100F090017A122629E4FC900180E075F010BE
:101F8100A42CF582E435F0F583E5822497F582E50A
:101F91008334061225DB0CECB408DE90017AE0FFF5
:101FA100A3A3E004FD12262FE4FC900180E075F06C
:101FB10010A42CF582E435F0F583E582249FF582A7
:101FC100E58334061225DB0CECB408DE90017AE0DF
:0C1FD1002408F0900181E004F0021F37AA
:011FDD0022E1
:0A2443009001ACECF0A3EDF0A90746
:10244D00E4FCAE02EB7805C333CE33CED8F9FBAA4C
:10245D0006AF019001ACA3E0FD12262FE4FC12257E
:10246D00D30BBB00010A0CECB410F3AF019001AC1F
:10247D00A3E004FD12262FE4FC1225D30BBB0001B3
:06248D000A0CECB410F390
:012493002226
:101E5400900164EFF0A3ECF0A3EDF0A3EAF0A3EBA0
:011E6400F08D
:101E6500E490016EF0A3F0900169E0FAA3E0FB7C39
:101E7500007D08FFAE02121832ED4C7011FC7D0892
:101E8500AF03AE02121832900171EFF08015900188
:101E950069E0FEA3E0FF7C007D08121832EF049094
:101EA5000171F0900165A3E0900171F0900171E07E
:101EB500FDFFD390016AE09F7480F8900169E064AA
:101EC50080984053900164E0FF12262FE090017046
:101ED500F0900170E0FFD3900168E09F7480F89066
:101EE5000167E0648098402790016BE0FBA3E0FA6E
:101EF500A3E0F9A3E475F00112186885F082F58373
:101F0500121805FF1225E0900170E004F080C290E0
:071F15000171E004F080956A
:011F1C0022A2
:09267600C282C283D281C280221B
:1023EE00D282C281900186121934900186E0FCA33C
:1023FE00E0FDA3E0FEA3E0FF790078001218CD9077
:10240E000186121934900182121934C280E4FB90B5
:10241E000182E0FCA3E0FDA3E0FEA3E0FFA803120F
:10242E0018CDEF5480FFEF24FF9283D280C2800B31
:04243E00EBB408DB18
:012442002277
:101D7F00D282C28190018E12193490018EE0FCA3A1
:101D8F00E0FDA3E0FEA3E0FF790078001218CD90EC
:101D9F00018E12193490018A121934C280E4FB901B
:101DAF00018AE0FCA3E0FDA3E0FEA3E0FFA803127D
:101DBF0018CDED5480FDED24FF9283D280C2800BAD
:101DCF00EBB408DB90018EE0FCA3E0FDA3E0FEA3E3
:101DDF00E0FF78081218CD90018A121934E4FB90B5
:101DEF00018AE0FCA3E0FDA3E0FEA3E0FFA803123D
:101DFF0018CDED5480FDED24FF9283D280C2800B6D
:101E0F00EBB408DB90018EE0FCA3E0FDA3E0FEA3A2
:101E1F00E0FF78101218CD90018A121934E4FB906C
:101E2F00018AE0FCA3E0FDA3E0FEA3E0FFA80312FC
:101E3F0018CDED5480FDED24FF9283D280C2800B2C
:041E4F00EBB408DB0D
:011E5300226C
:1022AD00C2819001A012194000000000E490019F2E
:1022BD00F0C280D280E47F02FEFDFC9001A0E0F828
:1022CD00A3E0F9A3E0FAA3E0FB12187EA804A90588
:1022DD00AA06AB07A284E4FE33FFEE3395E0FDFCC6
:1022ED00EB2FFFEE3AFEE93DFDE83CFC9001A0121C
:1022FD00193490019FE004F0E0B420B59001A0E006
:0A230D00FCA3E0FDA3E0FEA3E0FF47
:0123170022A3
:10231800C2819001A512194000000000E49001A4B8
:10232800F0C280D280E47F02FEFDFC9001A5E0F8B7
:10233800A3E0F9A3E0FAA3E0FB12187EA804A9051C
:10234800AA06AB07A284E4FE33FFEE3395E0FDFC5A
:10235800EB2FFFEE3AFEE93DFDE83CFC9001A512AB
:1023680019349001A4E004F0E0B420B59001A5E090
:0A237800FCA3E0FDA3E0FEA3E0FFDC
:012382002238
:061AA400900154121934F8
:101AAA00900158E0FCA3E0FDA3E0FEA3E0FF900153
:101ABA0060121934D2B2D2B1900154E0FCA3E0FD15
:101ACA00A3E0FEA3E0FF90015C121934E4FBC2B369
:101ADA00D2B0C2B00BEBB403F5C2B3D2B0C2B0D22B
:101AEA00B3D2B0C2B0E4FB90015CE0FCA3E0FDA37A
:101AFA00E0FEA3E0FFA8031218CDEF5408FFEF247D
:101B0A00FF92B3D2B0C2B00BEBB404DB90015CA37A
:101B1A00A3A3E05401FFEF24FF92B3D2B0C2B0C234
:101B2A00B192B3D2B0C2B0D2B1900154E0FCA3E0FA
:101B3A00FDA3E0FEA3E0FF90015C121934E4FBC2AE
:101B4A00B3D2B0C2B00BEBB402F5900160E0FCA3D3
:101B5A00E0FDA3E0FEA3E0FF790078001218CD9023
:101B6A00016012193490015C121934E4FB90015C93
:101B7A00E0FCA3E0FDA3E0FEA3E0FFA8031218CD5A
:101B8A00EC548024FF92B3D2B0C2B00BEBB408DDA0
:101B9A00900160E0FCA3E0FDA3E0FEA3E0FF78086B
:101BAA001218CD90015C121934E4FB90015CE0FC40
:101BBA00A3E0FDA3E0FEA3E0FFA8031218CDEC54B6
:101BCA008024FF92B3D2B0C2B00BEBB408DD90010F
:101BDA0060E0FCA3E0FDA3E0FEA3E0FF781012188A
:101BEA00CD90015C121934E4FB90015CE0FCA3E0A7
:101BFA00FDA3E0FEA3E0FFA8031218CDEC54802455
:101C0A00FF92B3D2B0C2B00BEBB408DD900160E032
:101C1A00FCA3E0FDA3E0FEA3E0FF78181218CD9024
:101C2A00015C121934E4FB90015CE0FCA3E0FDA323
:101C3A00E0FEA3E0FFA8031218CDEC548024FF9223
:101C4A00B3D2B0C2B00BEBB408DDC2B3D2B0C2B0EB
:0A1C5A00C2B1C2B3D2B0C2B0D2B121
:011C6400225D
:0B1C650090014BEBF0A3EAF0A3E9F0C4
:101C7000E4900152F0A3F0C2B1C2B27FC8FE1225B7
:101C8000B5D2B1D2B2E4900152F0A3F0900152E08B
:101C9000FEA3E0FFC39408EE648094805050EE33BE
:101CA00095E0FDFCC004C005C006C007900152A32A
:101CB000E07802C333CE33CED8F9FF90014BE0FB7E
:101CC000A3E0FAA3E0F98F828E831218E090015806
:101CD000121934D007D006D005D004121AA49001EE
:101CE00053E004F070A6900152E004F0809E900151
:101CF0004E12194000000010E4900152F0A3F09041
:101D00000152E0FAA3E0FBC39408EA648094805097
:101D10003290014EE0FCA3E0FDA3E0FEA3E0FFA9AA
:101D200003A8011218CDEF5480FFEF24FF92B3D225
:101D3000B0C2B0900153E004F070C4900152E004CE
:101D4000F080BCD2B3D2B0C2B0D2B3D2B0C2B0C2B3
:101D5000B1D2B3D2B0C2B0D2B1E4900152F0A3F08C
:101D6000D2B0C2B0900153E004F07006900152E08E
:0E1D700004F0900152E07004A3E0646470E29D
:011D7E002242
:1026430075985053890F438920758DFD758BFDD285
:062653008ED2ACD2AF22D2
:08267F008F993099FDC29922E8
:102494009001A9EBF0A3EAF0A3E9F09001A9E0FB15
:1024A400A3E0FAA3E0F91217EC60179001A9A3E4E2
:1024B40075F001121868A9F0FA1217ECFF12267FC2
:0324C40080D9229A
:10207C001217EC900198F09000021218057E00786F
:10208C0010C333CE33CED8F9FDAC06900001121834
:10209C00057E007818C333CE33CED8F9FFEE4CFC56
:1020AC00EF4DFD9000031218054CFEEDFF9000045F
:1020BC00121805FDEF4DFFE4FCFD900195E0FBA32C
:1020CC00E0FAA3E0F9A3E075F004A4F58285F083AF
:1020DC00121910900198E0FF900126F0900195E004
:1020EC00FBA3E0FAA3E0F975F004EFA4F58285F008
:1020FC00831218E09001271219347BFF7A007903C0
:03210C000214F2C8
:10238300E49001AEF0A3F07BFF7A0079309001AEC8
:10239300E0FEA3E0FF900126EEF0A3EFF07802C386
:1023A30033CE33CED8F92403F58274013EF583E0AE
:1023B300FCA3E0FDA3E0FEA3E0FF90012812193483
:1023C3001214F29001AFE004F070069001AEE00445
:1023D300F0C39001AFE094089001AEE06480948074
:0B23E30040A57BFF7A0079400214F255
:102227009000021218057E007810C333CE33CED843
:10223700F9FDAC069000011218057E007818C3332B
:10224700CE33CED8F9FFEE4CFCEF4DFD90000312D4
:1022570018054CFEEDFF900004121805FDEF4DFF29
:10226700E4FCFD121971228B64617461227D706C2C
:1022770061790000228E90019CE0FBA3E0FAA3E0C5
:10228700F9021C6502238390019CE0F9A3E0FAA3FD
:10229700E0900126C9F0A3EAF0A3E9F07BFF7A00FA
:0522A70079511214F250
:0122AC00220F
:0B2659007B017A017903121C6580F5FB
:10211B00022659E493A3F8E493A34003F68001F25B
:10212B0008DFF48029E493A3F85407240CC8C333C5
:10213B00C4540F4420C8834004F456800146F6DF94
:10214B00E4800B01020408102040809024F2E47E0E
:10215B00019360BCA3FF543F30E509541FFEE49389
:10216B00A360010ECF54C025E060A840B8E493A350
:10217B00FAE493A3F8E493A3C8C582C8CAC583CA7B
:10218B00F0A3C8C582C8CAC583CADFE9DEE780BE33
:01251A0000C0
:1017EC00BB010689828A83E0225002E722BBFE02FB
:0917FC00E32289828A83E493222E
:10180500BB010CE58229F582E5833AF583E0225098
:1018150006E92582F8E622BBFE06E92582F8E222E2
:0D182500E58229F582E5833AF583E49322FC
:10183200C2D5EC30E709B2D5E4C39DFDE49CFCEED1
:1018420030E715B2D5E4C39FFFE49EFE1219BDC373
:10185200E49DFDE49CFC80031219BD30D507C3E46E
:061862009FFFE49EFE2240
:10186800A3F8E0C5F025F0F0E58215827002158333
:06187800E0C838F0E82290
:10187E00E88FF0A4CC8BF0A42CFCE98EF0A42CFC09
:10188E008AF0EDA42CFCEA8EF0A4CDA8F08BF0A487
:10189E002DCC3825F0FDE98FF0A42CCD35F0FCEBE6
:1018AE008EF0A4FEA9F0EB8FF0A4CFC5F02ECD39AB
:0F18BE00FEE43CFCEAA42DCE35F0FDE43CFC2218
:1018CD00E8600FEFC333FFEE33FEED33FDEC33FC79
:0318DD00D8F1221D
:1018E000BB010DE58229F582E5833AF583021A1ED4
:1018F0005007E92582F8021A12BBFE07E92582F893
:10190000021A2AE58229F582E5833AF583021A361E
:10191000BB010DE58229F582E5833AF5830219348E
:101920005007E92582F8021A46BBFE07E92582F82E
:04193000021A522223
:0C193400ECF0A3EDF0A3EEF0A3EFF02226
:10194000A8828583F0D083D08212195712195712BA
:101950001957121957E473E493A3C583C5F0C583DF
:10196000C8C582C8F0A3C583C5F0C583C8C582C8F1
:011970002254
:10197100D083D082E4937012740193700DA3A3936A
:10198100F8740193F5828883E4737402936C701286
:101991007403936D700C7404936E70067405936FE9
:0A19A10060DDA3A3A3A3A3A380CAE3
:10148700E5082426F582E43401F583E00508229077
:101497000123300703900126E475F001121A5E025A
:1014A70017EC2000E97F2ED2008018EF540F24900C
:1014B700D43440D4FF30040BEF24BFB41A005003D8
:1014C7002461FFE50960021509050CE50C700205AA
:1014D7000B30070E900123E475F001121A5EEF023C
:1014E70019AB0225697403D2078003E4C207F50824
:1014F700900123121A75E4F509F50BF50CE509605F
:10150700077F201214CA80F5750AFFC201C200C204
:1015170002C203C205C206C208121496FF700D303C
:1015270007057F001214DBAF0CAE0B22B4255FC298
:10153700D5C204121496FF24D0B40A00501A75F0CD
:101547000A780930D50508B6FF0106C6A426F62095
:10155700D5047002D20380D924CFB41A00EF500407
:10156700C2E5D2040216DCD20180C6D20080C0D206
:101577000280BCD2D580BAD20580B47F201214CAAB
:101587002002077401B5090040F1121487FF1214F5
:10159700CA021504D208D2068095121487FB1214CA
:1015A70087FA121487F94A4B700679AD7A177BFFD1
:1015B70020022EE509602A7E008E827583001218AC
:1015C7000560060EEE650A70F0C2D5EBC0E0EAC012
:1015D700E0E9C0E0EE121723D0E0F9D0E0FAD0E05E
:1015E700FB1217ECFF60AAEBC0E0EAC0E0E9C0E03D
:1015F7001214CAD0E02401F9D0E03400FAD0E0FB9D
:10160700E50A0460DCD50AD980877BFF7A17791F42
:10161700D202809C791080027908C206C20880082D
:10162700D2D5790A8004790AC2D5E50A047002F591
:101637000AE4FAFDFEFF121487FC7B08200113124F
:101647001487FD7B1030000A121487FE121487FFDF
:101657007B20EC3382D592D55013C3E43000069F2C
:10166700FFE49EFEE42001039DFDE49CFCE4CBF82F
:10167700C201EC700CCFCECDCCE824F8F870F38023
:1016870017C3EF33FFEE33FEED33FDEC33FCEB33E3
:10169700FB994002FB0FD8E9EB300105F8D0E0C415
:1016A70048B201C0E00AEC4D4E4F78207B0070C273
:1016B700EAB50A0040BCC0E0121725D0F0D0E02000
:1016C7000104C4C0E0C4B201C0F01214B3D0F0D515
:1016D700F0EB021504121A7E15A153161B5815724A
:1016E7004C156E42161F4F16274416274915874378
:0816F700162D551611461611BF
:1016FF004516114717CD5015762D157A2E159D2BA2
:10170F00157E23159B2017B62A1536480000159510
:10171F003F3F3F00790AA2D5200314300509B910C5
:10172F00020404B9080104A2D520060250010420C6
:10173F0002689202B509005034C0E07F20300319CF
:10174F007F30A20272067205500F12177CC202C2BE
:10175F0006C205C2087F30800F300503E9C0E012D2
:10176F0014CA300503D0E0F9D0E0B509CC30051725
:10177F007F30B9100C1214CA7F583004077F78805D
:10178F0003B908031214CA3002057F2D0214CA7F51
:10179F00202008F87F2B2006F322920280CF286E9C
:1017AF00756C6C2900D2011214873001F8C20178D0
:1017BF000930D50108F60215362D50434958121439
:1017CF00872403B405004001E49017C8931214BB9B
:0D17DF00743A1214BBD20375090402161BE4
:1019AB00BB010689828A83F0225002F722BBFE011B
:0219BB00F32215
:1019BD00BC000BBE0029EF8DF084FFADF022E4CC0E
:1019CD00F875F008EF2FFFEE33FEEC33FCEE9DECD7
:1019DD00984005FCEE9DFE0FD5F0E9E4CEFD22ED1D
:1019ED00F8F5F0EE8420D21CFEADF075F008EF2F67
:1019FD00FFED33FD4007985006D5F0F222C398FD58
:051A0D000FD5F0EA22F4
:0C1A1200E6FC08E6FD08E6FE08E6FF2200
:0C1A1E00E0FCA3E0FDA3E0FEA3E0FF223B
:0C1A2A00E2FC08E2FD08E2FE08E2FF22F8
:101A3600E493FC740193FD740293FE740393FF22F6
:0C1A4600ECF608EDF608EEF608EFF622CC
:0C1A5200ECF208EDF208EEF208EFF222D0
:101A5E00F8E0FBA3A3E0F925F0F0E5821582700211
:071A6E001583E0FA38F022B5
:091A7500EBF0A3EAF0A3E9F02272
:101A7E00D083D082F8E4937012740193700DA3A3F7
:101A8E0093F8740193F5828883E47374029368600B
:061A9E00EFA3A3A380DF0B
:10256900EFB40A07740D122574740A309811A899EA
:10257900B8130CC2983098FDA899C298B811F630D2
:0725890099FDC299F59922AA
:00000001FF
