:020000040800F2
:100000009005002045010008111C0008551B000840
:100010000D1C0008490500083D1D000800000000F7
:10002000000000000000000000000000191C000893
:100030004D05000800000000151C00081D1C0008EC
:100040005F0100085F0100085F0100085F01000810
:100050005F0100085F0100085F0100085F01000800
:100060005F0100085F0100085F0100085F010008F0
:100070005F0100085F0100085F0100085F010008E0
:100080005F0100085F0100085F0100085F010008D0
:100090005F0100085F0100085F0100085F010008C0
:1000A0005F0100085F0100085F0100085F010008B0
:1000B0005F0100085F0100085F0100085F010008A0
:1000C0005F0100085F0100085F0100085F01000890
:1000D0005F010008311D00085F0100085F01000892
:1000E0005F0100085F0100085F0100085F01000870
:1000F0005F0100085F0100085F0100085F01000860
:100100005F0100085F0100085F0100085F0100084F
:100110005F0100085F0100085F0100085F0100083F
:100120005F0100085F0100085F0100085F0100082F
:10013000DFF80CD000F05CF800480047651D0008AF
:10014000900500200648804706480047FEE7FEE786
:10015000FEE7FEE7FEE7FEE7FEE7FEE7FEE7FEE777
:10016000211C000831010008D2B201E000F8012B87
:10017000491EFBD270470022F6E710B513460A4627
:1001800004461946FFF7F0FF204610BD2DE9F05F49
:100190000546002092469B468846064681464024F6
:1001A0001BE0284641464746224600F048F85346A1
:1001B0005A46C01A914110D311461846224600F003
:1001C0002FF82D1A67EB01084F4622460120002127
:1001D00000F026F817EB00094E41201EA4F101049F
:1001E000DFDC484631462A464346BDE8F09F000022
:1001F0001CB509480090094801900546009C06E09E
:10020000E06840F0010394E8070098471034AC42DE
:10021000F6D3FFF791FF00001C2800083C280008D7
:10022000202A04DB203A00FA02F1002070479140B6
:10023000C2F1200320FA03F3194390407047202AAB
:1002400004DB203A21FA02F00021704721FA02F380
:10025000D040C2F120029140084319467047000087
:100260002DE9F04141F20044C4F201040D468046FC
:1002700020468021012200F021FB2046102101228E
:1002800000F01CFB20464021002200F017FB204616
:100290002021012200F012FB20462021002200F044
:1002A0000DFB20464021002200F008FB20462021C3
:1002B000012200F003FB20462021002200F0FEFA7C
:1002C00020464021002200F0F9FA20462021012298
:1002D00000F0F4FA20462021002200F0EFFA204638
:1002E0004021002200F0EAFA20462021012200F0FD
:1002F000E5FA20462021002200F0E0FA20464021C5
:10030000012200F0DBFA20462021012200F0D6FA7B
:1003100020462021002200F0D1FA7DA001F0BEFF8E
:10032000C8F3C00620464021324600F0C7FA42F624
:100330001707C0F600073846314601F0AFFF2046E8
:100340002021012200F0BAFA20462021002200F0EC
:10035000B5FAC8F3800620464021324600F0AEFAD6
:100360003846314601F09AFF20462021012200F054
:10037000A5FA20462021002200F0A0FAC8F340068A
:1003800020464021324600F099FA3846314601F0C5
:1003900085FF20462021012200F090FA20462021EE
:1003A000002200F08BFA08F0010620464021324678
:1003B00000F084FA3846314601F070FF20462021D3
:1003C000012200F07BFA20462021002200F076FA7C
:1003D0000A2002F0B5F920464021324600F06EFABC
:1003E00020462021012200F069FA20462021002227
:1003F00000F064FA20461021002200F05FFA204647
:100400004021324600F05AFA20462021012200F015
:1004100055FA20462021002200F050FA20461021F3
:10042000012200F04BFA20464021002200F046FA5B
:1004300020462021012200F041FA204620210022FE
:1004400000F03CFA20464021002200F037FA204616
:100450002021012200F032FA20462021002200F063
:100460002DFA290E2CA001F019FF284601F060FE9C
:100470000A2002F065F9C5F307412AA02E0201F017
:100480000DFF304601F054FE0A2002F059F9C5F381
:10049000072127A02E0401F001FF304601F048FE9D
:1004A0000A2002F04DF9E9B224A02E0601F0F6FE72
:1004B000304601F03DFE0A2002F042F9204640217C
:1004C000002200F0FBF920462021012200F0F6F97D
:1004D00020462021002200F0F1F9204610210022C0
:1004E00000F0ECF920464021002200F0E7F9204618
:1004F0002021012200F0E2F920462021002200F014
:10050000DDF9204610210122BDE8F04100F0D6B906
:100510004164726573733A0077343A253032580A71
:100520000000000077333A253032580A00000000FE
:1005300077323A253032580A0000000077313A25E8
:100540003032580A00000000FEE70000704700004B
:10055000EFF3108072B600BFFEE70000014690F88E
:100560002100022816D10868D1E90FC3026822F0E1
:100570000E020260026822F001020260012000FA0D
:1005800003F2CCF8042081F821000020002281F839
:1005900020207047042088630120002281F8202059
:1005A0007047000090F82110022927D1026840F21C
:1005B000040C1368C4F2020C23F00E0313601368DA
:1005C0000CF17C018A4223F0010111601AD940F23A
:1005D0000841C4F202018A4250D040F21C41C4F2E8
:1005E00002018A4242D040F23041C4F202018A4202
:1005F00048D14FF48073CCF800345CE0042181636F
:10060000012070474321C4F202018A420EDD6B21B2
:10061000C4F202018A421BDC4421C4F202018A4274
:100620003ED05821C4F202018A4223E00821C4F2DC
:1006300002018A4232D01C21C4F202018A4237D020
:100640003021C4F202018A4214D14FF4807230E0AA
:100650006C21C4F202018A4226D08021C4F2020138
:100660008A4207D14FF0807223E000BF1023CCF8FC
:10067000003420E04FF480321BE000BF0123CCF8AF
:10068000003418E00CF588614FF480338A4208BFCB
:100690004FF48053CCF800340DE000BF012208E095
:1006A0004FF4805205E000BF4FF4801201E000BF1C
:1006B0001022CCF80020012180F82110416B00228B
:1006C000002980F8202004BF0020704780B58847AB
:1006D000002080BD2DE9F04F82B00E68002E00F0A2
:1006E000E980A0F1804241F6004540F20043A2F5C6
:1006F0008432C4F201050624C4F201034FEAB22792
:10070000A84208BF05244FF0000E4FF001080F2546
:100710004FF0000A4FF0000B052F38BF4FEAB2240C
:10072000009408E00E680AF1010A36FA0AF20EF1A6
:10073000040E00F0BF8008FA0AFC16EA0C09F1D09A
:100740004E684FF6FF72C1F21002964212DC122E72
:1007500056D8DFE806F0350B4D49555555555555DA
:100760005555555555555545510000BFD1F80CB05C
:1007700046E000BF4FF6FF72C1F2210296420FDC45
:100780000022C1F2110296421AD00022C1F21202D6
:10079000964215D00022C1F22102964210D02FE0DD
:1007A0000022C1F2220296420AD00022C1F2310296
:1007B000964205D00022C1F23202964220D100BFFB
:1007C0008A684AB1012A14BFC0F814C0C0F810C02A
:1007D0004FF0080B14E000BF4FF0040B10E000BF17
:1007E000CA6802F1040B0BE04FF0000B08E000BFF9
:1007F000CA6802F1080B03E0CA6802F10C0B00BFE3
:1008000002467446B9F5807F24BF0432203C166846
:1008100005FA04F726EA07070BFA04F637431760D0
:10082000CA79D2067FF57EAF41F21807C4F20207FB
:100830003A684FF6084542F001023A603A68CFF64E
:10084000FF7502F001020192019A2AF003021A4494
:100850000F2457590EF00C06B440A743009C04FA2D
:1008600006F6374357514E6840F20C44F2029A683C
:1008700054BF22EA090242EA0902C4F201049A6062
:100880002268B70254BF22EA090242EA0902226042
:100890005A68B70354BF22EA090242EA09025A60C1
:1008A0000F251A68F70354BF22EA090242EA090237
:1008B0001A6037E702B0BDE8F08F0000002A08BFD9
:1008C000090401617047000040F28C10C2F2000080
:1008D0000068704740F2040040F28C11C2F2000040
:1008E000C2F2000100780A681044086070470000F6
:1008F00080B542F20000C4F20200016841F010012C
:100900000160032000F08CF80F2000F005F800F0E3
:1009100027F8002080BD000070B540F20406C2F246
:10092000000640F20C013278C2F200014FF47A73F3
:100930000968B3FBF2F20446B1FBF2F1084600F09D
:1009400085FB0F2C4FF0010508D838B94FF0FF3068
:1009500021460022002500F037F87460284670BD5B
:1009600082B041F21800C4F202000168022241F094
:1009700001010160016801F00101019101994168E3
:1009800041F080514160406800F080500090009834
:100990000420C4F20100016862F31A61016002B030
:1009A00070470000002848BF704700F01F01012277
:1009B00002FA01F11C2202EAD0004EF20012CEF23D
:1009C000000281507047000010B54EF60C5CCEF26C
:1009D000000CDCF80030C3F3022E8EF00704042C68
:1009E00028BF0424BEF103034FF0FF3E0EFA04F4C7
:1009F00038BF0023A14399400EFA03F39A431143F1
:100A000000F00F0200F160430901043A03F564436A
:100A10006244002848BF02F10C03197010BD0000A9
:100A20004EF60C51CEF200010A684FF6FF031A4051
:100A300060F30A2242F0806040F0FD700860704769
:100A4000002804BF012070472DE9F04381B042F235
:100A50000008C4F202080446D8F800000D4600F071
:100A6000070088420CD2D8F8000020F00700284385
:100A7000C8F80000D8F8000000F00700A8426CD1C8
:100A8000206841F204098107C4F2020917D5410721
:100A900005D5D9F8001041F4E061C9F8001001074C
:100AA00005D5D9F8001041F46051C9F80010D9F803
:100AB0000010A26821F0F0011143C9F80010C0072E
:100AC00042D1D8F8000000F00700A8420CD9D8F8AD
:100AD000000020F007002843C8F80000D8F8000004
:100AE00000F00700A84238D12068410707D5D9F89F
:100AF0000010E26821F4E0611143C9F8001000071A
:100B000008D5D9F80000216920F4605040EAC100FE
:100B1000C9F80000D9F8002002F00C00082841F2C2
:100B20000020C0F27A004DD142F28A73C2F38341B1
:100B3000C0F60003595CD20338D440F60010C0F26E
:100B40003D0048433EE000BF606859F8041C02289D
:100B500008D0012826D1890306D4012001B0BDE8C0
:100B6000F08300BF8901F8D5D9F8001021F0030106
:100B70000843C9F80000FFF7A7FE064641F2883790
:100B8000D9F80000616800F00C00B0EB810F98D03C
:100B9000FFF79AFE801BB842F2D9032001B0BDE8EE
:100BA000F08300BF8907D8D5DEE700BFD9F8002061
:100BB00042F28873C2F34042C0F600039A5C484395
:100BC000B0FBF2F0D9F8001042F27072C1F30311D9
:100BD000C0F60002515C40F20C0220FA01F140F232
:100BE0000800C2F200000068C2F200021160FFF7C4
:100BF00093FE002001B0BDE8F083000040F20C003D
:100C000041F20401C2F20000C4F202010068096866
:100C100042F28072C1F30221C0F60002515CC8406A
:100C20007047000040F20C0041F20401C2F20000E3
:100C3000C4F202010068096842F28072C1F3C22165
:100C4000C0F60002515CC84070470000002804BF95
:100C5000012070472DE9F04182B00446007841F24E
:100C60000006C007C4F202060CD0706800F00C0049
:100C7000042840F081803068800303D56068002834
:100C800000F04681207880071BD5706810F00C0FAB
:100C900009D0706800F00C00082840F08780706868
:100CA000C00300F183803068800703D520690128E4
:100CB00040F02E813068616920F0F80040EAC10000
:100CC00030602078000713D4207840072CD4E569E1
:100CD000002D00F01881706800F00C00082840F02A
:100CE000A780012D40F00481012002B0BDE8F08111
:100CF000A069002800F084800020C4F24220012175
:100D0000C0F88014FFF7E0FD054600BF706A800759
:100D100000F1B280FFF7D8FD401B0228F6D903206E
:100D200002B0BDE8F08100BFF0695FEAC00808D4F6
:100D3000F06940F08050F061F06900F08050009060
:100D4000009847F20007C4F200073868C00549D48C
:100D5000386840F480703860FFF7B6FD054600BF84
:100D60003868C0053ED4FFF7AFFD401B6428F7D9B3
:100D7000032002B0BDE8F081706800F00C00082884
:100D800003D17068C0033FF576AF61683068002911
:100D900000F00C81B1F5A02F00F00081B1F5803F8B
:100DA00040F01A8140F480301CE100BF2069002827
:100DB00040F20000C4F2422000F08880012101606E
:100DC000FFF782FD054600BF306880073FF572AF30
:100DD000FFF77AFD401B0228F6D9032002B0BDE8D8
:100DE000F08100BFE168306A002900F09D8005298C
:100DF00000F09280012940F0AF8040F00100B1E0A6
:100E00000020C4F242200021C0F88014FFF75CFDEE
:100E1000054600BF706A80077FF556AFFFF754FDA7
:100E2000401B0228F6D9032002B0BDE8F08100BFC4
:100E30000027C4F2422700203866FFF745FD022D47
:100E400005460DD13068800140F1DE80FFF73CFDA2
:100E5000401B02284FF00300F4D902B0BDE8F08136
:100E6000306880014FD5FFF72FFD401B02284FF05F
:100E70000300F5D9F1E700BF40F20C00C2F2000018
:100E8000006844F6D351C1F26201A0FB0101480A97
:100E9000019000BF00BF0198411E002801913FF45E
:100EA00013AF00BF0198411E002801913FF40CAF21
:100EB00000BF0198411E002801913FF405AF00BF1B
:100EC0000198411E00280191E4D1FDE60021016056
:100ED000FFF7FAFC054600BF306880077FF5F1AEEA
:100EE000FFF7F2FC401B02284FF00300F4D9B4E7EF
:100EF0007068216A00F480328A4209D1616A00F484
:100F00007010884204D1002002B0BDE8F08100BF1B
:100F1000012002B0BDE8F08140F004003062306A88
:100F200040F001001EE000BF20F001003062306A96
:100F300020F004003062FFF7C7FC054641F2883715
:100F4000306A800720D5FFF7BFFC401BB8424FF046
:100F50000300F5D981E700BF20F001003062306A5C
:100F600020F004003062FFF7AFFC054641F28837FD
:100F7000306A800708D4FFF7A7FC401BB842F7D9B6
:100F8000032002B0BDE8F081B8F1000F3FF59FAE3D
:100F9000F06920F08050F06199E600BF40F48020B5
:100FA0003060306840F480301CE000BF20F48030B6
:100FB0003060306820F480203060FFF785FC054603
:100FC000306880037FF55EAEFFF77EFC401B64282F
:100FD0004FF00300F4D940E720F4803030603068EF
:100FE00020F480203060FFF76FFC054630688003F6
:100FF0003FF548AEFFF768FC401B6428F6D9032094
:1010000002B0BDE8F08100BF206AB0F5803F05D195
:101010007168A26821F40031114371607168626ADD
:1010200021F4741111430843706001203866FFF702
:101030004BFC0446306880013FF565AFFFF744FC88
:10104000001B02284FF00300F4D906E7411E0020E0
:10105000B0EB116F1CBF012070474EF21002CEF2B0
:10106000000251604EF62351CEF20001F0230B70C6
:1010700007219060116070477047000070470000C2
:10108000B0B582B001680A68CC684B6902F02F05E0
:10109000202D04F0200505D125B102B0BDE8B040F7
:1010A00000F0C6BD5FEA027C1EBF03F0010E04F42F
:1010B000907313EB0E0341D1036BD50618D5012BAA
:1010C00016D114F0100313D0002201920A68019285
:1010D0004A680192019A496949064BD4818DC28DB3
:1010E000C38D002B18BF914240F0F48102B0B0BD17
:1010F00013062DD514F080032AD090F84120212A20
:10110000F4D18268B2F5805F03D10269002A00F051
:101110006782026A531C036212784A60C28C013AE9
:101120001304C284E2D1C86820F08000C860C86897
:1011300040F04000C86002B0B0BD00BFD30718BF88
:1011400014F4807340F0D080530700F1D380D8E0CE
:101150005206CBD514F04002C8D0CA6822F0400233
:10116000CA60202180F8411002B0BDE8B04000F014
:10117000EFBC00BFC16B0A68526893B2002BB5D0B8
:10118000858DAB42B2D2C2858969202900F0A18049
:10119000016851E8031F026821F4807142E80313DB
:1011A000DBB1016851E8031F026821F4807142E855
:1011B000031393B1016851E8031F026821F48071A1
:1011C00042E803134BB1016851E8031F026821F4A0
:1011D000807142E80313002BDAD1016851E8051F42
:1011E000026821F0010142E80513C3B3016851E828
:1011F000051F026821F0010142E805137BB3016875
:1012000051E8051F026821F0010142E8051333B3DC
:10121000016851E8051F026821F0010142E8051349
:10122000002BDAD11BE000BF016851E8051F0268FE
:1012300021F0400142E80513DBB1016851E8051FC8
:10124000026821F0400142E8051393B1016851E8BA
:10125000051F026821F0400142E805134BB1016807
:1012600051E8051F026821F0400142E80513002BF8
:10127000DAD1202180F8421000210163016851E891
:10128000031F026821F0100142E80313DBB101687B
:1012900051E8031F026821F0100142E8031393B1E3
:1012A000016851E8031F026821F0100142E80313AE
:1012B0004BB1016851E8031F026821F0100142E8B8
:1012C0000313002BDAD1C16B04460846FFF746F939
:1012D000204602214163818DC28D891A89B202B0F4
:1012E000BDE8B040FFF7C8BE436C43F00103436460
:1012F000530706D5BEF1000F03D0436C43F0020341
:101300004364930706D5BEF1000F03D0436C43F04E
:1013100004034364BCF1000F06D55EEA050303D065
:10132000436C43F008034364436C002B3FF4DEAE90
:10133000920605D525B1044600F07AFC21682046C6
:101340004969426C01F0400102F00802891800F07E
:10135000B98000BF016851E8031F026821F4907151
:1013600042E80313BBB3016851E8031F026821F48C
:10137000907142E8031373B3016851E8031F0268D8
:1013800021F4907142E803132BB3016851E8031F65
:10139000026821F4907142E80313002BDAD11AE0BD
:1013A000016851E8051F026821F0010142E80513B8
:1013B000DBB1016851E8051F026821F0010142E834
:1013C000051393B1016851E8051F026821F001017E
:1013D00042E805134BB1016851E8051F026821F08E
:1013E000010142E80513002BDAD1016B012924D158
:1013F000016851E8031F026821F0100142E803135D
:10140000DBB1016851E8031F026821F0100142E8D6
:10141000031393B1016851E8031F026821F0100122
:1014200042E803134BB1016851E8031F026821F041
:10143000100142E80313002BDAD1202180F842107A
:101440000021016301684969490640F1C3800168D0
:1014500051E8051F026821F0400142E80513DBB1A5
:10146000016851E8051F026821F0400142E80513B8
:1014700093B1016851E8051F026821F0400142E87C
:1014800005134BB1016851E8051F026821F04001C6
:1014900042E80513002BDAD1C16B002900F09A80D5
:1014A00041F62542C0F60002044608464A63FFF7AB
:1014B00079F800283FF41AAEE06B416B02B0BDE84A
:1014C000B04008470446FFF7D9FD0020606402B031
:1014D000B0BD00BF891A00BF026852E8032F03683D
:1014E00022F4907243E80325BDB3026852E8032F4B
:1014F000036822F4907243E8032575B3026852E84A
:10150000032F036822F4907243E803252DB3026889
:1015100052E8032F036822F4907243E80325002D5C
:10152000DAD11AE0026852E8052F036822F00102BE
:1015300043E80525DDB1026852E8052F036822F073
:10154000010243E8052595B1026852E8052F0368BA
:1015500022F0010243E805254DB1026852E8052F4B
:10156000036822F0010243E80525002DDAD120228C
:1015700080F8422000220263026852E8032F0368C9
:1015800022F0100243E80325DDB1026852E8032F80
:10159000036822F0100243E8032595B1026852E87F
:1015A000032F036822F0100243E803254DB10268BF
:1015B00052E8032F036822F0100243E80325002DB0
:1015C000DAD1022289B2426302B0BDE8B040FFF72F
:1015D00053BD00BF02B0BDE8B040FFF74FBD00BF34
:1015E000026A32F8023B6FF35F234B60026295E5BB
:1015F000002804BF0120704710B5044690F8410050
:1016000028B9002084F84000204600F063F8242028
:1016100084F841002068D4E90212C36823F400531F
:10162000C360036923F440531A430261D4E90423DD
:101630001143C268194341F20C639A431143C160DC
:101640004169A26921F44071114343F60002C4F2DA
:1016500001029042416103D0FFF7D0FA02E000BFDF
:10166000FFF7E0FAD4E90023192148439900B0FBC1
:10167000F1F048F21F5CC5F2EB1CA0FB0C314FF6F9
:101680009C734909C0F6FF7301FB0300322303EB8F
:101690000010A0FB0C03F02000EA531000EB011037
:1016A000C3F34311084490601069202120F4904056
:1016B0001061506920F02A005061D06840F4005059
:1016C000D0600020606484F8411084F842106063A8
:1016D00010BD000070B586B040F60004C4F20104ED
:1016E000006804F54051002688420596CDE903665E
:1016F000029601D006B070BD41F21800C4F202009B
:10170000016802AD41F480410160016801F480414B
:1017100001910199016841F00401016000682946C6
:1017200000F00400019001984FF400700290022034
:101730000390032005902046FEF7CCFF4FF4806015
:10174000CDE90206204629460496FEF7C3FF252070
:1017500000210022FFF738F92520FFF723F906B012
:1017600070BD000090F84230202B07D100294FF0C7
:10177000010318BF002A05D11846704702231846F6
:10178000704700BF00230363816222218285C285E6
:10179000436480F842100169006819B1C16841F4DE
:1017A0008071C160416941F001014161C16841F04E
:1017B0002001C1601846704710B540F24004C2F2E3
:1017C00000042178FF2915D10020207040F2440048
:1017D000C2F200004FF48071FEF7CDFC40F24410DD
:1017E000C2F200003AA10A224FF6FF7300F076F829
:1017F00054E000BF637840F244004A1CC2F200008B
:101800000A2B2270435449D1014411F8011C0D29BF
:1018100044D101780D2915D1D0F8010001BA47F261
:101820006140C6F26140814224D046F27910C7F28D
:101830006C00814222D140F21C00C2F2000000F094
:101840001FFB21E0072A11D107290FD8D0F801008A
:1018500002BA40F21C00C2F2000040F8212042F21D
:10186000AA70C0F6000000F019FD0DE010A000F015
:101870006DFF09E000F0C6FA06E000BF42F2D77043
:10188000C0F6000000F00AFD0020207040F2440085
:10189000C2F200004FF48071FEF76DFC40F244107C
:1018A000611CC2F200000122BDE81040FFF75ABFE0
:1018B000506C6561736520696E70757420636F721A
:1018C0007265637420706172616D65746572210068
:1018D0006F766572666C6F770A0000002DE9F04341
:1018E00081B0044690F84100202809D1884600299B
:1018F0004FF0010018BF002A06D101B0BDE8F08307
:10190000022001B0BDE8F0830020606421201D4664
:1019100084F841001646FEF7D7FFA684E684A16846
:101920000646B1F5805F03D12069002800F094805D
:1019300047464FF00008E18C2068002900F09280B3
:1019400005F101090BE000BF47B317F8011B416027
:10195000E18C0139E184E18C002900F08380016889
:101960000906F1D4B9F1000F0AD0EDB1FEF7ACFFD2
:10197000801BA84218D8206801680906F6D5E3E75D
:1019800001680906E0D4016809065CBF01685FEAE6
:101990000161D9D401680906F2D5D5E738F8021BF0
:1019A00000276FF35F21D2E7206850E8030F21681A
:1019B00020F4D07041E80302BAB3206850E8030F66
:1019C000216820F4D07041E8030272B3206850E827
:1019D000030F216820F4D07041E803022AB3206885
:1019E00050E8030F216820F4D07041E80302002A78
:1019F000DAD11AE0206850E8050F216820F00100D4
:101A000041E80502DAB1206850E8050F216820F0AE
:101A1000010041E8050292B1206850E8050F2168F5
:101A200020F0010041E805024AB1206850E8050FA6
:101A3000216820F0010041E80502002ADAD12020C7
:101A400084F8410084F84200002084F8400003201C
:101A500001B0BDE8F08300BF0027E18C20680029B9
:101A60007FF46EAF016849060FD4F5B1691C17D138
:101A70000168490609D4016849065CBF01685FEA4C
:101A8000416102D401684906F2D5202084F8410062
:101A9000002001B0BDE8F083206800684006F4D45F
:101AA000FEF712FF801BA842F6D9206850E8030F0A
:101AB000216820F4D07041E80302EAB3206850E8BE
:101AC000030F216820F4D07041E80302A2B320681C
:101AD00050E8030F216820F4D07041E803025AB3A4
:101AE000206850E8030F216820F4D07041E8030219
:101AF000002ADAD120E000BF206850E8050F2168F5
:101B000020F0010041E80502002A98D0206850E842
:101B1000050F216820F0010041E80502002A3FF48A
:101B20008EAF206850E8050F216820F0010041E8E1
:101B30000502002A3FF483AF206850E8050F2168B2
:101B400020F0010041E80502002AD5D177E7000026
:101B500070470000FEE70000F0B585B0002541F2B7
:101B60001800CDE90355CDE90155C4F20200016822
:101B700041F2004441F0100101600168C4F2010427
:101B800001F01001009100990168012241F0040167
:101B900001600168F02601F00401009100990168DC
:101BA000012741F0200101600068F02100F02000D1
:101BB000009000982046FEF781FE0320049001A9C2
:101BC0002046CDE901670395FEF784FD05B0F0BD21
:101BD00080B540F2441043F60001C2F20000C4F2A6
:101BE000010100234FF00C0C4FF4E13280E80E00AD
:101BF000C0E90333C0E905C3C361FFF7F9FC00285E
:101C000008BF80BDBDE88040FEF7A2BCFEE7000033
:101C1000FEE700007047000070470000FEF75ABE64
:101C200070470000406A0021C185C184FFF726BAD1
:101C300081B090F84210222921D183680246B3F581
:101C4000805F09D152F8281F52F8183C002B63D04E
:101C500003685B680AE000BF52F8281F13B90369E4
:101C6000002BF5D003685B6803F07F030B701168ED
:101C700001311160C18D01390A04C18502D001B062
:101C8000704700BF0168CA6822F02002CA60CA68B3
:101C900022F48072CA604A6922F001024A6120215E
:101CA00080F8421000214163026B012A3CD101639C
:101CB000016851E8031F026821F0100142E8031394
:101CC000DBB1016851E8031F026821F0100142E80E
:101CD000031393B1016851E8031F026821F010015A
:101CE00042E803134BB1016851E8031F026821F079
:101CF000100142E80313002BDAD101680A68D2060A
:101D000006D5002200920A68009249680091009965
:101D1000818D01B0FFF7B0B9026852686FF35F229E
:101D200021F8022B8162A5E701B0FFF745BD000055
:101D300040F24410C2F20000FFF7A2B9FEE7000033
:101D400010B582B00446019040F24410C2F2000087
:101D500001A901224FF6FF73FFF7C0FD204602B034
:101D600010BD000090B0FEF7C3FD00240120CDE9B6
:101D70000B44CDE9094406900A904FF4E0104FF46B
:101D8000803102250F9006A8CDE90714CDE90D5149
:101D9000FEF75CFF20B1EFF3108072B6FEE700BFE4
:101DA0000F20CDE901054FF48060CDE9040401A8BE
:101DB00002210394FEF744FE20B1EFF3108072B6C7
:101DC000FEE700BFFFF7C8FEFFF702FF40F2441432
:101DD000C2F2000440F21001C2F2000120460B22C0
:101DE00042F21073FFF77AFD0A2000F0A9FC40F2DE
:101DF0004000C2F20000411C20460122FFF7B2FC65
:101E0000FEE70000B0B540F21C05C2F2000542F248
:101E10009A742A68C0F600042046002100F03EFAB9
:101E20006A682046012100F039FAAA68204602219A
:101E300000F034FAEA682046032100F02FFA2A69FC
:101E40002046042100F02AFA6A692046052100F0A4
:101E500025FAAA692046062100F020FAEA69204600
:101E6000072100F01BFA02A0BDE8B04000F06EBCF4
:101E70002D2D2D2D2D2D2D2D2D2D2D2D2D2D2D00BF
:101E8000F0B581B005464EF2180641F200449BA021
:101E9000CEF20006C4F2010400F058FC20461021E6
:101EA0000022FEF70BFD204680210022FEF706FDF2
:101EB00040F20C01C2F200013068096844F6D352C6
:101EC000C1F26202A1FB02129109C822514300BF74
:101ED00049B1326890423CBF56F8043C1844801A1D
:101EE000091A1046F4D8204610210122FEF7E6FC1C
:101EF000204680210122FEF7E1FC42F2F576C0F691
:101F00000006304600F022FC296800200027FEF77A
:101F1000A7F9304600F01AFC29680120FEF7A0F965
:101F2000304600F013FC29680220FEF799F930468C
:101F300000F00CFC29680320FEF792F9304600F00F
:101F400005FC29680420FEF78BF9304600F0FEFB03
:101F500029680520FEF784F9304600F0F7FB296870
:101F60000620FEF77DF9304600F0F0FB29680720D7
:101F7000FEF776F9204640210022FEF79FFC20461E
:101F800020210122FEF79AFC204620210022FEF7A4
:101F900095FC204640210022FEF790FC204620219F
:101FA0000122FEF78BFC204620210022FEF786FC52
:101FB000204640210022FEF781FC204620210122FC
:101FC000FEF77CFC204620210022FEF777FC20460D
:101FD00040210122FEF772FC204620210122FEF75B
:101FE0006DFC204620210022FEF768FC204640219F
:101FF0000022FEF763FC204620210122FEF75EFC52
:10200000204620210022FEF759FC204640210022D4
:10201000FEF754FC204620210122FEF74FFC20460B
:1020200020210022FEF74AFC204640210022FEF734
:1020300045FC204620210122FEF740FC20462021BD
:102040000022FEF73BFC204640210022FEF736FC32
:10205000204620210122FEF731FC204620210022CB
:10206000FEF72CFC204640210122FEF727FC2046EB
:1020700020210122FEF722FC204620210022FEF72B
:102080001DFC204640210122FEF718FC204620219D
:102090000122FEF713FC204620210022FEF70EFC51
:1020A000204610210022FEF709FC20464021012293
:1020B000FEF704FC204620210122FEF7FFFB20460C
:1020C00020210022FEF7FAFB204610210122FEF714
:1020D000F5FB00BF204620210122FEF7EFFB204642
:1020E00020210022FEF7EAFB632F07F10107F1D35D
:1020F00004A001B0BDE8F04000F028BB5374617249
:10210000742100002A2A2A2A2A2A2A2A2A2A2A2A42
:102110005350492073656E647320636F6D706C65F6
:102120007465212A2A2A2A2A2A2A2A2A2A2A2A00BD
:10213000F0B581B041F20044C70FC4F20104054676
:10214000204640213A46FEF7B9FB42F61706C0F694
:1021500000063046394600F0A1F820462021012231
:10216000FEF7ACFB204620210022FEF7A7FBC5F3BB
:102170008077204640213A46FEF7A0FB304639469C
:1021800000F08CF8204620210122FEF797FB204624
:1021900020210022FEF792FBC5F340772046402124
:1021A0003A46FEF78BFB3046394600F077F820467A
:1021B00020210122FEF782FB204620210022FEF78B
:1021C0007DFBC5F30077204640213A46FEF776FBBB
:1021D0003046394600F062F8204620210122FEF701
:1021E0006DFB204620210022FEF768FBC5F3C06787
:1021F000204640213A46FEF761FB3046394600F062
:102200004DF8204620210122FEF758FB20462021D0
:102210000022FEF753FBC5F38067204640213A4673
:10222000FEF74CFB3046394600F038F820462021B6
:102230000122FEF743FB204620210022FEF73EFB51
:10224000C5F34067204640213A46FEF737FB30464B
:10225000394600F023F8204620210122FEF72EFB0C
:10226000204620210022FEF729FBC5F30065204609
:1022700040212A46FEF722FB3046294600F00EF8A0
:10228000204620210122FEF719FB204620210022B2
:1022900001B0BDE8F040FEF711BB00000FB4054BE4
:1022A00010B503A9044A029800F018F810BC5DF8B4
:1022B00014FB0000411D00080000002002E008C8D7
:1022C000121F08C1002AFAD170477047002001E0B0
:1022D00001C1121F002AFBD1704700002DE9FF4FFA
:1022E0008DB00F460546002606E025280BD0DDE917
:1022F0000F1290476D1C761C28780028F5D111B07C
:102300003046BDE8F08F0024A246A1460122EC49E8
:1023100000E0044315F8013F203B02FA03F00842B5
:10232000F7D128782A2810D06FF02F022878A0F152
:102330003001092914D80AEB8A0102EB410144F06B
:10234000020400EB010A6D1CF0E701CF5FEA000A0E
:1023500003D544F40054CAF1000A44F002046D1C91
:1023600028782E2817D115F8010F44F004042A28E4
:102370000ED06FF02F022878A0F1300109290AD879
:1023800009EB890102EB410100EB01096D1CF2E749
:1023900057F8049B6D1C28786C280FD006DC4C285D
:1023A00017D068280DD06A2814D104E0742810D002
:1023B0007A280FD10DE044F400140AE044F48014AC
:1023C00001E044F440146978814202D104F580149C
:1023D0006D1C6D1C2A786E2A1FD00CDC632A31D04C
:1023E00004DC002A8BD0582A11D1A3E0642A68D0DB
:1023F000692A0CD165E0732A2ED004DC6F2A73D0D1
:10240000702A04D19BE0752A6FD0782A6ED01046CE
:10241000DDE90F129047761C50E1C4F30250022808
:1024200006D0032809D0042801CF09D0066045E171
:1024300001CFF117C0E9006140E101CF06803DE125
:1024400006703BE117F8040B8DF8000000208DF8B2
:102450000100EB46012003E057F804BB4FF0FF30CA
:1024600061074FF0000102D40DE008F10101884638
:1024700049450FDA8045F8DB1BF808100029F4D134
:1024800008E008F1010188468142FADB1BF80810D8
:102490000029F6D1DDE90F23AAEB08008146214689
:1024A00000F036F9304400EB080604E0DDE90F12D5
:1024B0001BF8010B9047B8F10108F7D221464846B6
:1024C000F7E00A21C4F302534FF0000B0891022BEE
:1024D00004D001CFC117032B09D00AE0FF1D27F05C
:1024E0000707F7E8020108E032E01FE020E000B251
:1024F000C117042B01D140B2C117031E71F10003B3
:1025000007DA4FF0000CD0EB0C006CEB01012D232F
:1025100002E0230504D52B238DF82430012303E0AA
:10252000E30701D02023F7E7984658E00A2110E09E
:1025300010210EE010204FF0000B08900CE010214D
:102540004FF0000B44F004044FF00809089103E039
:1025500008214FF0000B0891C4F30253022B04D062
:1025600001CF0021032B06D006E0FF1D27F007074F
:10257000F7E8020103E080B2042B00D1C0B24FF0B3
:10258000000823072BD5702A07D0DDF820C08CF077
:10259000100C5CEA0B0C05D00EE040238DF82430C3
:1025A000012308E050EA010306D030238DF82430DF
:1025B0008DF8252002239846DDF820C08CF0080C09
:1025C0005CEA0B0C0BD150EA010301D1630706D57D
:1025D00030238DF824304FF00108A9F10109582A61
:1025E00004D038A20B9208AA0A920BE03AA2F9E7AB
:1025F0005B46089AFDF7CAFD0B9B9B5C0A9A521E2C
:102600000A92137050EA0102F2D10A98ADEB000071
:1026100000F1200B600702D524F4803401E04FF074
:102620000109D94502DDA9EB0B0000E0002000EB19
:102630000B0141440890AAEB010AE00306D4DDE94E
:102640000F232146504600F063F806444FF000097E
:1026500008E009A911F80900DDE90F12904709F116
:102660000109761CC145F4DBE0030CD5DDE90F233D
:102670002146504600F04CF8064404E0DDE90F1214
:1026800030209047761C0899481E08900029F5DCF8
:1026900008E00A980A990078491C0A91DDE90F12AE
:1026A0009047761CBBF10001ABF1010BF1DC214638
:1026B0005046DDE90F2300F019F806446D1C1BE6B7
:1026C0000928010030313233343536373839616208
:1026D00063646566000000003031323334353637CC
:1026E0003839414243444546000000002DE9F0419D
:1026F000044600251E461746880404D405E03946E2
:102700002020B0476D1C641EF9D52846BDE8F08135
:102710002DE9F041044600251E469046C80301D528
:10272000302700E02027880404D505E041463846DC
:10273000B0476D1C641EF9D52846BDE8F081000045
:102740000149FFF7FDBA00000000002010B5044663
:1027500001E0FFF7F5FA14F8010B04490028F8D15D
:10276000BDE810400A20FFF7EBBA0000000000208F
:102770000000000000000000010203040607080931
:102780000000000001020304010202030405060721
:1027900008090A0B0C0D0E0F10107265673A2564BC
:1027A0002C203078253038580A00526563656976E8
:1027B0006564206461746120286865782920696EE9
:1027C000207265675F62616E6B5B25645D3A2030E5
:1027D00078253038580A004572726F7220636F6E28
:1027E00074726F6C207369676E616C3A2030782563
:1027F0003038580A002A2A2A2A2A2A2A2A2A2A2A41
:102800002A2053656E64696E67202A2A2A2A2A2A9A
:102810002A2A2A2A2A2A00256400000040280008C3
:102820000000002040000000BC22000880280008B2
:102830004000002050050000CC22000800000000ED
:102840000000000001000000100000000024F4005F
:1028500057656C636F6D65210D0A00005E05000011
:1028600047086004C448DF19000000000000D021C0
:10287000520100006C000068000000000000000031
:0400000508000131BD
:00000001FF
