:020000040800F2
:100000009005002045010008491F00088D1E0008CA
:10001000451F00087908000875200008000000004E
:10002000000000000000000000000000511F000858
:100030007D080008000000004D1F0008551F000843
:100040005F0100085F0100085F0100085F01000810
:100050005F0100085F0100085F0100085F01000800
:100060005F0100085F0100085F0100085F010008F0
:100070005F0100085F0100085F0100085F010008E0
:100080005F0100085F0100085F0100085F010008D0
:100090005F0100085F0100085F0100085F010008C0
:1000A0005F0100085F0100085F0100085F010008B0
:1000B0005F0100085F0100085F0100085F010008A0
:1000C0005F0100085F0100085F0100085F01000890
:1000D0005F010008692000085F0100085F01000857
:1000E0005F0100085F0100085F0100085F01000870
:1000F0005F0100085F0100085F0100085F01000860
:100100005F0100085F0100085F0100085F0100084F
:100110005F0100085F0100085F0100085F0100083F
:100120005F0100085F0100085F0100085F0100082F
:10013000DFF80CD000F05CF8004800479D20000874
:10014000900500200648804706480047FEE7FEE786
:10015000FEE7FEE7FEE7FEE7FEE7FEE7FEE7FEE777
:10016000591F000831010008D2B201E000F8012B4C
:10017000491EFBD270470022F6E710B513460A4627
:1001800004461946FFF7F0FF204610BD2DE9F05F49
:100190000546002092469B468846064681464024F6
:1001A0001BE0284641464746224600F048F85346A1
:1001B0005A46C01A914110D311461846224600F003
:1001C0002FF82D1A67EB01084F4622460120002127
:1001D00000F026F817EB00094E41201EA4F101049F
:1001E000DFDC484631462A464346BDE8F09F000022
:1001F0001CB509480090094801900546009C06E09E
:10020000E06840F0010394E8070098471034AC42DE
:10021000F6D3FFF791FF0000542900087429000865
:10022000202A04DB203A00FA02F1002070479140B6
:10023000C2F1200320FA03F3194390407047202AAB
:1002400004DB203A21FA02F00021704721FA02F380
:10025000D040C2F120029140084319467047000087
:1002600070B541F20044C4F201040D460646204632
:100270008021012200F0BAFC20461021012200F06A
:10028000B5FC20464021002200F0B0FC2046202191
:10029000012200F0ABFC20462021002200F0A6FC49
:1002A00020464021002200F0A1FC2046202101220E
:1002B00000F09CFC20462021002200F097FC204604
:1002C0004021002200F092FC20462021012200F073
:1002D0008DFC20462021002200F088FC2046402191
:1002E000002200F083FC20462021012200F07EFC49
:1002F00020462021002200F079FC204640210122E6
:1003000000F074FC20462021012200F06FFC204602
:100310002021002200F06AFCC6F3C00220464021E2
:1003200000F064FC20462021012200F05FFC204602
:100330002021002200F05AFCC6F380022046402112
:1003400000F054FC20462021012200F04FFC204602
:100350002021002200F04AFCC6F340022046402142
:1003600000F044FC20462021012200F03FFC204602
:100370002021002200F03AFC06F001062046402130
:10038000324600F033FC20462021012200F02EFCF2
:1003900020462021002200F029FC20464021324640
:1003A00000F024FC20462021012200F01FFC204602
:1003B0002021002200F01AFC20461021002200F02B
:1003C00015FC20464021324600F010FC204620213A
:1003D000012200F00BFC20462021002200F006FC48
:1003E00020461021012200F001FC2046402100227D
:1003F00000F0FCFB20462021012200F0F7FB204604
:100400002021002200F0F2FB20464021002200F0D3
:10041000EDFB20462021012200F0E8FB20462021B0
:10042000002200F0E3FBEA0F2046402100F0DEFB53
:1004300020462021012200F0D9FB20462021002265
:1004400000F0D4FBC5F380722046402100F0CEFBC3
:1004500020462021012200F0C9FB20462021002255
:1004600000F0C4FBC5F340722046402100F0BEFB03
:1004700020462021012200F0B9FB20462021002245
:1004800000F0B4FBC5F300722046402100F0AEFB43
:1004900020462021012200F0A9FB20462021002235
:1004A00000F0A4FBC5F3C0622046402100F09EFB93
:1004B00020462021012200F099FB20462021002225
:1004C00000F094FBC5F380622046402100F08EFBD3
:1004D00020462021012200F089FB20462021002215
:1004E00000F084FBC5F340622046402100F07EFB13
:1004F00020462021012200F079FB20462021002205
:1005000000F074FBC5F300622046402100F06EFB52
:1005100020462021012200F069FB204620210022F4
:1005200000F064FBC5F3C0522046402100F05EFBA2
:1005300020462021012200F059FB204620210022E4
:1005400000F054FBC5F380522046402100F04EFBE2
:1005500020462021012200F049FB204620210022D4
:1005600000F044FBC5F340522046402100F03EFB22
:1005700020462021012200F039FB204620210022C4
:1005800000F034FBC5F300522046402100F02EFB62
:1005900020462021012200F029FB204620210022B4
:1005A00000F024FBC5F3C0422046402100F01EFBB2
:1005B00020462021012200F019FB204620210022A4
:1005C00000F014FBC5F380422046402100F00EFBF2
:1005D00020462021012200F009FB20462021002294
:1005E00000F004FBC5F340422046402100F0FEFA33
:1005F00020462021012200F0F9FA20462021002285
:1006000000F0F4FAC5F300422046402100F0EEFA73
:1006100020462021012200F0E9FA20462021002274
:1006200000F0E4FAC5F3C0322046402100F0DEFAC3
:1006300020462021012200F0D9FA20462021002264
:1006400000F0D4FAC5F380322046402100F0CEFA03
:1006500020462021012200F0C9FA20462021002254
:1006600000F0C4FAC5F340322046402100F0BEFA43
:1006700020462021012200F0B9FA20462021002244
:1006800000F0B4FAC5F300322046402100F0AEFA83
:1006900020462021012200F0A9FA20462021002234
:1006A00000F0A4FAC5F3C0222046402100F09EFAD3
:1006B00020462021012200F099FA20462021002224
:1006C00000F094FAC5F380222046402100F08EFA13
:1006D00020462021012200F089FA20462021002214
:1006E00000F084FAC5F340222046402100F07EFA53
:1006F00020462021012200F079FA20462021002204
:1007000000F074FAC5F300222046402100F06EFA92
:1007100020462021012200F069FA204620210022F3
:1007200000F064FAE8B2C2092046402100F05EFA07
:1007300020462021012200F059FA204620210022E3
:1007400000F054FAC5F380122046402100F04EFA22
:1007500020462021012200F049FA204620210022D3
:1007600000F044FAC5F340122046402100F03EFA62
:1007700020462021012200F039FA204620210022C3
:1007800000F034FAC5F300122046402100F02EFAA2
:1007900020462021012200F029FA204620210022B3
:1007A00000F024FAC5F3C0022046402100F01EFAF2
:1007B00020462021012200F019FA204620210022A3
:1007C00000F014FAC5F380022046402100F00EFA32
:1007D00020462021012200F009FA20462021002293
:1007E00000F004FAC5F340022046402100F0FEF973
:1007F00020462021012200F0F9F920462021002284
:1008000000F0F4F905F001022046402100F0EEF975
:1008100020462021012200F0E9F920462021002273
:1008200000F0E4F920464021002200F0DFF92046E4
:100830002021012200F0DAF920462021002200F0D8
:10084000D5F920461021002200F0D0F920464021A1
:10085000002200F0CBF920462021012200F0C6F949
:1008600020462021002200F0C1F92046102101225B
:10087000BDE8704000F0BAB9FEE700007047000024
:10088000EFF3108072B600BFFEE70000014690F85B
:100890002100022816D10868D1E90FC3026822F0AE
:1008A0000E020260026822F001020260012000FADA
:1008B00003F2CCF8042081F821000020002281F806
:1008C00020207047042088630120002281F8202026
:1008D0007047000090F82110022927D1026840F2E9
:1008E000040C1368C4F2020C23F00E0313601368A7
:1008F0000CF17C018A4223F0010111601AD940F207
:100900000841C4F202018A4250D040F21C41C4F2B4
:1009100002018A4242D040F23041C4F202018A42CE
:1009200048D14FF48073CCF800345CE0042181633B
:10093000012070474321C4F202018A420EDD6B217F
:10094000C4F202018A421BDC4421C4F202018A4241
:100950003ED05821C4F202018A4223E00821C4F2A9
:1009600002018A4232D01C21C4F202018A4237D0ED
:100970003021C4F202018A4214D14FF4807230E077
:100980006C21C4F202018A4226D08021C4F2020105
:100990008A4207D14FF0807223E000BF1023CCF8C9
:1009A000003420E04FF480321BE000BF0123CCF87C
:1009B000003418E00CF588614FF480338A4208BF98
:1009C0004FF48053CCF800340DE000BF012208E062
:1009D0004FF4805205E000BF4FF4801201E000BFE9
:1009E0001022CCF80020012180F82110416B002258
:1009F000002980F8202004BF0020704780B5884778
:100A0000002080BD2DE9F04F82B00E68002E00F06E
:100A1000E980A0F1804241F6004540F20043A2F592
:100A20008432C4F201050624C4F201034FEAB2275E
:100A3000A84208BF05244FF0000E4FF001080F2513
:100A40004FF0000A4FF0000B052F38BF4FEAB224D9
:100A5000009408E00E680AF1010A36FA0AF20EF173
:100A6000040E00F0BF8008FA0AFC16EA0C09F1D067
:100A70004E684FF6FF72C1F21002964212DC122E3F
:100A800056D8DFE806F0350B4D49555555555555A7
:100A90005555555555555545510000BFD1F80CB029
:100AA00046E000BF4FF6FF72C1F2210296420FDC12
:100AB0000022C1F2110296421AD00022C1F21202A3
:100AC000964215D00022C1F22102964210D02FE0AA
:100AD0000022C1F2220296420AD00022C1F2310263
:100AE000964205D00022C1F23202964220D100BFC8
:100AF0008A684AB1012A14BFC0F814C0C0F810C0F7
:100B00004FF0080B14E000BF4FF0040B10E000BFE3
:100B1000CA6802F1040B0BE04FF0000B08E000BFC5
:100B2000CA6802F1080B03E0CA6802F10C0B00BFAF
:100B300002467446B9F5807F24BF0432203C166813
:100B400005FA04F726EA07070BFA04F6374317609D
:100B5000CA79D2067FF57EAF41F21807C4F20207C8
:100B60003A684FF6084542F001023A603A68CFF61B
:100B7000FF7502F001020192019A2AF003021A4461
:100B80000F2457590EF00C06B440A743009C04FAFA
:100B900006F6374357514E6840F20C44F2029A6809
:100BA00054BF22EA090242EA0902C4F201049A602F
:100BB0002268B70254BF22EA090242EA090222600F
:100BC0005A68B70354BF22EA090242EA09025A608E
:100BD0000F251A68F70354BF22EA090242EA090204
:100BE0001A6037E702B0BDE8F08F0000002A08BFA6
:100BF000090401617047000040F28C10C2F200004D
:100C00000068704740F2300040F28C11C2F20000E0
:100C1000C2F2000100780A681044086070470000C2
:100C200080B542F20000C4F20200016841F01001F8
:100C30000160032000F08CF80F2000F005F800F0B0
:100C400027F8002080BD000070B540F23006C2F2E7
:100C5000000640F238013278C2F200014FF47A7394
:100C60000968B3FBF2F20446B1FBF2F1084600F06A
:100C700085FB0F2C4FF0010508D838B94FF0FF3035
:100C800021460022002500F037F87460284670BD28
:100C900082B041F21800C4F202000168022241F061
:100CA00001010160016801F00101019101994168B0
:100CB00041F080514160406800F080500090009801
:100CC0000420C4F20100016862F31A61016002B0FD
:100CD00070470000002848BF704700F01F01012244
:100CE00002FA01F11C2202EAD0004EF20012CEF20A
:100CF000000281507047000010B54EF60C5CCEF239
:100D0000000CDCF80030C3F3022E8EF00704042C34
:100D100028BF0424BEF103034FF0FF3E0EFA04F493
:100D200038BF0023A14399400EFA03F39A431143BD
:100D300000F00F0200F160430901043A03F5644337
:100D40006244002848BF02F10C03197010BD000076
:100D50004EF60C51CEF200010A684FF6FF031A401E
:100D600060F30A2242F0806040F0FD700860704736
:100D7000002804BF012070472DE9F04381B042F202
:100D80000008C4F202080446D8F800000D4600F03E
:100D9000070088420CD2D8F8000020F00700284352
:100DA000C8F80000D8F8000000F00700A8426CD195
:100DB000206841F204098107C4F2020917D54107EE
:100DC00005D5D9F8001041F4E061C9F80010010719
:100DD00005D5D9F8001041F46051C9F80010D9F8D0
:100DE0000010A26821F0F0011143C9F80010C007FB
:100DF00042D1D8F8000000F00700A8420CD9D8F87A
:100E0000000020F007002843C8F80000D8F80000D0
:100E100000F00700A84238D12068410707D5D9F86B
:100E20000010E26821F4E0611143C9F800100007E6
:100E300008D5D9F80000216920F4605040EAC100CB
:100E4000C9F80000D9F8002002F00C00082841F28F
:100E50000020C0F27A004DD142F6E603C2F383418E
:100E6000C0F60003595CD20338D440F60010C0F23B
:100E70003D0048433EE000BF606859F8041C02286A
:100E800008D0012826D1890306D4012001B0BDE88D
:100E9000F08300BF8901F8D5D9F8001021F00301D3
:100EA0000843C9F80000FFF7A7FE064641F288375D
:100EB000D9F80000616800F00C00B0EB810F98D009
:100EC000FFF79AFE801BB842F2D9032001B0BDE8BB
:100ED000F08300BF8907D8D5DEE700BFD9F800202E
:100EE00042F6E403C2F34042C0F600039A5C484372
:100EF000B0FBF2F0D9F8001042F6CC02C1F30311B6
:100F0000C0F60002515C40F2380220FA01F140F2D2
:100F10003400C2F200000068C2F200021160FFF764
:100F200093FE002001B0BDE8F083000040F23800DD
:100F300041F20401C2F20000C4F202010068096833
:100F400042F6DC02C1F30221C0F60002515CC84047
:100F50007047000040F2380041F20401C2F2000084
:100F6000C4F202010068096842F6DC02C1F3C22142
:100F7000C0F60002515CC84070470000002804BF62
:100F8000012070472DE9F04182B00446007841F21B
:100F90000006C007C4F202060CD0706800F00C0016
:100FA000042840F081803068800303D56068002801
:100FB00000F04681207880071BD5706810F00C0F78
:100FC00009D0706800F00C00082840F08780706835
:100FD000C00300F183803068800703D520690128B1
:100FE00040F02E813068616920F0F80040EAC100CD
:100FF00030602078000713D4207840072CD4E569AE
:10100000002D00F01881706800F00C00082840F0F6
:10101000A780012D40F00481012002B0BDE8F081DD
:10102000A069002800F084800020C4F24220012141
:10103000C0F88014FFF7E0FD054600BF706A800726
:1010400000F1B280FFF7D8FD401B0228F6D903203B
:1010500002B0BDE8F08100BFF0695FEAC00808D4C3
:10106000F06940F08050F061F06900F0805000902D
:10107000009847F20007C4F200073868C00549D459
:10108000386840F480703860FFF7B6FD054600BF51
:101090003868C0053ED4FFF7AFFD401B6428F7D980
:1010A000032002B0BDE8F081706800F00C00082851
:1010B00003D17068C0033FF576AF616830680029DE
:1010C00000F00C81B1F5A02F00F00081B1F5803F58
:1010D00040F01A8140F480301CE100BF20690028F4
:1010E00040F20000C4F2422000F08880012101603B
:1010F000FFF782FD054600BF306880073FF572AFFD
:10110000FFF77AFD401B0228F6D9032002B0BDE8A4
:10111000F08100BFE168306A002900F09D80052958
:1011200000F09280012940F0AF8040F00100B1E072
:101130000020C4F242200021C0F88014FFF75CFDBB
:10114000054600BF706A80077FF556AFFFF754FD74
:10115000401B0228F6D9032002B0BDE8F08100BF91
:101160000027C4F2422700203866FFF745FD022D14
:1011700005460DD13068800140F1DE80FFF73CFD6F
:10118000401B02284FF00300F4D902B0BDE8F08103
:10119000306880014FD5FFF72FFD401B02284FF02C
:1011A0000300F5D9F1E700BF40F23800C2F20000B9
:1011B000006844F6D351C1F26201A0FB0101480A64
:1011C000019000BF00BF0198411E002801913FF42B
:1011D00013AF00BF0198411E002801913FF40CAFEE
:1011E00000BF0198411E002801913FF405AF00BFE8
:1011F0000198411E00280191E4D1FDE60021016023
:10120000FFF7FAFC054600BF306880077FF5F1AEB6
:10121000FFF7F2FC401B02284FF00300F4D9B4E7BB
:101220007068216A00F480328A4209D1616A00F450
:101230007010884204D1002002B0BDE8F08100BFE8
:10124000012002B0BDE8F08140F004003062306A55
:1012500040F001001EE000BF20F001003062306A63
:1012600020F004003062FFF7C7FC054641F28837E2
:10127000306A800720D5FFF7BFFC401BB8424FF013
:101280000300F5D981E700BF20F001003062306A29
:1012900020F004003062FFF7AFFC054641F28837CA
:1012A000306A800708D4FFF7A7FC401BB842F7D983
:1012B000032002B0BDE8F081B8F1000F3FF59FAE0A
:1012C000F06920F08050F06199E600BF40F4802082
:1012D0003060306840F480301CE000BF20F4803083
:1012E0003060306820F480203060FFF785FC0546D0
:1012F000306880037FF55EAEFFF77EFC401B6428FC
:101300004FF00300F4D940E720F4803030603068BB
:1013100020F480203060FFF76FFC054630688003C2
:101320003FF548AEFFF768FC401B6428F6D9032060
:1013300002B0BDE8F08100BF206AB0F5803F05D162
:101340007168A26821F40031114371607168626AAA
:1013500021F4741111430843706001203866FFF7CF
:101360004BFC0446306880013FF565AFFFF744FC55
:10137000001B02284FF00300F4D906E7411E0020AD
:10138000B0EB116F1CBF012070474EF21002CEF27D
:10139000000251604EF62351CEF20001F0230B7093
:1013A000072190601160704770470000704700008F
:1013B000B0B582B001680A68CC684B6902F02F05AD
:1013C000202D04F0200505D125B102B0BDE8B040C4
:1013D00000F0CABD5FEA027C1EBF03F0010E04F4F8
:1013E000907313EB0E0341D1036BD50618D5012B77
:1013F00016D114F0100313D0002201920A68019252
:101400004A680192019A496949064BD4818DC28D7F
:10141000C38D002B18BF914240F0F48102B0B0BDE3
:1014200013062DD514F080032AD090F84120212AEC
:10143000F4D18268B2F5805F03D10269002A00F01E
:101440006782026A531C036212784A60C28C013AB6
:101450001304C284E2D1C86820F08000C860C86864
:1014600040F04000C86002B0B0BD00BFD30718BF55
:1014700014F4807340F0D080530700F1D380D8E09B
:101480005206CBD514F04002C8D0CA6822F0400200
:10149000CA60202180F8411002B0BDE8B04000F0E1
:1014A000F3BC00BFC16B0A68526893B2002BB5D081
:1014B000858DAB42B2D2C2858969202900F0A18016
:1014C000016851E8031F026821F4807142E80313A8
:1014D000DBB1016851E8031F026821F4807142E822
:1014E000031393B1016851E8031F026821F480716E
:1014F00042E803134BB1016851E8031F026821F46D
:10150000807142E80313002BDAD1016851E8051F0E
:10151000026821F0010142E80513C3B3016851E8F4
:10152000051F026821F0010142E805137BB3016841
:1015300051E8051F026821F0010142E8051333B3A9
:10154000016851E8051F026821F0010142E8051316
:10155000002BDAD11BE000BF016851E8051F0268CB
:1015600021F0400142E80513DBB1016851E8051F95
:10157000026821F0400142E8051393B1016851E887
:10158000051F026821F0400142E805134BB10168D4
:1015900051E8051F026821F0400142E80513002BC5
:1015A000DAD1202180F8421000210163016851E85E
:1015B000031F026821F0100142E80313DBB1016848
:1015C00051E8031F026821F0100142E8031393B1B0
:1015D000016851E8031F026821F0100142E803137B
:1015E0004BB1016851E8031F026821F0100142E885
:1015F0000313002BDAD1C16B04460846FFF746F906
:10160000204602214163818DC28D891A89B202B0C0
:10161000BDE8B040FFF7C8BE436C43F0010343642C
:10162000530706D5BEF1000F03D0436C43F002030D
:101630004364930706D5BEF1000F03D0436C43F01B
:1016400004034364BCF1000F06D55EEA050303D032
:10165000436C43F008034364436C002B3FF4DEAE5D
:10166000920605D525B1044600F07EFC216820468F
:101670004969426C01F0400102F00802891800F04B
:10168000B98000BF016851E8031F026821F490711E
:1016900042E80313BBB3016851E8031F026821F459
:1016A000907142E8031373B3016851E8031F0268A5
:1016B00021F4907142E803132BB3016851E8031F32
:1016C000026821F4907142E80313002BDAD11AE08A
:1016D000016851E8051F026821F0010142E8051385
:1016E000DBB1016851E8051F026821F0010142E801
:1016F000051393B1016851E8051F026821F001014B
:1017000042E805134BB1016851E8051F026821F05A
:10171000010142E80513002BDAD1016B012924D124
:10172000016851E8031F026821F0100142E8031329
:10173000DBB1016851E8031F026821F0100142E8A3
:10174000031393B1016851E8031F026821F01001EF
:1017500042E803134BB1016851E8031F026821F00E
:10176000100142E80313002BDAD1202180F8421047
:101770000021016301684969490640F1C38001689D
:1017800051E8051F026821F0400142E80513DBB172
:10179000016851E8051F026821F0400142E8051385
:1017A00093B1016851E8051F026821F0400142E849
:1017B00005134BB1016851E8051F026821F0400193
:1017C00042E80513002BDAD1C16B002900F09A80A2
:1017D00041F65D72C0F60002044608464A63FFF710
:1017E00079F800283FF41AAEE06B416B02B0BDE817
:1017F000B04008470446FFF7D9FD0020606402B0FE
:10180000B0BD00BF891A00BF026852E8032F036809
:1018100022F4907243E80325BDB3026852E8032F17
:10182000036822F4907243E8032575B3026852E816
:10183000032F036822F4907243E803252DB3026856
:1018400052E8032F036822F4907243E80325002D29
:10185000DAD11AE0026852E8052F036822F001028B
:1018600043E80525DDB1026852E8052F036822F040
:10187000010243E8052595B1026852E8052F036887
:1018800022F0010243E805254DB1026852E8052F18
:10189000036822F0010243E80525002DDAD1202259
:1018A00080F8422000220263026852E8032F036896
:1018B00022F0100243E80325DDB1026852E8032F4D
:1018C000036822F0100243E8032595B1026852E84C
:1018D000032F036822F0100243E803254DB102688C
:1018E00052E8032F036822F0100243E80325002D7D
:1018F000DAD1022289B2426302B0BDE8B040FFF7FC
:1019000053BD00BF02B0BDE8B040FFF74FBD00BF00
:10191000026A32F8023B6FF35F234B60026295E587
:10192000002804BF0120704710B5044690F841001C
:1019300028B9002084F84000204600F063F82420F5
:1019400084F841002068D4E90212C36823F40053EC
:10195000C360036923F440531A430261D4E90423AA
:101960001143C268194341F20C639A431143C160A9
:101970004169A26921F44071114343F60002C4F2A7
:1019800001029042416103D0FFF7D0FA02E000BFAC
:10199000FFF7E0FAD4E90023192148439900B0FB8E
:1019A000F1F048F21F5CC5F2EB1CA0FB0C314FF6C6
:1019B0009C734909C0F6FF7301FB0300322303EB5C
:1019C0000010A0FB0C03F02000EA531000EB011004
:1019D000C3F34311084490601069202120F4904023
:1019E0001061506920F02A005061D06840F4005026
:1019F000D0600020606484F8411084F84210606375
:101A000010BD000070B586B040F60004C4F20104B9
:101A1000006804F54051002688420596CDE903662A
:101A2000029601D006B070BD41F21800C4F2020067
:101A3000016802AD41F480410160016801F4804118
:101A400001910199016841F0040101600068294693
:101A500000F00400019001984FF400700290022001
:101A60000390032005902046FEF7CCFF4FF48060E2
:101A7000CDE90206204629460496FEF7C3FF25203D
:101A800000210022FFF738F92520FFF723F906B0DF
:101A900070BD000090F84230202B07D100294FF094
:101AA000010318BF002A05D11846704702231846C3
:101AB000704700BF00230363816222218285C285B3
:101AC000436480F842100169006819B1C16841F4AB
:101AD0008071C160416941F001014161C16841F01B
:101AE0002001C1601846704710B540F24004C2F2B0
:101AF00000042178FF2915D10020207040F2440015
:101B0000C2F200004FF48071FEF735FB40F2441042
:101B1000C2F200003CA10A224FF6FF7300F07AF8EF
:101B200058E000BF637840F244004A1CC2F2000053
:101B30000A2B227043544DD1014411F8011C0D2988
:101B400048D101780D2917D1D0F8010001BA47F228
:101B50006140C6F26140814228D046F27910C7F256
:101B60006C00814226D140F20400C2F200000C3029
:101B700000F028FB24E000BF072A13D1072911D861
:101B8000D0F8010002BA40F20400C2F2000000EBFB
:101B90008100C26042F60610C0F6000000F02CFC86
:101BA0000EE000BF10A000F07FFE09E000F0CCFACC
:101BB00006E000BF42F63310C0F6000000F01CFC47
:101BC0000020207040F24400C2F200004FF4807107
:101BD000FEF7D1FA40F24410611CC2F2000001226B
:101BE000BDE81040FFF756BF506C65617365206912
:101BF0006E70757420636F727265637420706172A9
:101C0000616D6574657221006F766572666C6F77C1
:101C10000A0000002DE9F04381B0044690F841002D
:101C2000202809D1884600294FF0010018BF002A5A
:101C300006D101B0BDE8F083022001B0BDE8F08319
:101C40000020606421201D4684F841001646FEF7FE
:101C5000D3FFA684E684A1680646B1F5805F03D170
:101C60002069002800F0948047464FF00008E18C7E
:101C70002068002900F0928005F101090BE000BF07
:101C800047B317F8011B4160E18C0139E184E18C15
:101C9000002900F0838001680906F1D4B9F1000F32
:101CA0000AD0EDB1FEF7A8FF801BA84218D8206823
:101CB00001680906F6D5E3E701680906E0D4016882
:101CC00009065CBF01685FEA0161D9D401680906B1
:101CD000F2D5D5E738F8021B00276FF35F21D2E772
:101CE000206850E8030F216820F4D07041E8030217
:101CF000BAB3206850E8030F216820F4D07041E89F
:101D0000030272B3206850E8030F216820F4D070FA
:101D100041E803022AB3206850E8030F216820F449
:101D2000D07041E80302002ADAD11AE0206850E8B6
:101D3000050F216820F0010041E80502DAB12068B2
:101D400050E8050F216820F0010041E8050292B13A
:101D5000206850E8050F216820F0010041E80502E5
:101D60004AB1206850E8050F216820F0010041E8E1
:101D70000502002ADAD1202084F8410084F84200CC
:101D8000002084F84000032001B0BDE8F08300BFCC
:101D90000027E18C206800297FF46EAF01684906B6
:101DA0000FD4F5B1691C17D10168490609D401683F
:101DB00049065CBF01685FEA416102D401684906D7
:101DC000F2D5202084F84100002001B0BDE8F08366
:101DD000206800684006F4D4FEF70EFF801BA8427E
:101DE000F6D9206850E8030F216820F4D07041E84C
:101DF0000302EAB3206850E8030F216820F4D07092
:101E000041E80302A2B3206850E8030F216820F4E0
:101E1000D07041E803025AB3206850E8030F2168EC
:101E200020F4D07041E80302002ADAD120E000BF9C
:101E3000206850E8050F216820F0010041E8050204
:101E4000002A98D0206850E8050F216820F0010092
:101E500041E80502002A3FF48EAF206850E8050FE4
:101E6000216820F0010041E80502002A3FF483AF19
:101E7000206850E8050F216820F0010041E80502C4
:101E8000002AD5D177E7000070470000FEE7000088
:101E9000F0B585B0002541F21800CDE90355CDE934
:101EA0000155C4F20200016841F2004441F0100102
:101EB00001600168C4F2010401F010010091009971
:101EC0000168012241F0040101600168F02601F07F
:101ED0000401009100990168012741F0200101608F
:101EE0000068F02100F02000009000982046FEF7E6
:101EF0007DFE0220049001A92046CDE901670395EB
:101F0000FEF780FD05B0F0BD80B540F2441043F609
:101F10000001C2F20000C4F2010100234FF00C0CDA
:101F20004FF4E13280E80E00C0E90333C0E905C395
:101F3000C361FFF7F5FC002808BF80BDBDE8804005
:101F4000FEF79EBCFEE70000FEE7000070470000C1
:101F500070470000FEF756BE70470000406A00213F
:101F6000C185C184FFF722BA81B090F842102229BE
:101F700021D183680246B3F5805F09D152F8281F4A
:101F800052F8183C002B63D003685B680AE000BF7E
:101F900052F8281F13B90369002BF5D003685B685A
:101FA00003F07F030B70116801311160C18D01399D
:101FB0000A04C18502D001B0704700BF0168CA6839
:101FC00022F02002CA60CA6822F48072CA604A699C
:101FD00022F001024A61202180F842100021416371
:101FE000026B012A3CD10163016851E8031F0268BA
:101FF00021F0100142E80313DBB1016851E8031F2F
:10200000026821F0100142E8031393B1016851E81E
:10201000031F026821F0100142E803134BB101686D
:1020200051E8031F026821F0100142E80313002B5E
:10203000DAD101680A68D20606D5002200920A6841
:102040000092496800910099818D01B0FFF7ACB909
:10205000026852686FF35F2221F8022B8162A5E7C4
:1020600001B0FFF741BD000040F24410C2F2000091
:10207000FFF79EB9FEE7000010B582B0044601905C
:1020800040F24410C2F2000001A901224FF6FF7392
:10209000FFF7C0FD204602B010BD000090B0FEF773
:1020A000BFFD00240120CDE90B44CDE90944069091
:1020B0000A904FF4E0104FF4803102250F9006A8EB
:1020C000CDE90714CDE90D51FEF758FF20B1EFF32C
:1020D000108072B6FEE700BF0F20CDE901054FF476
:1020E0008060CDE9040401A802210394FEF740FEBC
:1020F00020B1EFF3108072B6FEE700BFFFF7C8FE15
:10210000FFF702FF40F2441440F20405C2F200045B
:10211000C2F20005204629460B2242F21073FFF757
:1021200079FD0A2000F0BAFB40F24000C2F2000044
:10213000411C20460122FFF7ADFC05F10C0400BF55
:10214000204600F03FF8FBE7B0B540F20405C2F2CC
:10215000000542F6F604EA68C0F6000420460021B5
:1021600000F04AF92A692046012100F045F96A6920
:102170002046022100F040F9AA692046032100F020
:102180003BF9EA692046042100F036F92A6A204624
:10219000052100F031F96A6A2046062100F02CF989
:1021A000AA6A2046072100F027F902A0BDE8B04046
:1021B00000F07ABB2D2D2D2D2D2D2D2D2D2D2D2DDE
:1021C0002D2D2D0070B541F20044C4F201040546E6
:1021D0004EF21806204610210022CEF20006FEF72D
:1021E00005FD204680210022FEF700FD40F2380167
:1021F000C2F200013068096844F6D352C1F26202AB
:10220000A1FB02129109C822514300BF49B13268B3
:1022100090423CBF56F8043C1844801A091A1046F4
:10222000F4D8204610210122FEF7E0FC2046802150
:102230000122FEF7DBFC296800200026FEF710F8DB
:1022400069680120FEF70CF8A9680220FEF708F87B
:10225000E9680320FEF704F829690420FEF700F876
:1022600069690520FDF7FCFFA9690620FDF7F8FF65
:10227000E9690720FDF7F4FF204640210022FEF720
:10228000B5FC204620210122FEF7B0FC204620218B
:102290000022FEF7ABFC204640210022FEF7A6FC00
:1022A000204620210122FEF7A1FC20462021002209
:1022B000FEF79CFC204640210022FEF797FC2046BA
:1022C00020210122FEF792FC204620210022FEF769
:1022D0008DFC204640210122FEF788FC204620216B
:1022E0000122FEF783FC204620210022FEF77EFC1F
:1022F000204640210022FEF779FC204620210122C1
:10230000FEF774FC204620210022FEF76FFC2046D9
:1023100040210022FEF76AFC204620210122FEF720
:1023200065FC204620210022FEF760FC204640216B
:102330000022FEF75BFC204620210122FEF756FC1E
:10234000204620210022FEF751FC20464021002299
:10235000FEF74CFC204620210122FEF747FC2046D8
:1023600020210022FEF742FC204640210122FEF7F8
:102370003DFC204620210122FEF738FC204620218A
:102380000022FEF733FC204640210122FEF72EFCFE
:10239000204620210122FEF729FC20462021002290
:1023A000FEF724FC204610210022FEF71FFC2046E9
:1023B00040210122FEF71AFC204620210122FEF7CF
:1023C00015FC204620210022FEF710FC204610219B
:1023D0000122FEF70BFC00BF204620210122FEF760
:1023E00005FC204620210022FEF700FC632E06F1AA
:1023F0000106F1D370BD00000FB4054B10B503A961
:10240000044A029800F018F810BC5DF814FB0000B4
:10241000792000080000002002E008C8121F08C14F
:10242000002AFAD170477047002001E001C1121F55
:10243000002AFBD1704700002DE9FF4F8DB00F46F9
:102440000546002606E025280BD0DDE90F1290474F
:102450006D1C761C28780028F5D111B03046BDE8F7
:10246000F08F0024A246A1460122EC4900E004437B
:1024700015F8013F203B02FA03F00842F7D1287813
:102480002A2810D06FF02F022878A0F130010929F6
:1024900014D80AEB8A0102EB410144F0020400EB7C
:1024A000010A6D1CF0E701CF5FEA000A03D544F48E
:1024B0000054CAF1000A44F002046D1C28782E284A
:1024C00017D115F8010F44F004042A280ED06FF03C
:1024D0002F022878A0F1300109290AD809EB8901D7
:1024E00002EB410100EB01096D1CF2E757F8049B78
:1024F0006D1C28786C280FD006DC4C2817D0682873
:102500000DD06A2814D104E0742810D07A280FD195
:102510000DE044F400140AE044F4801401E044F4B3
:1025200040146978814202D104F580146D1C6D1C41
:102530002A786E2A1FD00CDC632A31D004DC002AF2
:102540008BD0582A11D1A3E0642A68D0692A0CD113
:1025500065E0732A2ED004DC6F2A73D0702A04D170
:102560009BE0752A6FD0782A6ED01046DDE90F12F5
:102570009047761C50E1C4F30250022806D003288D
:1025800009D0042801CF09D0066045E101CFF11739
:10259000C0E9006140E101CF06803DE106703BE10A
:1025A00017F8040B8DF8000000208DF80100EB46B1
:1025B000012003E057F804BB4FF0FF3061074FF0F4
:1025C000000102D40DE008F10101884649450FDA07
:1025D0008045F8DB1BF808100029F4D108E008F169
:1025E000010188468142FADB1BF808100029F6D168
:1025F000DDE90F23AAEB08008146214600F036F9F9
:10260000304400EB080604E0DDE90F121BF8010B73
:102610009047B8F10108F7D221464846F7E00A2171
:10262000C4F302534FF0000B0891022B04D001CFEA
:10263000C117032B09D00AE0FF1D27F00707F7E8B1
:10264000020108E032E01FE020E000B2C117042BD5
:1026500001D140B2C117031E71F1000307DA4FF038
:10266000000CD0EB0C006CEB01012D2302E02305E4
:1026700004D52B238DF82430012303E0E30701D098
:102680002023F7E7984658E00A2110E010210EE0D9
:1026900010204FF0000B08900CE010214FF0000BC1
:1026A00044F004044FF00809089103E008214FF0BA
:1026B000000B0891C4F30253022B04D001CF002178
:1026C000032B06D006E0FF1D27F00707F7E80201FD
:1026D00003E080B2042B00D1C0B24FF00008230702
:1026E0002BD5702A07D0DDF820C08CF0100C5CEAE6
:1026F0000B0C05D00EE040238DF82430012308E0B8
:1027000050EA010306D030238DF824308DF82520BF
:1027100002239846DDF820C08CF0080C5CEA0B0C14
:102720000BD150EA010301D1630706D530238DF8A0
:1027300024304FF00108A9F10109582A04D038A229
:102740000B9208AA0A920BE03AA2F9E75B46089AB4
:10275000FDF71CFD0B9B9B5C0A9A521E0A9213709C
:1027600050EA0102F2D10A98ADEB000000F1200B13
:10277000600702D524F4803401E04FF00109D94507
:1027800002DDA9EB0B0000E0002000EB0B0141444F
:102790000890AAEB010AE00306D4DDE90F232146E5
:1027A000504600F063F806444FF0000908E009A91C
:1027B00011F80900DDE90F12904709F10109761CB3
:1027C000C145F4DBE0030CD5DDE90F23214650467B
:1027D00000F04CF8064404E0DDE90F123020904789
:1027E000761C0899481E08900029F5DC08E00A9834
:1027F0000A990078491C0A91DDE90F129047761C6E
:10280000BBF10001ABF1010BF1DC21465046DDE9E3
:102810000F2300F019F806446D1C1BE6092801007F
:102820003031323334353637383961626364656646
:102830000000000030313233343536373839414208
:1028400043444546000000002DE9F04104460025C0
:102850001E461746880404D405E039462020B047B8
:102860006D1C641EF9D52846BDE8F0812DE9F041C4
:10287000044600251E469046C80301D5302700E0D7
:102880002027880404D505E041463846B0476D1C32
:10289000641EF9D52846BDE8F08100000149FFF724
:1028A000EBBB00000000002010B5044601E0FFF77C
:1028B000E3FB14F8010B04490028F8D1BDE81040EF
:1028C0000A20FFF7D9BB0000000000200000000034
:1028D00000000000010203040607080900000000D0
:1028E00001020304010202030405060708090A0B9A
:1028F0000C0D0E0F10107265673A25642C2030788D
:10290000253038580A00526563656976656420642D
:1029100061746120286865782920696E2072656776
:102920005F62616E6B5B25645D3A203078253038DC
:10293000580A004572726F7220636F6E74726F6C0A
:10294000207369676E616C3A203078253038580AF8
:10295000000000007829000800000020400000006E
:1029600018240008B8290008400000205005000085
:1029700028240008000000000000000057656C6378
:102980006F6D65210D0A0000FFFFFFFF470860041F
:10299000C448DF19000000000000D02152010000EF
:1029A0006C00006800000000010000001000000042
:0829B0000024F4000000000007
:0400000508000131BD
:00000001FF
