:020000040800F2
:10000000900500204501000875560008B955000804
:1000100071560008AD3F0008A1570008000000001D
:100020000000000000000000000000007D560008F5
:10003000B13F000800000000795600088156000812
:100040005F0100085F0100085F0100085F01000810
:100050005F0100085F0100085F0100085F01000800
:100060005F0100085F0100085F0100085F010008F0
:100070005F0100085F0100085F0100085F010008E0
:100080005F0100085F0100085F0100085F010008D0
:100090005F0100085F0100085F0100085F010008C0
:1000A0005F0100085F0100085F0100085F010008B0
:1000B0005F0100085F0100085F0100085F010008A0
:1000C0005F0100085F0100085F0100085F01000890
:1000D0005F010008955700085F0100085F010008F4
:1000E0005F0100085F0100085F0100085F01000870
:1000F0005F0100085F0100085F0100085F01000860
:100100005F0100085F0100085F0100085F0100084F
:100110005F0100085F0100085F0100085F0100083F
:100120005F0100085F0100085F0100085F0100082F
:10013000DFF80CD000F05CF800480047C957000811
:10014000900500200648804706480047FEE7FEE786
:10015000FEE7FEE7FEE7FEE7FEE7FEE7FEE7FEE777
:100160008556000831010008D2B201E000F8012BE9
:10017000491EFBD270470022F6E710B513460A4627
:1001800004461946FFF7F0FF204610BD2DE9F05F49
:100190000546002092469B468846064681464024F6
:1001A0001BE0284641464746224600F048F85346A1
:1001B0005A46C01A914110D311461846224600F003
:1001C0002FF82D1A67EB01084F4622460120002127
:1001D00000F026F817EB00094E41201EA4F101049F
:1001E000DFDC484631462A464346BDE8F09F000022
:1001F0001CB509480090094801900546009C06E09E
:10020000E06840F0010394E8070098471034AC42DE
:10021000F6D3FFF791FF00009C6E0008BC6E00084B
:10022000202A04DB203A00FA02F1002070479140B6
:10023000C2F1200320FA03F3194390407047202AAB
:1002400004DB203A21FA02F00021704721FA02F380
:10025000D040C2F120029140084319467047000087
:10026000F0B581B041F20044C4F201040D460646E7
:100270004FF65847204680210122CFF6FF7704F041
:100280004FF820461021012204F04AF82046402170
:10029000002204F045F820462021012204F040F815
:1002A000384600BF00BF00BF00BF00BF00BF00BF97
:1002B00000BF00BF00BF00BF00BF00BF00BF00BF46
:1002C00000BF00BF00BF00BF00BF00BF00BF00BF36
:1002D00000BF00BF00BF00BF00BF00BF00BF00BF26
:1002E00000BF00BF00BF00BF00BF00BF00BF00BF16
:1002F00000BF00BF00BF00BF00BF00BF00BF00BF06
:1003000000BF00BF00BF00BF00BF00BF00BF00BFF5
:1003100000BF00BF00BF00BF00BF00BF00BF00BFE5
:1003200000BF00BF00BF00BF00BF00BF00BF00BFD5
:1003300000BF483000BFB5D120462021002203F085
:10034000EFFF384600BF00BF00BF00BF00BF00BFC7
:1003500000BF00BF00BF00BF00BF00BF00BF00BFA5
:1003600000BF00BF00BF00BF00BF00BF00BF00BF95
:1003700000BF00BF00BF00BF00BF00BF00BF00BF85
:1003800000BF00BF00BF00BF00BF00BF00BF00BF75
:1003900000BF00BF00BF00BF00BF00BF00BF00BF65
:1003A00000BF00BF00BF00BF00BF00BF00BF00BF55
:1003B00000BF00BF00BF00BF00BF00BF00BF00BF45
:1003C00000BF00BF00BF00BF00BF00BF00BF00BF35
:1003D00000BF483000BFB5D120464021002203F0C5
:1003E0009FFF20462021012203F09AFF384600BFDC
:1003F00000BF00BF00BF00BF00BF00BF00BF00BF05
:1004000000BF00BF00BF00BF00BF00BF00BF00BFF4
:1004100000BF00BF00BF00BF00BF00BF00BF00BFE4
:1004200000BF00BF00BF00BF00BF00BF00BF00BFD4
:1004300000BF00BF00BF00BF00BF00BF00BF00BFC4
:1004400000BF00BF00BF00BF00BF00BF00BF00BFB4
:1004500000BF00BF00BF00BF00BF00BF00BF00BFA4
:1004600000BF00BF00BF00BF00BF00BF00BF00BF94
:1004700000BF00BF00BF00BF00BF00BF00BF4830CB
:1004800000BFB5D120462021002203F049FF3846A5
:1004900000BF00BF00BF00BF00BF00BF00BF00BF64
:1004A00000BF00BF00BF00BF00BF00BF00BF00BF54
:1004B00000BF00BF00BF00BF00BF00BF00BF00BF44
:1004C00000BF00BF00BF00BF00BF00BF00BF00BF34
:1004D00000BF00BF00BF00BF00BF00BF00BF00BF24
:1004E00000BF00BF00BF00BF00BF00BF00BF00BF14
:1004F00000BF00BF00BF00BF00BF00BF00BF00BF04
:1005000000BF00BF00BF00BF00BF00BF00BF00BFF3
:1005100000BF00BF00BF00BF00BF00BF00BF48302A
:1005200000BFB5D120464021002203F0F9FE20464D
:100530002021012203F0F4FE384600BF00BF00BFB7
:1005400000BF00BF00BF00BF00BF00BF00BF00BFB3
:1005500000BF00BF00BF00BF00BF00BF00BF00BFA3
:1005600000BF00BF00BF00BF00BF00BF00BF00BF93
:1005700000BF00BF00BF00BF00BF00BF00BF00BF83
:1005800000BF00BF00BF00BF00BF00BF00BF00BF73
:1005900000BF00BF00BF00BF00BF00BF00BF00BF63
:1005A00000BF00BF00BF00BF00BF00BF00BF00BF53
:1005B00000BF00BF00BF00BF00BF00BF00BF00BF43
:1005C00000BF00BF00BF00BF00BF483000BFB5D1B3
:1005D00020462021002203F0A3FE384600BF00BFC2
:1005E00000BF00BF00BF00BF00BF00BF00BF00BF13
:1005F00000BF00BF00BF00BF00BF00BF00BF00BF03
:1006000000BF00BF00BF00BF00BF00BF00BF00BFF2
:1006100000BF00BF00BF00BF00BF00BF00BF00BFE2
:1006200000BF00BF00BF00BF00BF00BF00BF00BFD2
:1006300000BF00BF00BF00BF00BF00BF00BF00BFC2
:1006400000BF00BF00BF00BF00BF00BF00BF00BFB2
:1006500000BF00BF00BF00BF00BF00BF00BF00BFA2
:1006600000BF00BF00BF00BF00BF483000BFB5D112
:1006700020464021002203F053FE20462021012283
:1006800003F04EFE384600BF00BF00BF00BF00BFF2
:1006900000BF00BF00BF00BF00BF00BF00BF00BF62
:1006A00000BF00BF00BF00BF00BF00BF00BF00BF52
:1006B00000BF00BF00BF00BF00BF00BF00BF00BF42
:1006C00000BF00BF00BF00BF00BF00BF00BF00BF32
:1006D00000BF00BF00BF00BF00BF00BF00BF00BF22
:1006E00000BF00BF00BF00BF00BF00BF00BF00BF12
:1006F00000BF00BF00BF00BF00BF00BF00BF00BF02
:1007000000BF00BF00BF00BF00BF00BF00BF00BFF1
:1007100000BF00BF00BF483000BFB5D12046202138
:10072000002203F0FDFD384600BF00BF00BF00BF40
:1007300000BF00BF00BF00BF00BF00BF00BF00BFC1
:1007400000BF00BF00BF00BF00BF00BF00BF00BFB1
:1007500000BF00BF00BF00BF00BF00BF00BF00BFA1
:1007600000BF00BF00BF00BF00BF00BF00BF00BF91
:1007700000BF00BF00BF00BF00BF00BF00BF00BF81
:1007800000BF00BF00BF00BF00BF00BF00BF00BF71
:1007900000BF00BF00BF00BF00BF00BF00BF00BF61
:1007A00000BF00BF00BF00BF00BF00BF00BF00BF51
:1007B00000BF00BF00BF483000BFB5D12046402178
:1007C000012203F0ADFD20462021012203F0A8FD07
:1007D000384600BF00BF00BF00BF00BF00BF00BF62
:1007E00000BF00BF00BF00BF00BF00BF00BF00BF11
:1007F00000BF00BF00BF00BF00BF00BF00BF00BF01
:1008000000BF00BF00BF00BF00BF00BF00BF00BFF0
:1008100000BF00BF00BF00BF00BF00BF00BF00BFE0
:1008200000BF00BF00BF00BF00BF00BF00BF00BFD0
:1008300000BF00BF00BF00BF00BF00BF00BF00BFC0
:1008400000BF00BF00BF00BF00BF00BF00BF00BFB0
:1008500000BF00BF00BF00BF00BF00BF00BF00BFA0
:1008600000BF483000BFB5D120462021002203F050
:1008700057FD384600BF00BF00BF00BF00BF00BF2C
:1008800000BF00BF00BF00BF00BF00BF00BF00BF70
:1008900000BF00BF00BF00BF00BF00BF00BF00BF60
:1008A00000BF00BF00BF00BF00BF00BF00BF00BF50
:1008B00000BF00BF00BF00BF00BF00BF00BF00BF40
:1008C00000BF00BF00BF00BF00BF00BF00BF00BF30
:1008D00000BF00BF00BF00BF00BF00BF00BF00BF20
:1008E00000BF00BF00BF00BF00BF00BF00BF00BF10
:1008F00000BF00BF00BF00BF00BF00BF00BF00BF00
:1009000000BF483000BFB5D1C6F3C0022046402129
:1009100003F006FD20462021012203F001FD3846A8
:1009200000BF00BF00BF00BF00BF00BF00BF00BFCF
:1009300000BF00BF00BF00BF00BF00BF00BF00BFBF
:1009400000BF00BF00BF00BF00BF00BF00BF00BFAF
:1009500000BF00BF00BF00BF00BF00BF00BF00BF9F
:1009600000BF00BF00BF00BF00BF00BF00BF00BF8F
:1009700000BF00BF00BF00BF00BF00BF00BF00BF7F
:1009800000BF00BF00BF00BF00BF00BF00BF00BF6F
:1009900000BF00BF00BF00BF00BF00BF00BF00BF5F
:1009A00000BF00BF00BF00BF00BF00BF00BF483096
:1009B00000BFB5D120462021002203F0B1FC38460B
:1009C00000BF00BF00BF00BF00BF00BF00BF00BF2F
:1009D00000BF00BF00BF00BF00BF00BF00BF00BF1F
:1009E00000BF00BF00BF00BF00BF00BF00BF00BF0F
:1009F00000BF00BF00BF00BF00BF00BF00BF00BFFF
:100A000000BF00BF00BF00BF00BF00BF00BF00BFEE
:100A100000BF00BF00BF00BF00BF00BF00BF00BFDE
:100A200000BF00BF00BF00BF00BF00BF00BF00BFCE
:100A300000BF00BF00BF00BF00BF00BF00BF00BFBE
:100A400000BF00BF00BF00BF00BF00BF00BF4830F5
:100A500000BFB5D1C6F380022046402103F060FC00
:100A600020462021012203F05BFC384600BF00BF76
:100A700000BF00BF00BF00BF00BF00BF00BF00BF7E
:100A800000BF00BF00BF00BF00BF00BF00BF00BF6E
:100A900000BF00BF00BF00BF00BF00BF00BF00BF5E
:100AA00000BF00BF00BF00BF00BF00BF00BF00BF4E
:100AB00000BF00BF00BF00BF00BF00BF00BF00BF3E
:100AC00000BF00BF00BF00BF00BF00BF00BF00BF2E
:100AD00000BF00BF00BF00BF00BF00BF00BF00BF1E
:100AE00000BF00BF00BF00BF00BF00BF00BF00BF0E
:100AF00000BF00BF00BF00BF00BF483000BFB5D17E
:100B000020462021002203F00BFC384600BF00BF26
:100B100000BF00BF00BF00BF00BF00BF00BF00BFDD
:100B200000BF00BF00BF00BF00BF00BF00BF00BFCD
:100B300000BF00BF00BF00BF00BF00BF00BF00BFBD
:100B400000BF00BF00BF00BF00BF00BF00BF00BFAD
:100B500000BF00BF00BF00BF00BF00BF00BF00BF9D
:100B600000BF00BF00BF00BF00BF00BF00BF00BF8D
:100B700000BF00BF00BF00BF00BF00BF00BF00BF7D
:100B800000BF00BF00BF00BF00BF00BF00BF00BF6D
:100B900000BF00BF00BF00BF00BF483000BFB5D1DD
:100BA000C6F340022046402103F0BAFB2046202134
:100BB000012203F0B5FB384600BF00BF00BF00BFF5
:100BC00000BF00BF00BF00BF00BF00BF00BF00BF2D
:100BD00000BF00BF00BF00BF00BF00BF00BF00BF1D
:100BE00000BF00BF00BF00BF00BF00BF00BF00BF0D
:100BF00000BF00BF00BF00BF00BF00BF00BF00BFFD
:100C000000BF00BF00BF00BF00BF00BF00BF00BFEC
:100C100000BF00BF00BF00BF00BF00BF00BF00BFDC
:100C200000BF00BF00BF00BF00BF00BF00BF00BFCC
:100C300000BF00BF00BF00BF00BF00BF00BF00BFBC
:100C400000BF00BF00BF483000BFB5D12046202103
:100C5000002203F065FB384600BF00BF00BF00BFA5
:100C600000BF00BF00BF00BF00BF00BF00BF00BF8C
:100C700000BF00BF00BF00BF00BF00BF00BF00BF7C
:100C800000BF00BF00BF00BF00BF00BF00BF00BF6C
:100C900000BF00BF00BF00BF00BF00BF00BF00BF5C
:100CA00000BF00BF00BF00BF00BF00BF00BF00BF4C
:100CB00000BF00BF00BF00BF00BF00BF00BF00BF3C
:100CC00000BF00BF00BF00BF00BF00BF00BF00BF2C
:100CD00000BF00BF00BF00BF00BF00BF00BF00BF1C
:100CE00000BF00BF00BF483000BFB5D106F001060D
:100CF00020464021324603F013FB204620210122EA
:100D000003F00EFB384600BF00BF00BF00BF00BFAE
:100D100000BF00BF00BF00BF00BF00BF00BF00BFDB
:100D200000BF00BF00BF00BF00BF00BF00BF00BFCB
:100D300000BF00BF00BF00BF00BF00BF00BF00BFBB
:100D400000BF00BF00BF00BF00BF00BF00BF00BFAB
:100D500000BF00BF00BF00BF00BF00BF00BF00BF9B
:100D600000BF00BF00BF00BF00BF00BF00BF00BF8B
:100D700000BF00BF00BF00BF00BF00BF00BF00BF7B
:100D800000BF00BF00BF00BF00BF00BF00BF00BF6B
:100D900000BF00BF00BF483000BFB5D120462021B2
:100DA000002203F0BDFA384600BF00BF00BF00BFFD
:100DB00000BF00BF00BF00BF00BF00BF00BF00BF3B
:100DC00000BF00BF00BF00BF00BF00BF00BF00BF2B
:100DD00000BF00BF00BF00BF00BF00BF00BF00BF1B
:100DE00000BF00BF00BF00BF00BF00BF00BF00BF0B
:100DF00000BF00BF00BF00BF00BF00BF00BF00BFFB
:100E000000BF00BF00BF00BF00BF00BF00BF00BFEA
:100E100000BF00BF00BF00BF00BF00BF00BF00BFDA
:100E200000BF00BF00BF00BF00BF00BF00BF00BFCA
:100E300000BF00BF00BF483000BFB5D120464021F1
:100E4000324603F06DFA20462021012203F068FAB1
:100E5000384600BF00BF00BF00BF00BF00BF00BFDB
:100E600000BF00BF00BF00BF00BF00BF00BF00BF8A
:100E700000BF00BF00BF00BF00BF00BF00BF00BF7A
:100E800000BF00BF00BF00BF00BF00BF00BF00BF6A
:100E900000BF00BF00BF00BF00BF00BF00BF00BF5A
:100EA00000BF00BF00BF00BF00BF00BF00BF00BF4A
:100EB00000BF00BF00BF00BF00BF00BF00BF00BF3A
:100EC00000BF00BF00BF00BF00BF00BF00BF00BF2A
:100ED00000BF00BF00BF00BF00BF00BF00BF00BF1A
:100EE00000BF483000BFB5D120462021002203F0CA
:100EF00017FA384600BF00BF00BF00BF00BF00BFE9
:100F000000BF00BF00BF00BF00BF00BF00BF00BFE9
:100F100000BF00BF00BF00BF00BF00BF00BF00BFD9
:100F200000BF00BF00BF00BF00BF00BF00BF00BFC9
:100F300000BF00BF00BF00BF00BF00BF00BF00BFB9
:100F400000BF00BF00BF00BF00BF00BF00BF00BFA9
:100F500000BF00BF00BF00BF00BF00BF00BF00BF99
:100F600000BF00BF00BF00BF00BF00BF00BF00BF89
:100F700000BF00BF00BF00BF00BF00BF00BF00BF79
:100F800000BF483000BFB5D120461021002203F039
:100F9000C7F920464021324603F0C2F920462021FD
:100FA000012203F0BDF9384600BF00BF00BF00BFFB
:100FB00000BF00BF00BF00BF00BF00BF00BF00BF39
:100FC00000BF00BF00BF00BF00BF00BF00BF00BF29
:100FD00000BF00BF00BF00BF00BF00BF00BF00BF19
:100FE00000BF00BF00BF00BF00BF00BF00BF00BF09
:100FF00000BF00BF00BF00BF00BF00BF00BF00BFF9
:1010000000BF00BF00BF00BF00BF00BF00BF00BFE8
:1010100000BF00BF00BF00BF00BF00BF00BF00BFD8
:1010200000BF00BF00BF00BF00BF00BF00BF00BFC8
:1010300000BF00BF00BF483000BFB5D1204620210F
:10104000002203F06DF9384600BF00BF00BF00BFAB
:1010500000BF00BF00BF00BF00BF00BF00BF00BF98
:1010600000BF00BF00BF00BF00BF00BF00BF00BF88
:1010700000BF00BF00BF00BF00BF00BF00BF00BF78
:1010800000BF00BF00BF00BF00BF00BF00BF00BF68
:1010900000BF00BF00BF00BF00BF00BF00BF00BF58
:1010A00000BF00BF00BF00BF00BF00BF00BF00BF48
:1010B00000BF00BF00BF00BF00BF00BF00BF00BF38
:1010C00000BF00BF00BF00BF00BF00BF00BF00BF28
:1010D00000BF00BF00BF483000BFB5D1204610217F
:1010E000012203F01DF920464021002203F018F9E7
:1010F00020462021012203F013F9384600BF00BF2B
:1011000000BF00BF00BF00BF00BF00BF00BF00BFE7
:1011100000BF00BF00BF00BF00BF00BF00BF00BFD7
:1011200000BF00BF00BF00BF00BF00BF00BF00BFC7
:1011300000BF00BF00BF00BF00BF00BF00BF00BFB7
:1011400000BF00BF00BF00BF00BF00BF00BF00BFA7
:1011500000BF00BF00BF00BF00BF00BF00BF00BF97
:1011600000BF00BF00BF00BF00BF00BF00BF00BF87
:1011700000BF00BF00BF00BF00BF00BF00BF00BF77
:1011800000BF00BF00BF00BF00BF483000BFB5D1E7
:1011900020462021002203F0C3F8384600BF00BFDC
:1011A00000BF00BF00BF00BF00BF00BF00BF00BF47
:1011B00000BF00BF00BF00BF00BF00BF00BF00BF37
:1011C00000BF00BF00BF00BF00BF00BF00BF00BF27
:1011D00000BF00BF00BF00BF00BF00BF00BF00BF17
:1011E00000BF00BF00BF00BF00BF00BF00BF00BF07
:1011F00000BF00BF00BF00BF00BF00BF00BF00BFF7
:1012000000BF00BF00BF00BF00BF00BF00BF00BFE6
:1012100000BF00BF00BF00BF00BF00BF00BF00BFD6
:1012200000BF00BF00BF00BF00BF483000BFB5D146
:1012300020464021002203F073F82046202101229D
:1012400003F06EF8384600BF00BF00BF00BF00BF0C
:1012500000BF00BF00BF00BF00BF00BF00BF00BF96
:1012600000BF00BF00BF00BF00BF00BF00BF00BF86
:1012700000BF00BF00BF00BF00BF00BF00BF00BF76
:1012800000BF00BF00BF00BF00BF00BF00BF00BF66
:1012900000BF00BF00BF00BF00BF00BF00BF00BF56
:1012A00000BF00BF00BF00BF00BF00BF00BF00BF46
:1012B00000BF00BF00BF00BF00BF00BF00BF00BF36
:1012C00000BF00BF00BF00BF00BF00BF00BF00BF26
:1012D00000BF00BF00BF483000BFB5D1204620216D
:1012E000002203F01DF8384600BF00BF00BF00BF5A
:1012F00000BF00BF00BF00BF00BF00BF00BF00BFF6
:1013000000BF00BF00BF00BF00BF00BF00BF00BFE5
:1013100000BF00BF00BF00BF00BF00BF00BF00BFD5
:1013200000BF00BF00BF00BF00BF00BF00BF00BFC5
:1013300000BF00BF00BF00BF00BF00BF00BF00BFB5
:1013400000BF00BF00BF00BF00BF00BF00BF00BFA5
:1013500000BF00BF00BF00BF00BF00BF00BF00BF95
:1013600000BF00BF00BF00BF00BF00BF00BF00BF85
:1013700000BF00BF00BF483000BFB5D1EA0F204614
:10138000402102F0CDFF20462021012202F0C8FFBB
:10139000384600BF00BF00BF00BF00BF00BF00BF96
:1013A00000BF00BF00BF00BF00BF00BF00BF00BF45
:1013B00000BF00BF00BF00BF00BF00BF00BF00BF35
:1013C00000BF00BF00BF00BF00BF00BF00BF00BF25
:1013D00000BF00BF00BF00BF00BF00BF00BF00BF15
:1013E00000BF00BF00BF00BF00BF00BF00BF00BF05
:1013F00000BF00BF00BF00BF00BF00BF00BF00BFF5
:1014000000BF00BF00BF00BF00BF00BF00BF00BFE4
:1014100000BF00BF00BF00BF00BF00BF00BF00BFD4
:1014200000BF483000BFB5D120462021002202F085
:1014300077FF384600BF00BF00BF00BF00BF00BF3E
:1014400000BF00BF00BF00BF00BF00BF00BF00BFA4
:1014500000BF00BF00BF00BF00BF00BF00BF00BF94
:1014600000BF00BF00BF00BF00BF00BF00BF00BF84
:1014700000BF00BF00BF00BF00BF00BF00BF00BF74
:1014800000BF00BF00BF00BF00BF00BF00BF00BF64
:1014900000BF00BF00BF00BF00BF00BF00BF00BF54
:1014A00000BF00BF00BF00BF00BF00BF00BF00BF44
:1014B00000BF00BF00BF00BF00BF00BF00BF00BF34
:1014C00000BF483000BFB5D1C5F38072204640212F
:1014D00002F026FF20462021012202F021FF38469B
:1014E00000BF00BF00BF00BF00BF00BF00BF00BF04
:1014F00000BF00BF00BF00BF00BF00BF00BF00BFF4
:1015000000BF00BF00BF00BF00BF00BF00BF00BFE3
:1015100000BF00BF00BF00BF00BF00BF00BF00BFD3
:1015200000BF00BF00BF00BF00BF00BF00BF00BFC3
:1015300000BF00BF00BF00BF00BF00BF00BF00BFB3
:1015400000BF00BF00BF00BF00BF00BF00BF00BFA3
:1015500000BF00BF00BF00BF00BF00BF00BF00BF93
:1015600000BF00BF00BF00BF00BF00BF00BF4830CA
:1015700000BFB5D120462021002202F0D1FE38461E
:1015800000BF00BF00BF00BF00BF00BF00BF00BF63
:1015900000BF00BF00BF00BF00BF00BF00BF00BF53
:1015A00000BF00BF00BF00BF00BF00BF00BF00BF43
:1015B00000BF00BF00BF00BF00BF00BF00BF00BF33
:1015C00000BF00BF00BF00BF00BF00BF00BF00BF23
:1015D00000BF00BF00BF00BF00BF00BF00BF00BF13
:1015E00000BF00BF00BF00BF00BF00BF00BF00BF03
:1015F00000BF00BF00BF00BF00BF00BF00BF00BFF3
:1016000000BF00BF00BF00BF00BF00BF00BF483029
:1016100000BFB5D1C5F340722046402102F080FEE4
:1016200020462021012202F07BFE384600BF00BF89
:1016300000BF00BF00BF00BF00BF00BF00BF00BFB2
:1016400000BF00BF00BF00BF00BF00BF00BF00BFA2
:1016500000BF00BF00BF00BF00BF00BF00BF00BF92
:1016600000BF00BF00BF00BF00BF00BF00BF00BF82
:1016700000BF00BF00BF00BF00BF00BF00BF00BF72
:1016800000BF00BF00BF00BF00BF00BF00BF00BF62
:1016900000BF00BF00BF00BF00BF00BF00BF00BF52
:1016A00000BF00BF00BF00BF00BF00BF00BF00BF42
:1016B00000BF00BF00BF00BF00BF483000BFB5D1B2
:1016C00020462021002202F02BFE384600BF00BF3A
:1016D00000BF00BF00BF00BF00BF00BF00BF00BF12
:1016E00000BF00BF00BF00BF00BF00BF00BF00BF02
:1016F00000BF00BF00BF00BF00BF00BF00BF00BFF2
:1017000000BF00BF00BF00BF00BF00BF00BF00BFE1
:1017100000BF00BF00BF00BF00BF00BF00BF00BFD1
:1017200000BF00BF00BF00BF00BF00BF00BF00BFC1
:1017300000BF00BF00BF00BF00BF00BF00BF00BFB1
:1017400000BF00BF00BF00BF00BF00BF00BF00BFA1
:1017500000BF00BF00BF00BF00BF483000BFB5D111
:10176000C5F300722046402102F0DAFD2046202118
:10177000012202F0D5FD384600BF00BF00BF00BF08
:1017800000BF00BF00BF00BF00BF00BF00BF00BF61
:1017900000BF00BF00BF00BF00BF00BF00BF00BF51
:1017A00000BF00BF00BF00BF00BF00BF00BF00BF41
:1017B00000BF00BF00BF00BF00BF00BF00BF00BF31
:1017C00000BF00BF00BF00BF00BF00BF00BF00BF21
:1017D00000BF00BF00BF00BF00BF00BF00BF00BF11
:1017E00000BF00BF00BF00BF00BF00BF00BF00BF01
:1017F00000BF00BF00BF00BF00BF00BF00BF00BFF1
:1018000000BF00BF00BF483000BFB5D12046202137
:10181000002202F085FD384600BF00BF00BF00BFB8
:1018200000BF00BF00BF00BF00BF00BF00BF00BFC0
:1018300000BF00BF00BF00BF00BF00BF00BF00BFB0
:1018400000BF00BF00BF00BF00BF00BF00BF00BFA0
:1018500000BF00BF00BF00BF00BF00BF00BF00BF90
:1018600000BF00BF00BF00BF00BF00BF00BF00BF80
:1018700000BF00BF00BF00BF00BF00BF00BF00BF70
:1018800000BF00BF00BF00BF00BF00BF00BF00BF60
:1018900000BF00BF00BF00BF00BF00BF00BF00BF50
:1018A00000BF00BF00BF483000BFB5D1C5F3C06264
:1018B0002046402102F034FD20462021012202F082
:1018C0002FFD384600BF00BF00BF00BF00BF00BFF4
:1018D00000BF00BF00BF00BF00BF00BF00BF00BF10
:1018E00000BF00BF00BF00BF00BF00BF00BF00BF00
:1018F00000BF00BF00BF00BF00BF00BF00BF00BFF0
:1019000000BF00BF00BF00BF00BF00BF00BF00BFDF
:1019100000BF00BF00BF00BF00BF00BF00BF00BFCF
:1019200000BF00BF00BF00BF00BF00BF00BF00BFBF
:1019300000BF00BF00BF00BF00BF00BF00BF00BFAF
:1019400000BF00BF00BF00BF00BF00BF00BF00BF9F
:1019500000BF483000BFB5D120462021002202F050
:10196000DFFC384600BF00BF00BF00BF00BF00BFA4
:1019700000BF00BF00BF00BF00BF00BF00BF00BF6F
:1019800000BF00BF00BF00BF00BF00BF00BF00BF5F
:1019900000BF00BF00BF00BF00BF00BF00BF00BF4F
:1019A00000BF00BF00BF00BF00BF00BF00BF00BF3F
:1019B00000BF00BF00BF00BF00BF00BF00BF00BF2F
:1019C00000BF00BF00BF00BF00BF00BF00BF00BF1F
:1019D00000BF00BF00BF00BF00BF00BF00BF00BF0F
:1019E00000BF00BF00BF00BF00BF00BF00BF00BFFF
:1019F00000BF483000BFB5D1C5F38062204640210A
:101A000002F08EFC20462021012202F089FC38469B
:101A100000BF00BF00BF00BF00BF00BF00BF00BFCE
:101A200000BF00BF00BF00BF00BF00BF00BF00BFBE
:101A300000BF00BF00BF00BF00BF00BF00BF00BFAE
:101A400000BF00BF00BF00BF00BF00BF00BF00BF9E
:101A500000BF00BF00BF00BF00BF00BF00BF00BF8E
:101A600000BF00BF00BF00BF00BF00BF00BF00BF7E
:101A700000BF00BF00BF00BF00BF00BF00BF00BF6E
:101A800000BF00BF00BF00BF00BF00BF00BF00BF5E
:101A900000BF00BF00BF00BF00BF00BF00BF483095
:101AA00000BFB5D120462021002202F039FC384683
:101AB00000BF00BF00BF00BF00BF00BF00BF00BF2E
:101AC00000BF00BF00BF00BF00BF00BF00BF00BF1E
:101AD00000BF00BF00BF00BF00BF00BF00BF00BF0E
:101AE00000BF00BF00BF00BF00BF00BF00BF00BFFE
:101AF00000BF00BF00BF00BF00BF00BF00BF00BFEE
:101B000000BF00BF00BF00BF00BF00BF00BF00BFDD
:101B100000BF00BF00BF00BF00BF00BF00BF00BFCD
:101B200000BF00BF00BF00BF00BF00BF00BF00BFBD
:101B300000BF00BF00BF00BF00BF00BF00BF4830F4
:101B400000BFB5D1C5F340622046402102F0E8FB5A
:101B500020462021012202F0E3FB384600BF00BFEF
:101B600000BF00BF00BF00BF00BF00BF00BF00BF7D
:101B700000BF00BF00BF00BF00BF00BF00BF00BF6D
:101B800000BF00BF00BF00BF00BF00BF00BF00BF5D
:101B900000BF00BF00BF00BF00BF00BF00BF00BF4D
:101BA00000BF00BF00BF00BF00BF00BF00BF00BF3D
:101BB00000BF00BF00BF00BF00BF00BF00BF00BF2D
:101BC00000BF00BF00BF00BF00BF00BF00BF00BF1D
:101BD00000BF00BF00BF00BF00BF00BF00BF00BF0D
:101BE00000BF00BF00BF00BF00BF483000BFB5D17D
:101BF00020462021002202F093FB384600BF00BFA0
:101C000000BF00BF00BF00BF00BF00BF00BF00BFDC
:101C100000BF00BF00BF00BF00BF00BF00BF00BFCC
:101C200000BF00BF00BF00BF00BF00BF00BF00BFBC
:101C300000BF00BF00BF00BF00BF00BF00BF00BFAC
:101C400000BF00BF00BF00BF00BF00BF00BF00BF9C
:101C500000BF00BF00BF00BF00BF00BF00BF00BF8C
:101C600000BF00BF00BF00BF00BF00BF00BF00BF7C
:101C700000BF00BF00BF00BF00BF00BF00BF00BF6C
:101C800000BF00BF00BF00BF00BF483000BFB5D1DC
:101C9000C5F300622046402102F042FB204620218D
:101CA000012202F03DFB384600BF00BF00BF00BF6D
:101CB00000BF00BF00BF00BF00BF00BF00BF00BF2C
:101CC00000BF00BF00BF00BF00BF00BF00BF00BF1C
:101CD00000BF00BF00BF00BF00BF00BF00BF00BF0C
:101CE00000BF00BF00BF00BF00BF00BF00BF00BFFC
:101CF00000BF00BF00BF00BF00BF00BF00BF00BFEC
:101D000000BF00BF00BF00BF00BF00BF00BF00BFDB
:101D100000BF00BF00BF00BF00BF00BF00BF00BFCB
:101D200000BF00BF00BF00BF00BF00BF00BF00BFBB
:101D300000BF00BF00BF483000BFB5D12046202102
:101D4000002202F0EDFA384600BF00BF00BF00BF1E
:101D500000BF00BF00BF00BF00BF00BF00BF00BF8B
:101D600000BF00BF00BF00BF00BF00BF00BF00BF7B
:101D700000BF00BF00BF00BF00BF00BF00BF00BF6B
:101D800000BF00BF00BF00BF00BF00BF00BF00BF5B
:101D900000BF00BF00BF00BF00BF00BF00BF00BF4B
:101DA00000BF00BF00BF00BF00BF00BF00BF00BF3B
:101DB00000BF00BF00BF00BF00BF00BF00BF00BF2B
:101DC00000BF00BF00BF00BF00BF00BF00BF00BF1B
:101DD00000BF00BF00BF483000BFB5D1C5F3C0523F
:101DE0002046402102F09CFA20462021012202F0E8
:101DF00097FA384600BF00BF00BF00BF00BF00BF5A
:101E000000BF00BF00BF00BF00BF00BF00BF00BFDA
:101E100000BF00BF00BF00BF00BF00BF00BF00BFCA
:101E200000BF00BF00BF00BF00BF00BF00BF00BFBA
:101E300000BF00BF00BF00BF00BF00BF00BF00BFAA
:101E400000BF00BF00BF00BF00BF00BF00BF00BF9A
:101E500000BF00BF00BF00BF00BF00BF00BF00BF8A
:101E600000BF00BF00BF00BF00BF00BF00BF00BF7A
:101E700000BF00BF00BF00BF00BF00BF00BF00BF6A
:101E800000BF483000BFB5D120462021002202F01B
:101E900047FA384600BF00BF00BF00BF00BF00BF09
:101EA00000BF00BF00BF00BF00BF00BF00BF00BF3A
:101EB00000BF00BF00BF00BF00BF00BF00BF00BF2A
:101EC00000BF00BF00BF00BF00BF00BF00BF00BF1A
:101ED00000BF00BF00BF00BF00BF00BF00BF00BF0A
:101EE00000BF00BF00BF00BF00BF00BF00BF00BFFA
:101EF00000BF00BF00BF00BF00BF00BF00BF00BFEA
:101F000000BF00BF00BF00BF00BF00BF00BF00BFD9
:101F100000BF00BF00BF00BF00BF00BF00BF00BFC9
:101F200000BF483000BFB5D1C5F3805220464021E4
:101F300002F0F6F920462021012202F0F1F938469C
:101F400000BF00BF00BF00BF00BF00BF00BF00BF99
:101F500000BF00BF00BF00BF00BF00BF00BF00BF89
:101F600000BF00BF00BF00BF00BF00BF00BF00BF79
:101F700000BF00BF00BF00BF00BF00BF00BF00BF69
:101F800000BF00BF00BF00BF00BF00BF00BF00BF59
:101F900000BF00BF00BF00BF00BF00BF00BF00BF49
:101FA00000BF00BF00BF00BF00BF00BF00BF00BF39
:101FB00000BF00BF00BF00BF00BF00BF00BF00BF29
:101FC00000BF00BF00BF00BF00BF00BF00BF483060
:101FD00000BFB5D120462021002202F0A1F93846E9
:101FE00000BF00BF00BF00BF00BF00BF00BF00BFF9
:101FF00000BF00BF00BF00BF00BF00BF00BF00BFE9
:1020000000BF00BF00BF00BF00BF00BF00BF00BFD8
:1020100000BF00BF00BF00BF00BF00BF00BF00BFC8
:1020200000BF00BF00BF00BF00BF00BF00BF00BFB8
:1020300000BF00BF00BF00BF00BF00BF00BF00BFA8
:1020400000BF00BF00BF00BF00BF00BF00BF00BF98
:1020500000BF00BF00BF00BF00BF00BF00BF00BF88
:1020600000BF00BF00BF00BF00BF00BF00BF4830BF
:1020700000BFB5D1C5F340522046402102F050F9CF
:1020800020462021012202F04BF9384600BF00BF54
:1020900000BF00BF00BF00BF00BF00BF00BF00BF48
:1020A00000BF00BF00BF00BF00BF00BF00BF00BF38
:1020B00000BF00BF00BF00BF00BF00BF00BF00BF28
:1020C00000BF00BF00BF00BF00BF00BF00BF00BF18
:1020D00000BF00BF00BF00BF00BF00BF00BF00BF08
:1020E00000BF00BF00BF00BF00BF00BF00BF00BFF8
:1020F00000BF00BF00BF00BF00BF00BF00BF00BFE8
:1021000000BF00BF00BF00BF00BF00BF00BF00BFD7
:1021100000BF00BF00BF00BF00BF483000BFB5D147
:1021200020462021002202F0FBF8384600BF00BF05
:1021300000BF00BF00BF00BF00BF00BF00BF00BFA7
:1021400000BF00BF00BF00BF00BF00BF00BF00BF97
:1021500000BF00BF00BF00BF00BF00BF00BF00BF87
:1021600000BF00BF00BF00BF00BF00BF00BF00BF77
:1021700000BF00BF00BF00BF00BF00BF00BF00BF67
:1021800000BF00BF00BF00BF00BF00BF00BF00BF57
:1021900000BF00BF00BF00BF00BF00BF00BF00BF47
:1021A00000BF00BF00BF00BF00BF00BF00BF00BF37
:1021B00000BF00BF00BF00BF00BF483000BFB5D1A7
:1021C000C5F300522046402102F0AAF82046202103
:1021D000012202F0A5F8384600BF00BF00BF00BFD3
:1021E00000BF00BF00BF00BF00BF00BF00BF00BFF7
:1021F00000BF00BF00BF00BF00BF00BF00BF00BFE7
:1022000000BF00BF00BF00BF00BF00BF00BF00BFD6
:1022100000BF00BF00BF00BF00BF00BF00BF00BFC6
:1022200000BF00BF00BF00BF00BF00BF00BF00BFB6
:1022300000BF00BF00BF00BF00BF00BF00BF00BFA6
:1022400000BF00BF00BF00BF00BF00BF00BF00BF96
:1022500000BF00BF00BF00BF00BF00BF00BF00BF86
:1022600000BF00BF00BF483000BFB5D120462021CD
:10227000002202F055F8384600BF00BF00BF00BF83
:1022800000BF00BF00BF00BF00BF00BF00BF00BF56
:1022900000BF00BF00BF00BF00BF00BF00BF00BF46
:1022A00000BF00BF00BF00BF00BF00BF00BF00BF36
:1022B00000BF00BF00BF00BF00BF00BF00BF00BF26
:1022C00000BF00BF00BF00BF00BF00BF00BF00BF16
:1022D00000BF00BF00BF00BF00BF00BF00BF00BF06
:1022E00000BF00BF00BF00BF00BF00BF00BF00BFF6
:1022F00000BF00BF00BF00BF00BF00BF00BF00BFE6
:1023000000BF00BF00BF483000BFB5D1C5F3C04219
:102310002046402102F004F820462021012201F04D
:10232000FFFF384600BF00BF00BF00BF00BF00BFB7
:1023300000BF00BF00BF00BF00BF00BF00BF00BFA5
:1023400000BF00BF00BF00BF00BF00BF00BF00BF95
:1023500000BF00BF00BF00BF00BF00BF00BF00BF85
:1023600000BF00BF00BF00BF00BF00BF00BF00BF75
:1023700000BF00BF00BF00BF00BF00BF00BF00BF65
:1023800000BF00BF00BF00BF00BF00BF00BF00BF55
:1023900000BF00BF00BF00BF00BF00BF00BF00BF45
:1023A00000BF00BF00BF00BF00BF00BF00BF00BF35
:1023B00000BF483000BFB5D120462021002201F0E7
:1023C000AFFF384600BF00BF00BF00BF00BF00BF67
:1023D00000BF00BF00BF00BF00BF00BF00BF00BF05
:1023E00000BF00BF00BF00BF00BF00BF00BF00BFF5
:1023F00000BF00BF00BF00BF00BF00BF00BF00BFE5
:1024000000BF00BF00BF00BF00BF00BF00BF00BFD4
:1024100000BF00BF00BF00BF00BF00BF00BF00BFC4
:1024200000BF00BF00BF00BF00BF00BF00BF00BFB4
:1024300000BF00BF00BF00BF00BF00BF00BF00BFA4
:1024400000BF00BF00BF00BF00BF00BF00BF00BF94
:1024500000BF483000BFB5D1C5F3804220464021BF
:1024600001F05EFF20462021012201F059FF38468D
:1024700000BF00BF00BF00BF00BF00BF00BF00BF64
:1024800000BF00BF00BF00BF00BF00BF00BF00BF54
:1024900000BF00BF00BF00BF00BF00BF00BF00BF44
:1024A00000BF00BF00BF00BF00BF00BF00BF00BF34
:1024B00000BF00BF00BF00BF00BF00BF00BF00BF24
:1024C00000BF00BF00BF00BF00BF00BF00BF00BF14
:1024D00000BF00BF00BF00BF00BF00BF00BF00BF04
:1024E00000BF00BF00BF00BF00BF00BF00BF00BFF4
:1024F00000BF00BF00BF00BF00BF00BF00BF48302B
:1025000000BFB5D120462021002201F009FF384646
:1025100000BF00BF00BF00BF00BF00BF00BF00BFC3
:1025200000BF00BF00BF00BF00BF00BF00BF00BFB3
:1025300000BF00BF00BF00BF00BF00BF00BF00BFA3
:1025400000BF00BF00BF00BF00BF00BF00BF00BF93
:1025500000BF00BF00BF00BF00BF00BF00BF00BF83
:1025600000BF00BF00BF00BF00BF00BF00BF00BF73
:1025700000BF00BF00BF00BF00BF00BF00BF00BF63
:1025800000BF00BF00BF00BF00BF00BF00BF00BF53
:1025900000BF00BF00BF00BF00BF00BF00BF48308A
:1025A00000BFB5D1C5F340422046402101F0B8FE3E
:1025B00020462021012201F0B3FE384600BF00BFB3
:1025C00000BF00BF00BF00BF00BF00BF00BF00BF13
:1025D00000BF00BF00BF00BF00BF00BF00BF00BF03
:1025E00000BF00BF00BF00BF00BF00BF00BF00BFF3
:1025F00000BF00BF00BF00BF00BF00BF00BF00BFE3
:1026000000BF00BF00BF00BF00BF00BF00BF00BFD2
:1026100000BF00BF00BF00BF00BF00BF00BF00BFC2
:1026200000BF00BF00BF00BF00BF00BF00BF00BFB2
:1026300000BF00BF00BF00BF00BF00BF00BF00BFA2
:1026400000BF00BF00BF00BF00BF483000BFB5D112
:1026500020462021002201F063FE384600BF00BF63
:1026600000BF00BF00BF00BF00BF00BF00BF00BF72
:1026700000BF00BF00BF00BF00BF00BF00BF00BF62
:1026800000BF00BF00BF00BF00BF00BF00BF00BF52
:1026900000BF00BF00BF00BF00BF00BF00BF00BF42
:1026A00000BF00BF00BF00BF00BF00BF00BF00BF32
:1026B00000BF00BF00BF00BF00BF00BF00BF00BF22
:1026C00000BF00BF00BF00BF00BF00BF00BF00BF12
:1026D00000BF00BF00BF00BF00BF00BF00BF00BF02
:1026E00000BF00BF00BF00BF00BF483000BFB5D172
:1026F000C5F300422046402101F012FE2046202171
:10270000012201F00DFE384600BF00BF00BF00BF30
:1027100000BF00BF00BF00BF00BF00BF00BF00BFC1
:1027200000BF00BF00BF00BF00BF00BF00BF00BFB1
:1027300000BF00BF00BF00BF00BF00BF00BF00BFA1
:1027400000BF00BF00BF00BF00BF00BF00BF00BF91
:1027500000BF00BF00BF00BF00BF00BF00BF00BF81
:1027600000BF00BF00BF00BF00BF00BF00BF00BF71
:1027700000BF00BF00BF00BF00BF00BF00BF00BF61
:1027800000BF00BF00BF00BF00BF00BF00BF00BF51
:1027900000BF00BF00BF483000BFB5D12046202198
:1027A000002201F0BDFD384600BF00BF00BF00BFE2
:1027B00000BF00BF00BF00BF00BF00BF00BF00BF21
:1027C00000BF00BF00BF00BF00BF00BF00BF00BF11
:1027D00000BF00BF00BF00BF00BF00BF00BF00BF01
:1027E00000BF00BF00BF00BF00BF00BF00BF00BFF1
:1027F00000BF00BF00BF00BF00BF00BF00BF00BFE1
:1028000000BF00BF00BF00BF00BF00BF00BF00BFD0
:1028100000BF00BF00BF00BF00BF00BF00BF00BFC0
:1028200000BF00BF00BF00BF00BF00BF00BF00BFB0
:1028300000BF00BF00BF483000BFB5D1C5F3C032F4
:102840002046402101F06CFD20462021012201F0AC
:1028500067FD384600BF00BF00BF00BF00BF00BF1C
:1028600000BF00BF00BF00BF00BF00BF00BF00BF70
:1028700000BF00BF00BF00BF00BF00BF00BF00BF60
:1028800000BF00BF00BF00BF00BF00BF00BF00BF50
:1028900000BF00BF00BF00BF00BF00BF00BF00BF40
:1028A00000BF00BF00BF00BF00BF00BF00BF00BF30
:1028B00000BF00BF00BF00BF00BF00BF00BF00BF20
:1028C00000BF00BF00BF00BF00BF00BF00BF00BF10
:1028D00000BF00BF00BF00BF00BF00BF00BF00BF00
:1028E00000BF483000BFB5D120462021002201F0B2
:1028F00017FD384600BF00BF00BF00BF00BF00BFCC
:1029000000BF00BF00BF00BF00BF00BF00BF00BFCF
:1029100000BF00BF00BF00BF00BF00BF00BF00BFBF
:1029200000BF00BF00BF00BF00BF00BF00BF00BFAF
:1029300000BF00BF00BF00BF00BF00BF00BF00BF9F
:1029400000BF00BF00BF00BF00BF00BF00BF00BF8F
:1029500000BF00BF00BF00BF00BF00BF00BF00BF7F
:1029600000BF00BF00BF00BF00BF00BF00BF00BF6F
:1029700000BF00BF00BF00BF00BF00BF00BF00BF5F
:1029800000BF483000BFB5D1C5F38032204640219A
:1029900001F0C6FC20462021012201F0C1FC38468E
:1029A00000BF00BF00BF00BF00BF00BF00BF00BF2F
:1029B00000BF00BF00BF00BF00BF00BF00BF00BF1F
:1029C00000BF00BF00BF00BF00BF00BF00BF00BF0F
:1029D00000BF00BF00BF00BF00BF00BF00BF00BFFF
:1029E00000BF00BF00BF00BF00BF00BF00BF00BFEF
:1029F00000BF00BF00BF00BF00BF00BF00BF00BFDF
:102A000000BF00BF00BF00BF00BF00BF00BF00BFCE
:102A100000BF00BF00BF00BF00BF00BF00BF00BFBE
:102A200000BF00BF00BF00BF00BF00BF00BF4830F5
:102A300000BFB5D120462021002201F071FC3846AC
:102A400000BF00BF00BF00BF00BF00BF00BF00BF8E
:102A500000BF00BF00BF00BF00BF00BF00BF00BF7E
:102A600000BF00BF00BF00BF00BF00BF00BF00BF6E
:102A700000BF00BF00BF00BF00BF00BF00BF00BF5E
:102A800000BF00BF00BF00BF00BF00BF00BF00BF4E
:102A900000BF00BF00BF00BF00BF00BF00BF00BF3E
:102AA00000BF00BF00BF00BF00BF00BF00BF00BF2E
:102AB00000BF00BF00BF00BF00BF00BF00BF00BF1E
:102AC00000BF00BF00BF00BF00BF00BF00BF483055
:102AD00000BFB5D1C5F340322046402101F020FCB3
:102AE00020462021012201F01BFC384600BF00BF18
:102AF00000BF00BF00BF00BF00BF00BF00BF00BFDE
:102B000000BF00BF00BF00BF00BF00BF00BF00BFCD
:102B100000BF00BF00BF00BF00BF00BF00BF00BFBD
:102B200000BF00BF00BF00BF00BF00BF00BF00BFAD
:102B300000BF00BF00BF00BF00BF00BF00BF00BF9D
:102B400000BF00BF00BF00BF00BF00BF00BF00BF8D
:102B500000BF00BF00BF00BF00BF00BF00BF00BF7D
:102B600000BF00BF00BF00BF00BF00BF00BF00BF6D
:102B700000BF00BF00BF00BF00BF483000BFB5D1DD
:102B800020462021002201F0CBFB384600BF00BFC9
:102B900000BF00BF00BF00BF00BF00BF00BF00BF3D
:102BA00000BF00BF00BF00BF00BF00BF00BF00BF2D
:102BB00000BF00BF00BF00BF00BF00BF00BF00BF1D
:102BC00000BF00BF00BF00BF00BF00BF00BF00BF0D
:102BD00000BF00BF00BF00BF00BF00BF00BF00BFFD
:102BE00000BF00BF00BF00BF00BF00BF00BF00BFED
:102BF00000BF00BF00BF00BF00BF00BF00BF00BFDD
:102C000000BF00BF00BF00BF00BF00BF00BF00BFCC
:102C100000BF00BF00BF00BF00BF483000BFB5D13C
:102C2000C5F300322046402101F07AFB20462021E6
:102C3000012201F075FB384600BF00BF00BF00BF96
:102C400000BF00BF00BF00BF00BF00BF00BF00BF8C
:102C500000BF00BF00BF00BF00BF00BF00BF00BF7C
:102C600000BF00BF00BF00BF00BF00BF00BF00BF6C
:102C700000BF00BF00BF00BF00BF00BF00BF00BF5C
:102C800000BF00BF00BF00BF00BF00BF00BF00BF4C
:102C900000BF00BF00BF00BF00BF00BF00BF00BF3C
:102CA00000BF00BF00BF00BF00BF00BF00BF00BF2C
:102CB00000BF00BF00BF00BF00BF00BF00BF00BF1C
:102CC00000BF00BF00BF483000BFB5D12046202163
:102CD000002201F025FB384600BF00BF00BF00BF47
:102CE00000BF00BF00BF00BF00BF00BF00BF00BFEC
:102CF00000BF00BF00BF00BF00BF00BF00BF00BFDC
:102D000000BF00BF00BF00BF00BF00BF00BF00BFCB
:102D100000BF00BF00BF00BF00BF00BF00BF00BFBB
:102D200000BF00BF00BF00BF00BF00BF00BF00BFAB
:102D300000BF00BF00BF00BF00BF00BF00BF00BF9B
:102D400000BF00BF00BF00BF00BF00BF00BF00BF8B
:102D500000BF00BF00BF00BF00BF00BF00BF00BF7B
:102D600000BF00BF00BF483000BFB5D1C5F3C022CF
:102D70002046402101F0D4FA20462021012201F012
:102D8000CFFA384600BF00BF00BF00BF00BF00BF82
:102D900000BF00BF00BF00BF00BF00BF00BF00BF3B
:102DA00000BF00BF00BF00BF00BF00BF00BF00BF2B
:102DB00000BF00BF00BF00BF00BF00BF00BF00BF1B
:102DC00000BF00BF00BF00BF00BF00BF00BF00BF0B
:102DD00000BF00BF00BF00BF00BF00BF00BF00BFFB
:102DE00000BF00BF00BF00BF00BF00BF00BF00BFEB
:102DF00000BF00BF00BF00BF00BF00BF00BF00BFDB
:102E000000BF00BF00BF00BF00BF00BF00BF00BFCA
:102E100000BF483000BFB5D120462021002201F07C
:102E20007FFA384600BF00BF00BF00BF00BF00BF31
:102E300000BF00BF00BF00BF00BF00BF00BF00BF9A
:102E400000BF00BF00BF00BF00BF00BF00BF00BF8A
:102E500000BF00BF00BF00BF00BF00BF00BF00BF7A
:102E600000BF00BF00BF00BF00BF00BF00BF00BF6A
:102E700000BF00BF00BF00BF00BF00BF00BF00BF5A
:102E800000BF00BF00BF00BF00BF00BF00BF00BF4A
:102E900000BF00BF00BF00BF00BF00BF00BF00BF3A
:102EA00000BF00BF00BF00BF00BF00BF00BF00BF2A
:102EB00000BF483000BFB5D1C5F380222046402175
:102EC00001F02EFA20462021012201F029FA38468D
:102ED00000BF00BF00BF00BF00BF00BF00BF00BFFA
:102EE00000BF00BF00BF00BF00BF00BF00BF00BFEA
:102EF00000BF00BF00BF00BF00BF00BF00BF00BFDA
:102F000000BF00BF00BF00BF00BF00BF00BF00BFC9
:102F100000BF00BF00BF00BF00BF00BF00BF00BFB9
:102F200000BF00BF00BF00BF00BF00BF00BF00BFA9
:102F300000BF00BF00BF00BF00BF00BF00BF00BF99
:102F400000BF00BF00BF00BF00BF00BF00BF00BF89
:102F500000BF00BF00BF00BF00BF00BF00BF4830C0
:102F600000BFB5D120462021002201F0D9F9384612
:102F700000BF00BF00BF00BF00BF00BF00BF00BF59
:102F800000BF00BF00BF00BF00BF00BF00BF00BF49
:102F900000BF00BF00BF00BF00BF00BF00BF00BF39
:102FA00000BF00BF00BF00BF00BF00BF00BF00BF29
:102FB00000BF00BF00BF00BF00BF00BF00BF00BF19
:102FC00000BF00BF00BF00BF00BF00BF00BF00BF09
:102FD00000BF00BF00BF00BF00BF00BF00BF00BFF9
:102FE00000BF00BF00BF00BF00BF00BF00BF00BFE9
:102FF00000BF00BF00BF00BF00BF00BF00BF483020
:1030000000BFB5D1C5F340222046402101F088F928
:1030100020462021012201F083F9384600BF00BF7D
:1030200000BF00BF00BF00BF00BF00BF00BF00BFA8
:1030300000BF00BF00BF00BF00BF00BF00BF00BF98
:1030400000BF00BF00BF00BF00BF00BF00BF00BF88
:1030500000BF00BF00BF00BF00BF00BF00BF00BF78
:1030600000BF00BF00BF00BF00BF00BF00BF00BF68
:1030700000BF00BF00BF00BF00BF00BF00BF00BF58
:1030800000BF00BF00BF00BF00BF00BF00BF00BF48
:1030900000BF00BF00BF00BF00BF00BF00BF00BF38
:1030A00000BF00BF00BF00BF00BF483000BFB5D1A8
:1030B00020462021002201F033F9384600BF00BF2E
:1030C00000BF00BF00BF00BF00BF00BF00BF00BF08
:1030D00000BF00BF00BF00BF00BF00BF00BF00BFF8
:1030E00000BF00BF00BF00BF00BF00BF00BF00BFE8
:1030F00000BF00BF00BF00BF00BF00BF00BF00BFD8
:1031000000BF00BF00BF00BF00BF00BF00BF00BFC7
:1031100000BF00BF00BF00BF00BF00BF00BF00BFB7
:1031200000BF00BF00BF00BF00BF00BF00BF00BFA7
:1031300000BF00BF00BF00BF00BF00BF00BF00BF97
:1031400000BF00BF00BF00BF00BF483000BFB5D107
:10315000C5F300222046402101F0E2F8204620215C
:10316000012201F0DDF8384600BF00BF00BF00BFFC
:1031700000BF00BF00BF00BF00BF00BF00BF00BF57
:1031800000BF00BF00BF00BF00BF00BF00BF00BF47
:1031900000BF00BF00BF00BF00BF00BF00BF00BF37
:1031A00000BF00BF00BF00BF00BF00BF00BF00BF27
:1031B00000BF00BF00BF00BF00BF00BF00BF00BF17
:1031C00000BF00BF00BF00BF00BF00BF00BF00BF07
:1031D00000BF00BF00BF00BF00BF00BF00BF00BFF7
:1031E00000BF00BF00BF00BF00BF00BF00BF00BFE7
:1031F00000BF00BF00BF483000BFB5D1204620212E
:10320000002201F08DF8384600BF00BF00BF00BFAC
:1032100000BF00BF00BF00BF00BF00BF00BF00BFB6
:1032200000BF00BF00BF00BF00BF00BF00BF00BFA6
:1032300000BF00BF00BF00BF00BF00BF00BF00BF96
:1032400000BF00BF00BF00BF00BF00BF00BF00BF86
:1032500000BF00BF00BF00BF00BF00BF00BF00BF76
:1032600000BF00BF00BF00BF00BF00BF00BF00BF66
:1032700000BF00BF00BF00BF00BF00BF00BF00BF56
:1032800000BF00BF00BF00BF00BF00BF00BF00BF46
:1032900000BF00BF00BF483000BFB5D1E8B2C209CF
:1032A0002046402101F03CF820462021012201F077
:1032B00037F8384600BF00BF00BF00BF00BF00BFE7
:1032C00000BF00BF00BF00BF00BF00BF00BF00BF06
:1032D00000BF00BF00BF00BF00BF00BF00BF00BFF6
:1032E00000BF00BF00BF00BF00BF00BF00BF00BFE6
:1032F00000BF00BF00BF00BF00BF00BF00BF00BFD6
:1033000000BF00BF00BF00BF00BF00BF00BF00BFC5
:1033100000BF00BF00BF00BF00BF00BF00BF00BFB5
:1033200000BF00BF00BF00BF00BF00BF00BF00BFA5
:1033300000BF00BF00BF00BF00BF00BF00BF00BF95
:1033400000BF483000BFB5D120462021002200F048
:10335000E7FF384600BF00BF00BF00BF00BF00BF8F
:1033600000BF00BF00BF00BF00BF00BF00BF00BF65
:1033700000BF00BF00BF00BF00BF00BF00BF00BF55
:1033800000BF00BF00BF00BF00BF00BF00BF00BF45
:1033900000BF00BF00BF00BF00BF00BF00BF00BF35
:1033A00000BF00BF00BF00BF00BF00BF00BF00BF25
:1033B00000BF00BF00BF00BF00BF00BF00BF00BF15
:1033C00000BF00BF00BF00BF00BF00BF00BF00BF05
:1033D00000BF00BF00BF00BF00BF00BF00BF00BFF5
:1033E00000BF483000BFB5D1C5F380122046402150
:1033F00000F096FF20462021012200F091FF384680
:1034000000BF00BF00BF00BF00BF00BF00BF00BFC4
:1034100000BF00BF00BF00BF00BF00BF00BF00BFB4
:1034200000BF00BF00BF00BF00BF00BF00BF00BFA4
:1034300000BF00BF00BF00BF00BF00BF00BF00BF94
:1034400000BF00BF00BF00BF00BF00BF00BF00BF84
:1034500000BF00BF00BF00BF00BF00BF00BF00BF74
:1034600000BF00BF00BF00BF00BF00BF00BF00BF64
:1034700000BF00BF00BF00BF00BF00BF00BF00BF54
:1034800000BF00BF00BF00BF00BF00BF00BF48308B
:1034900000BFB5D120462021002200F041FF384670
:1034A00000BF00BF00BF00BF00BF00BF00BF00BF24
:1034B00000BF00BF00BF00BF00BF00BF00BF00BF14
:1034C00000BF00BF00BF00BF00BF00BF00BF00BF04
:1034D00000BF00BF00BF00BF00BF00BF00BF00BFF4
:1034E00000BF00BF00BF00BF00BF00BF00BF00BFE4
:1034F00000BF00BF00BF00BF00BF00BF00BF00BFD4
:1035000000BF00BF00BF00BF00BF00BF00BF00BFC3
:1035100000BF00BF00BF00BF00BF00BF00BF00BFB3
:1035200000BF00BF00BF00BF00BF00BF00BF4830EA
:1035300000BFB5D1C5F340122046402100F0F0FE97
:1035400020462021012200F0EBFE384600BF00BFDC
:1035500000BF00BF00BF00BF00BF00BF00BF00BF73
:1035600000BF00BF00BF00BF00BF00BF00BF00BF63
:1035700000BF00BF00BF00BF00BF00BF00BF00BF53
:1035800000BF00BF00BF00BF00BF00BF00BF00BF43
:1035900000BF00BF00BF00BF00BF00BF00BF00BF33
:1035A00000BF00BF00BF00BF00BF00BF00BF00BF23
:1035B00000BF00BF00BF00BF00BF00BF00BF00BF13
:1035C00000BF00BF00BF00BF00BF00BF00BF00BF03
:1035D00000BF00BF00BF00BF00BF483000BFB5D173
:1035E00020462021002200F09BFE384600BF00BF8D
:1035F00000BF00BF00BF00BF00BF00BF00BF00BFD3
:1036000000BF00BF00BF00BF00BF00BF00BF00BFC2
:1036100000BF00BF00BF00BF00BF00BF00BF00BFB2
:1036200000BF00BF00BF00BF00BF00BF00BF00BFA2
:1036300000BF00BF00BF00BF00BF00BF00BF00BF92
:1036400000BF00BF00BF00BF00BF00BF00BF00BF82
:1036500000BF00BF00BF00BF00BF00BF00BF00BF72
:1036600000BF00BF00BF00BF00BF00BF00BF00BF62
:1036700000BF00BF00BF00BF00BF483000BFB5D1D2
:10368000C5F300122046402100F04AFE20462021CA
:10369000012200F045FE384600BF00BF00BF00BF5A
:1036A00000BF00BF00BF00BF00BF00BF00BF00BF22
:1036B00000BF00BF00BF00BF00BF00BF00BF00BF12
:1036C00000BF00BF00BF00BF00BF00BF00BF00BF02
:1036D00000BF00BF00BF00BF00BF00BF00BF00BFF2
:1036E00000BF00BF00BF00BF00BF00BF00BF00BFE2
:1036F00000BF00BF00BF00BF00BF00BF00BF00BFD2
:1037000000BF00BF00BF00BF00BF00BF00BF00BFC1
:1037100000BF00BF00BF00BF00BF00BF00BF00BFB1
:1037200000BF00BF00BF483000BFB5D120462021F8
:10373000002200F0F5FD384600BF00BF00BF00BF0B
:1037400000BF00BF00BF00BF00BF00BF00BF00BF81
:1037500000BF00BF00BF00BF00BF00BF00BF00BF71
:1037600000BF00BF00BF00BF00BF00BF00BF00BF61
:1037700000BF00BF00BF00BF00BF00BF00BF00BF51
:1037800000BF00BF00BF00BF00BF00BF00BF00BF41
:1037900000BF00BF00BF00BF00BF00BF00BF00BF31
:1037A00000BF00BF00BF00BF00BF00BF00BF00BF21
:1037B00000BF00BF00BF00BF00BF00BF00BF00BF11
:1037C00000BF00BF00BF483000BFB5D1C5F3C00285
:1037D0002046402100F0A4FD20462021012200F0D7
:1037E0009FFD384600BF00BF00BF00BF00BF00BF45
:1037F00000BF00BF00BF00BF00BF00BF00BF00BFD1
:1038000000BF00BF00BF00BF00BF00BF00BF00BFC0
:1038100000BF00BF00BF00BF00BF00BF00BF00BFB0
:1038200000BF00BF00BF00BF00BF00BF00BF00BFA0
:1038300000BF00BF00BF00BF00BF00BF00BF00BF90
:1038400000BF00BF00BF00BF00BF00BF00BF00BF80
:1038500000BF00BF00BF00BF00BF00BF00BF00BF70
:1038600000BF00BF00BF00BF00BF00BF00BF00BF60
:1038700000BF483000BFB5D120462021002200F013
:103880004FFD384600BF00BF00BF00BF00BF00BFF4
:1038900000BF00BF00BF00BF00BF00BF00BF00BF30
:1038A00000BF00BF00BF00BF00BF00BF00BF00BF20
:1038B00000BF00BF00BF00BF00BF00BF00BF00BF10
:1038C00000BF00BF00BF00BF00BF00BF00BF00BF00
:1038D00000BF00BF00BF00BF00BF00BF00BF00BFF0
:1038E00000BF00BF00BF00BF00BF00BF00BF00BFE0
:1038F00000BF00BF00BF00BF00BF00BF00BF00BFD0
:1039000000BF00BF00BF00BF00BF00BF00BF00BFBF
:1039100000BF483000BFB5D1C5F38002204640212A
:1039200000F0FEFC20462021012200F0F9FC384680
:1039300000BF00BF00BF00BF00BF00BF00BF00BF8F
:1039400000BF00BF00BF00BF00BF00BF00BF00BF7F
:1039500000BF00BF00BF00BF00BF00BF00BF00BF6F
:1039600000BF00BF00BF00BF00BF00BF00BF00BF5F
:1039700000BF00BF00BF00BF00BF00BF00BF00BF4F
:1039800000BF00BF00BF00BF00BF00BF00BF00BF3F
:1039900000BF00BF00BF00BF00BF00BF00BF00BF2F
:1039A00000BF00BF00BF00BF00BF00BF00BF00BF1F
:1039B00000BF00BF00BF00BF00BF00BF00BF483056
:1039C00000BFB5D120462021002200F0A9FC3846D6
:1039D00000BF00BF00BF00BF00BF00BF00BF00BFEF
:1039E00000BF00BF00BF00BF00BF00BF00BF00BFDF
:1039F00000BF00BF00BF00BF00BF00BF00BF00BFCF
:103A000000BF00BF00BF00BF00BF00BF00BF00BFBE
:103A100000BF00BF00BF00BF00BF00BF00BF00BFAE
:103A200000BF00BF00BF00BF00BF00BF00BF00BF9E
:103A300000BF00BF00BF00BF00BF00BF00BF00BF8E
:103A400000BF00BF00BF00BF00BF00BF00BF00BF7E
:103A500000BF00BF00BF00BF00BF00BF00BF4830B5
:103A600000BFB5D1C5F340022046402100F058FC0C
:103A700020462021012200F053FC384600BF00BF41
:103A800000BF00BF00BF00BF00BF00BF00BF00BF3E
:103A900000BF00BF00BF00BF00BF00BF00BF00BF2E
:103AA00000BF00BF00BF00BF00BF00BF00BF00BF1E
:103AB00000BF00BF00BF00BF00BF00BF00BF00BF0E
:103AC00000BF00BF00BF00BF00BF00BF00BF00BFFE
:103AD00000BF00BF00BF00BF00BF00BF00BF00BFEE
:103AE00000BF00BF00BF00BF00BF00BF00BF00BFDE
:103AF00000BF00BF00BF00BF00BF00BF00BF00BFCE
:103B000000BF00BF00BF00BF00BF483000BFB5D13D
:103B100020462021002200F003FC384600BF00BFF1
:103B200000BF00BF00BF00BF00BF00BF00BF00BF9D
:103B300000BF00BF00BF00BF00BF00BF00BF00BF8D
:103B400000BF00BF00BF00BF00BF00BF00BF00BF7D
:103B500000BF00BF00BF00BF00BF00BF00BF00BF6D
:103B600000BF00BF00BF00BF00BF00BF00BF00BF5D
:103B700000BF00BF00BF00BF00BF00BF00BF00BF4D
:103B800000BF00BF00BF00BF00BF00BF00BF00BF3D
:103B900000BF00BF00BF00BF00BF00BF00BF00BF2D
:103BA00000BF00BF00BF00BF00BF483000BFB5D19D
:103BB00005F001022046402100F0B2FB2046202102
:103BC000012200F0ADFB384600BF00BF00BF00BFC0
:103BD00000BF00BF00BF00BF00BF00BF00BF00BFED
:103BE00000BF00BF00BF00BF00BF00BF00BF00BFDD
:103BF00000BF00BF00BF00BF00BF00BF00BF00BFCD
:103C000000BF00BF00BF00BF00BF00BF00BF00BFBC
:103C100000BF00BF00BF00BF00BF00BF00BF00BFAC
:103C200000BF00BF00BF00BF00BF00BF00BF00BF9C
:103C300000BF00BF00BF00BF00BF00BF00BF00BF8C
:103C400000BF00BF00BF00BF00BF00BF00BF00BF7C
:103C500000BF00BF00BF483000BFB5D120462021C3
:103C6000002200F05DFB384600BF00BF00BF00BF70
:103C700000BF00BF00BF00BF00BF00BF00BF00BF4C
:103C800000BF00BF00BF00BF00BF00BF00BF00BF3C
:103C900000BF00BF00BF00BF00BF00BF00BF00BF2C
:103CA00000BF00BF00BF00BF00BF00BF00BF00BF1C
:103CB00000BF00BF00BF00BF00BF00BF00BF00BF0C
:103CC00000BF00BF00BF00BF00BF00BF00BF00BFFC
:103CD00000BF00BF00BF00BF00BF00BF00BF00BFEC
:103CE00000BF00BF00BF00BF00BF00BF00BF00BFDC
:103CF00000BF00BF00BF483000BFB5D12046402103
:103D0000002200F00DFB20462021012200F008FBDC
:103D1000384600BF00BF00BF00BF00BF00BF00BFEC
:103D200000BF00BF00BF00BF00BF00BF00BF00BF9B
:103D300000BF00BF00BF00BF00BF00BF00BF00BF8B
:103D400000BF00BF00BF00BF00BF00BF00BF00BF7B
:103D500000BF00BF00BF00BF00BF00BF00BF00BF6B
:103D600000BF00BF00BF00BF00BF00BF00BF00BF5B
:103D700000BF00BF00BF00BF00BF00BF00BF00BF4B
:103D800000BF00BF00BF00BF00BF00BF00BF00BF3B
:103D900000BF00BF00BF00BF00BF00BF00BF00BF2B
:103DA00000BF483000BFB5D120462021002200F0DE
:103DB000B7FA384600BF00BF00BF00BF00BF00BF5A
:103DC00000BF00BF00BF00BF00BF00BF00BF00BFFB
:103DD00000BF00BF00BF00BF00BF00BF00BF00BFEB
:103DE00000BF00BF00BF00BF00BF00BF00BF00BFDB
:103DF00000BF00BF00BF00BF00BF00BF00BF00BFCB
:103E000000BF00BF00BF00BF00BF00BF00BF00BFBA
:103E100000BF00BF00BF00BF00BF00BF00BF00BFAA
:103E200000BF00BF00BF00BF00BF00BF00BF00BF9A
:103E300000BF00BF00BF00BF00BF00BF00BF00BF8A
:103E400000BF483000BFB5D120461021002200F04D
:103E500067FA20464021002200F062FA2046202125
:103E6000012200F05DFA384600BF00BF00BF00BF6E
:103E700000BF00BF00BF00BF00BF00BF00BF00BF4A
:103E800000BF00BF00BF00BF00BF00BF00BF00BF3A
:103E900000BF00BF00BF00BF00BF00BF00BF00BF2A
:103EA00000BF00BF00BF00BF00BF00BF00BF00BF1A
:103EB00000BF00BF00BF00BF00BF00BF00BF00BF0A
:103EC00000BF00BF00BF00BF00BF00BF00BF00BFFA
:103ED00000BF00BF00BF00BF00BF00BF00BF00BFEA
:103EE00000BF00BF00BF00BF00BF00BF00BF00BFDA
:103EF00000BF00BF00BF483000BFB5D12046202121
:103F0000002200F00DFA00BF00BF00BF00BF00BFDD
:103F100000BF00BF00BF00BF00BF00BF00BF00BFA9
:103F200000BF00BF00BF00BF00BF00BF00BF00BF99
:103F300000BF00BF00BF00BF00BF00BF00BF00BF89
:103F400000BF00BF00BF00BF00BF00BF00BF00BF79
:103F500000BF00BF00BF00BF00BF00BF00BF00BF69
:103F600000BF00BF00BF00BF00BF00BF00BF00BF59
:103F700000BF00BF00BF00BF00BF00BF00BF00BF49
:103F800000BF00BF00BF00BF00BF00BF00BF00BF39
:103F900000BF00BF00BF483700BFB5D12046102189
:103FA000012201B0BDE8F04000F0BAB9FEE7000020
:103FB00070470000EFF3108072B600BFFEE700000C
:103FC000014690F82100022816D10868D1E90FC3F4
:103FD000026822F00E020260026822F00102026012
:103FE000012000FA03F2CCF8042081F8210000201F
:103FF000002281F8202070470420886301200022DD
:1040000081F820207047000090F82110022927D164
:10401000026840F2040C1368C4F2020C23F00E0391
:10402000136013680CF17C018A4223F001011160D6
:104030001AD940F20841C4F202018A4250D040F23B
:104040001C41C4F202018A4242D040F23041C4F223
:1040500002018A4248D14FF48073CCF800345CE00E
:1040600004218163012070474321C4F202018A4286
:104070000EDD6B21C4F202018A421BDC4421C4F232
:1040800002018A423ED05821C4F202018A4223E052
:104090000821C4F202018A4232D01C21C4F202017A
:1040A0008A4237D03021C4F202018A4214D14FF43F
:1040B000807230E06C21C4F202018A4226D0802155
:1040C000C4F202018A4207D14FF0807223E000BFA0
:1040D0001023CCF8003420E04FF480321BE000BF06
:1040E0000123CCF8003418E00CF588614FF48033DC
:1040F0008A4208BF4FF48053CCF800340DE000BF73
:10410000012208E04FF4805205E000BF4FF4801216
:1041100001E000BF1022CCF80020012180F821101E
:10412000416B0022002980F8202004BF0020704746
:1041300080B58847002080BD2DE9F04F82B00E6821
:10414000002E00F0E980A0F1804241F6004540F2E7
:104150000043A2F58432C4F201050624C4F201032F
:104160004FEAB227A84208BF05244FF0000E4FF0D7
:1041700001080F254FF0000A4FF0000B052F38BF44
:104180004FEAB224009408E00E680AF1010A36FAF8
:104190000AF20EF1040E00F0BF8008FA0AFC16EADB
:1041A0000C09F1D04E684FF6FF72C1F21002964230
:1041B00012DC122E56D8DFE806F0350B4D49555566
:1041C000555555555555555555555545510000BFF3
:1041D000D1F80CB046E000BF4FF6FF72C1F22102E9
:1041E00096420FDC0022C1F2110296421AD0002240
:1041F000C1F21202964215D00022C1F2210296426B
:1042000010D02FE00022C1F2220296420AD00022F2
:10421000C1F23102964205D00022C1F2320296422A
:1042200020D100BF8A684AB1012A14BFC0F814C067
:10423000C0F810C04FF0080B14E000BF4FF0040BA3
:1042400010E000BFCA6802F1040B0BE04FF0000B56
:1042500008E000BFCA6802F1080B03E0CA6802F177
:104260000C0B00BF02467446B9F5807F24BF0432B0
:10427000203C166805FA04F726EA07070BFA04F64D
:1042800037431760CA79D2067FF57EAF41F218072F
:10429000C4F202073A684FF6084542F001023A605C
:1042A0003A68CFF6FF7502F001020192019A2AF0F6
:1042B00003021A440F2457590EF00C06B440A743CA
:1042C000009C04FA06F6374357514E6840F20C44FE
:1042D000F2029A6854BF22EA090242EA0902C4F2D1
:1042E00001049A602268B70254BF22EA090242EA36
:1042F000090222605A68B70354BF22EA090242EA5F
:1043000009025A600F251A68F70354BF22EA09020E
:1043100042EA09021A6037E702B0BDE8F08F0000F8
:10432000002A08BF090401617047000040F28C10A8
:10433000C2F200000068704740F2040040F28C11A5
:10434000C2F20000C2F2000100780A68104408605E
:104350007047000080B542F20000C4F2020001681C
:1043600041F010010160032000F08CF80F2000F0F4
:1043700005F800F027F8002080BD000070B540F27D
:104380000406C2F2000640F20C013278C2F20001CB
:104390004FF47A730968B3FBF2F20446B1FBF2F111
:1043A000084600F085FB0F2C4FF0010508D838B9FE
:1043B0004FF0FF3021460022002500F037F87460EE
:1043C000284670BD82B041F21800C4F202000168B4
:1043D000022241F001010160016801F00101019137
:1043E0000199416841F080514160406800F080507F
:1043F000009000980420C4F20100016862F31A6181
:10440000016002B070470000002848BF704700F00C
:104410001F01012202FA01F11C2202EAD0004EF231
:104420000012CEF2000281507047000010B54EF627
:104430000C5CCEF2000CDCF80030C3F3022E8EF0E0
:104440000704042C28BF0424BEF103034FF0FF3EF1
:104450000EFA04F438BF0023A14399400EFA03F387
:104460009A43114300F00F0200F160430901043A3E
:1044700003F564436244002848BF02F10C0319703D
:1044800010BD00004EF60C51CEF200010A684FF646
:10449000FF031A4060F30A2242F0806040F0FD7092
:1044A00008607047002804BF012070472DE9F043E1
:1044B00081B042F20008C4F202080446D8F80000B5
:1044C0000D4600F0070088420CD2D8F8000020F01A
:1044D00007002843C8F80000D8F8000000F00700E3
:1044E000A8426CD1206841F204098107C4F2020994
:1044F00017D5410705D5D9F8001041F4E061C9F896
:104500000010010705D5D9F8001041F46051C9F831
:104510000010D9F80010A26821F0F0011143C9F889
:104520000010C00742D1D8F8000000F00700A842F0
:104530000CD9D8F8000020F007002843C8F8000084
:10454000D8F8000000F00700A84238D120684107E1
:1045500007D5D9F80010E26821F4E0611143C9F8E9
:104560000010000708D5D9F80000216920F4605038
:1045700040EAC100C9F80000D9F8002002F00C00A0
:10458000082841F20020C0F27A004DD146F62E6391
:10459000C2F38341C0F60003595CD20338D440F61D
:1045A0000010C0F23D0048433EE000BF606859F88B
:1045B000041C022808D0012826D1890306D4012032
:1045C00001B0BDE8F08300BF8901F8D5D9F800102B
:1045D00021F003010843C9F80000FFF7A7FE0646D3
:1045E00041F28837D9F80000616800F00C00B0EBA8
:1045F000810F98D0FFF79AFE801BB842F2D90320B2
:1046000001B0BDE8F08300BF8907D8D5DEE700BF61
:10461000D9F8002046F62C63C2F34042C0F60003EE
:104620009A5C4843B0FBF2F0D9F8001046F61462E9
:10463000C1F30311C0F60002515C40F20C0220FAF3
:1046400001F140F20800C2F200000068C2F200026C
:104650001160FFF793FE002001B0BDE8F083000079
:1046600040F20C0041F20401C2F20000C4F2020167
:104670000068096846F62462C1F30221C0F6000210
:10468000515CC8407047000040F20C0041F2040148
:10469000C2F20000C4F202010068096846F6246212
:1046A000C1F3C221C0F60002515CC840704700004F
:1046B000002804BF012070472DE9F04182B0044674
:1046C000007841F20006C007C4F202060CD0706800
:1046D00000F00C00042840F081803068800303D58E
:1046E0006068002800F04681207880071BD570683C
:1046F00010F00C0F09D0706800F00C00082840F092
:1047000087807068C00300F183803068800703D51C
:104710002069012840F02E813068616920F0F8009E
:1047200040EAC10030602078000713D420784007A9
:104730002CD4E569002D00F01881706800F00C00A1
:10474000082840F0A780012D40F00481012002B02C
:10475000BDE8F081A069002800F084800020C4F248
:1047600042200121C0F88014FFF7E0FD054600BF9C
:10477000706A800700F1B280FFF7D8FD401B022865
:10478000F6D9032002B0BDE8F08100BFF0695FEA0E
:10479000C00808D4F06940F08050F061F06900F082
:1047A00080500090009847F20007C4F20007386874
:1047B000C00549D4386840F480703860FFF7B6FD12
:1047C000054600BF3868C0053ED4FFF7AFFD401B6B
:1047D0006428F7D9032002B0BDE8F081706800F0CA
:1047E0000C00082803D17068C0033FF576AF6168FC
:1047F0003068002900F00C81B1F5A02F00F0008195
:10480000B1F5803F40F01A8140F480301CE100BFD8
:104810002069002840F20000C4F2422000F08880A5
:1048200001210160FFF782FD054600BF3068800767
:104830003FF572AFFFF77AFD401B0228F6D903203F
:1048400002B0BDE8F08100BFE168306A002900F0E5
:104850009D80052900F09280012940F0AF8040F052
:104860000100B1E00020C4F242200021C0F8801411
:10487000FFF75CFD054600BF706A80077FF556AF05
:10488000FFF754FD401B0228F6D9032002B0BDE813
:10489000F08100BF0027C4F2422700203866FFF7EE
:1048A00045FD022D05460DD13068800140F1DE80C6
:1048B000FFF73CFD401B02284FF00300F4D902B083
:1048C000BDE8F081306880014FD5FFF72FFD401B18
:1048D00002284FF00300F5D9F1E700BF40F20C00C9
:1048E000C2F20000006844F6D351C1F26201A0FB9D
:1048F0000101480A019000BF00BF0198411E002835
:1049000001913FF413AF00BF0198411E00280191AF
:104910003FF40CAF00BF0198411E002801913FF405
:1049200005AF00BF0198411E00280191E4D1FDE6CA
:1049300000210160FFF7FAFC054600BF30688007E0
:104940007FF5F1AEFFF7F2FC401B02284FF00300A9
:10495000F4D9B4E77068216A00F480328A4209D140
:10496000616A00F47010884204D1002002B0BDE8F2
:10497000F08100BF012002B0BDE8F08140F00400EA
:104980003062306A40F001001EE000BF20F00100FC
:104990003062306A20F004003062FFF7C7FC054641
:1049A00041F28837306A800720D5FFF7BFFC401BF3
:1049B000B8424FF00300F5D981E700BF20F00100B5
:1049C0003062306A20F004003062FFF7AFFC054629
:1049D00041F28837306A800708D4FFF7A7FC401BF4
:1049E000B842F7D9032002B0BDE8F081B8F1000F5A
:1049F0003FF59FAEF06920F08050F06199E600BF6E
:104A000040F480203060306840F480301CE000BF0B
:104A100020F480303060306820F480203060FFF770
:104A200085FC0546306880037FF55EAEFFF77EFCAF
:104A3000401B64284FF00300F4D940E720F4803095
:104A40003060306820F480203060FFF76FFC05464E
:104A5000306880033FF548AEFFF768FC401B6428D0
:104A6000F6D9032002B0BDE8F08100BF206AB0F59E
:104A7000803F05D17168A26821F400311143716053
:104A80007168626A21F47411114308437060012057
:104A90003866FFF74BFC0446306880013FF565AF90
:104AA000FFF744FC001B02284FF00300F4D906E78F
:104AB000411E0020B0EB116F1CBF012070474EF269
:104AC0001002CEF2000251604EF62351CEF20001E8
:104AD000F0230B7007219060116070477047000051
:104AE00070470000B0B582B001680A68CC684B69B5
:104AF00002F02F05202D04F0200505D125B102B0CC
:104B0000BDE8B04000F0C6BD5FEA027C1EBF03F006
:104B1000010E04F4907313EB0E0341D1036BD50621
:104B200018D5012B16D114F0100313D000220192D6
:104B30000A6801924A680192019A496949064BD470
:104B4000818DC28DC38D002B18BF914240F0F4813E
:104B500002B0B0BD13062DD514F080032AD090F812
:104B60004120212AF4D18268B2F5805F03D1026925
:104B7000002A00F06782026A531C036212784A60BE
:104B8000C28C013A1304C284E2D1C86820F08000CC
:104B9000C860C86840F04000C86002B0B0BD00BF47
:104BA000D30718BF14F4807340F0D080530700F18E
:104BB000D380D8E05206CBD514F04002C8D0CA68E2
:104BC00022F04002CA60202180F8411002B0BDE806
:104BD000B04000F0EFBC00BFC16B0A68526893B2EE
:104BE000002BB5D0858DAB42B2D2C2858969202910
:104BF00000F0A180016851E8031F026821F4807170
:104C000042E80313DBB1016851E8031F026821F495
:104C1000807142E8031393B1016851E8031F0268F1
:104C200021F4807142E803134BB1016851E8031F7E
:104C3000026821F4807142E80313002BDAD1016885
:104C400051E8051F026821F0010142E80513C3B3D2
:104C5000016851E8051F026821F0010142E80513CF
:104C60007BB3016851E8051F026821F0010142E8A9
:104C7000051333B3016851E8051F026821F00101F3
:104C800042E80513002BDAD11BE000BF016851E8B0
:104C9000051F026821F0400142E80513DBB10168FD
:104CA00051E8051F026821F0400142E8051393B165
:104CB000016851E8051F026821F0400142E8051330
:104CC0004BB1016851E8051F026821F0400142E83C
:104CD0000513002BDAD1202180F842100021016356
:104CE000016851E8031F026821F0100142E8031334
:104CF000DBB1016851E8031F026821F0100142E8AE
:104D0000031393B1016851E8031F026821F01001F9
:104D100042E803134BB1016851E8031F026821F018
:104D2000100142E80313002BDAD1C16B0446084698
:104D3000FFF746F9204602214163818DC28D891A11
:104D400089B202B0BDE8B040FFF7C8BE436C43F083
:104D500001034364530706D5BEF1000F03D0436C33
:104D600043F002034364930706D5BEF1000F03D05E
:104D7000436C43F004034364BCF1000F06D55EEAC4
:104D8000050303D0436C43F008034364436C002BDA
:104D90003FF4DEAE920605D525B1044600F07AFC5C
:104DA000216820464969426C01F0400102F0080286
:104DB000891800F0B98000BF016851E8031F02683C
:104DC00021F4907142E80313BBB3016851E8031F5B
:104DD000026821F4907142E8031373B3016851E84B
:104DE000031F026821F4907142E803132BB301689A
:104DF00051E8031F026821F4907142E80313002B6D
:104E0000DAD11AE0016851E8051F026821F00101BA
:104E100042E80513DBB1016851E8051F026821F083
:104E2000010142E8051393B1016851E8051F0268CA
:104E300021F0010142E805134BB1016851E8051F5B
:104E4000026821F0010142E80513002BDAD1016B61
:104E5000012924D1016851E8031F026821F01001E3
:104E600042E80313DBB1016851E8031F026821F037
:104E7000100142E8031393B1016851E8031F02686F
:104E800021F0100142E803134BB1016851E8031F00
:104E9000026821F0100142E80313002BDAD120212F
:104EA00080F842100021016301684969490640F118
:104EB000C380016851E8051F026821F0400142E803
:104EC0000513DBB1016851E8051F026821F04001BC
:104ED00042E8051393B1016851E8051F026821F00B
:104EE000400142E805134BB1016851E8051F026813
:104EF00021F0400142E80513002BDAD1C16B0029F3
:104F000000F09A8045F28962C0F600020446084625
:104F10004A63FFF779F800283FF41AAEE06B416B63
:104F200002B0BDE8B04008470446FFF7D9FD0020B5
:104F3000606402B0B0BD00BF891A00BF026852E8C9
:104F4000032F036822F4907243E80325BDB302687F
:104F500052E8032F036822F4907243E8032575B3E7
:104F6000026852E8032F036822F4907243E8032595
:104F70002DB3026852E8032F036822F4907243E8CD
:104F80000325002DDAD11AE0026852E8052F0368E4
:104F900022F0010243E80525DDB1026852E8052F41
:104FA000036822F0010243E8052595B1026852E842
:104FB000052F036822F0010243E805254DB1026880
:104FC00052E8052F036822F0010243E80525002D71
:104FD000DAD1202280F8422000220263026852E8DF
:104FE000032F036822F0100243E80325DDB10268B5
:104FF00052E8032F036822F0100243E8032595B11D
:10500000026852E8032F036822F0100243E80325E8
:105010004DB1026852E8032F036822F0100243E802
:105020000325002DDAD1022289B2426302B0BDE825
:10503000B040FFF753BD00BF02B0BDE8B040FFF77E
:105040004FBD00BF026A32F8023B6FF35F234B6033
:10505000026295E5002804BF0120704710B50446A0
:1050600090F8410028B9002084F84000204600F064
:1050700063F8242084F841002068D4E90212C36850
:1050800023F40053C360036923F440531A430261BD
:10509000D4E904231143C268194341F20C639A43D3
:1050A0001143C1604169A26921F44071114343F683
:1050B0000002C4F201029042416103D0FFF7D0FA2E
:1050C00002E000BFFFF7E0FAD4E9002319214843CA
:1050D0009900B0FBF1F048F21F5CC5F2EB1CA0FB9D
:1050E0000C314FF69C734909C0F6FF7301FB0300B6
:1050F000322303EB0010A0FB0C03F02000EA531056
:1051000000EB0110C3F343110844906010692021A3
:1051100020F490401061506920F02A005061D0685E
:1051200040F40050D0600020606484F8411084F89E
:105130004210606310BD000070B586B040F60004F8
:10514000C4F20104006804F5405100268842059627
:10515000CDE90366029601D006B070BD41F2180099
:10516000C4F20200016802AD41F4804101600168AF
:1051700001F4804101910199016841F0040101604D
:105180000068294600F00400019001984FF4007077
:10519000029002200390032005902046FEF7CCFFEA
:1051A0004FF48060CDE90206204629460496FEF7BA
:1051B000C3FF252000210022FFF738F92520FFF743
:1051C00023F906B070BD000090F84230202B07D1C3
:1051D00000294FF0010318BF002A05D11846704777
:1051E00002231846704700BF002303638162222117
:1051F0008285C285436480F842100169006819B154
:10520000C16841F48071C160416941F001014161AF
:10521000C16841F02001C1601846704710B540F2E6
:105220004004C2F200042178FF2915D1002020702B
:1052300040F24400C2F200004FF48071FAF79BFF85
:1052400040F24410C2F200003AA10A224FF6FF7366
:1052500000F076F854E000BF637840F244004A1C46
:10526000C2F200000A2B2270435449D1014411F8C4
:10527000011C0D2944D101780D2915D1D0F8010068
:1052800001BA47F26140C6F26140814224D046F241
:105290007910C7F26C00814222D140F21C00C2F2A8
:1052A000000000F01FFB21E0072A11D107290FD8C9
:1052B000D0F8010002BA40F21C00C2F2000040F82F
:1052C000212046F64E60C0F6000001F039FB0DE0EB
:1052D00010A001F08DFD09E000F0C6FA06E000BF65
:1052E00046F67B60C0F6000001F02AFB002020702B
:1052F00040F24400C2F200004FF48071FAF73BFF25
:1053000040F24410611CC2F200000122BDE81040CE
:10531000FFF75ABF506C6561736520696E707574D4
:1053200020636F727265637420706172616D657461
:10533000657221006F766572666C6F770A000000F7
:105340002DE9F04381B0044690F84100202809D1AE
:10535000884600294FF0010018BF002A06D101B08D
:10536000BDE8F083022001B0BDE8F0830020606456
:1053700021201D4684F841001646FEF7D7FFA6847B
:10538000E684A1680646B1F5805F03D12069002854
:1053900000F0948047464FF00008E18C2068002917
:1053A00000F0928005F101090BE000BF47B317F848
:1053B000011B4160E18C0139E184E18C002900F09E
:1053C000838001680906F1D4B9F1000F0AD0EDB16C
:1053D000FEF7ACFF801BA84218D8206801680906B8
:1053E000F6D5E3E701680906E0D4016809065CBF69
:1053F00001685FEA0161D9D401680906F2D5D5E7F1
:1054000038F8021B00276FF35F21D2E7206850E8CD
:10541000030F216820F4D07041E80302BAB320687A
:1054200050E8030F216820F4D07041E8030272B302
:10543000206850E8030F216820F4D07041E803028F
:105440002AB3206850E8030F216820F4D07041E8A7
:105450000302002ADAD11AE0206850E8050F21681B
:1054600020F0010041E80502DAB1206850E8050F9C
:10547000216820F0010041E8050292B1206850E85F
:10548000050F216820F0010041E805024AB12068BB
:1054900050E8050F216820F0010041E80502002ACC
:1054A000DAD1202084F8410084F84200002084F8FA
:1054B0004000032001B0BDE8F08300BF0027E18C6D
:1054C000206800297FF46EAF016849060FD4F5B15A
:1054D000691C17D10168490609D4016849065CBFF7
:1054E00001685FEA416102D401684906F2D52020D3
:1054F00084F84100002001B0BDE8F0832068006816
:105500004006F4D4FEF712FF801BA842F6D92068AB
:1055100050E8030F216820F4D07041E80302EAB399
:10552000206850E8030F216820F4D07041E803029E
:10553000A2B3206850E8030F216820F4D07041E83E
:1055400003025AB3206850E8030F216820F4D0709A
:1055500041E80302002ADAD120E000BF206850E8C9
:10556000050F216820F0010041E80502002A98D0CB
:10557000206850E8050F216820F0010041E805028D
:10558000002A3FF48EAF206850E8050F216820F014
:10559000010041E80502002A3FF483AF206850E88B
:1055A000050F216820F0010041E80502002AD5D14D
:1055B00077E7000070470000FEE70000F0B585B017
:1055C000002541F21800CDE90355CDE90155C4F29B
:1055D0000200016841F2004441F0100101600168DD
:1055E000C4F2010401F01001009100990168012248
:1055F00041F0040101600168F02601F0040100910E
:1056000000990168012741F0200101600068F02144
:1056100000F02000009000982046FEF781FE022056
:10562000049001A92046CDE901670395FEF784FDAA
:1056300005B0F0BD80B540F2441043F60001C2F25F
:105640000000C4F2010100234FF00C0C4FF4E132D2
:1056500080E80E00C0E90333C0E905C3C361FFF76A
:10566000F9FC002808BF80BDBDE88040FEF7A2BC61
:10567000FEE70000FEE700007047000070470000F2
:10568000FEF75ABE70470000406A0021C185C18400
:10569000FFF726BA81B090F84210222921D1836801
:1056A0000246B3F5805F09D152F8281F52F8183C22
:1056B000002B63D003685B680AE000BF52F8281F24
:1056C00013B90369002BF5D003685B6803F07F030F
:1056D0000B70116801311160C18D01390A04C18557
:1056E00002D001B0704700BF0168CA6822F02002F2
:1056F000CA60CA6822F48072CA604A6922F0010254
:105700004A61202180F8421000214163026B012A86
:105710003CD10163016851E8031F026821F01001C8
:1057200042E80313DBB1016851E8031F026821F06E
:10573000100142E8031393B1016851E8031F0268A6
:1057400021F0100142E803134BB1016851E8031F37
:10575000026821F0100142E80313002BDAD101683E
:105760000A68D20606D5002200920A6800924968AB
:1057700000910099818D01B0FFF7B0B902685268BD
:105780006FF35F2221F8022B8162A5E701B0FFF7DA
:1057900045BD000040F24410C2F20000FFF7A2B97C
:1057A000FEE7000010B582B00446019040F24410BC
:1057B000C2F2000001A901224FF6FF73FFF7C0FDFE
:1057C000204602B010BD000090B0FEF7C3FD0024DB
:1057D0000120CDE90B44CDE9094406900A904FF42D
:1057E000E0104FF4803102250F9006A8CDE9071490
:1057F000CDE90D51FEF75CFF20B1EFF3108072B6DA
:10580000FEE700BF0F20CDE901054FF48060CDE930
:10581000040401A802210394FEF744FE20B1EFF333
:10582000108072B6FEE700BFFFF7C8FEFFF702FF69
:1058300040F24414C2F2000440F21001C2F200012E
:1058400020460B2242F21073FFF77AFD0A2001F086
:10585000C9FA40F24000C2F20000411C2046012279
:10586000FFF7B2FCFEE70000B0B540F21C05C2F243
:10587000000546F63E642A68C0F600042046002172
:1058800001F05EF86A682046012101F059F8AA6823
:105890002046022101F054F8EA682046032101F075
:1058A0004FF82A692046042101F04AF86A69204627
:1058B000052101F045F8AA692046062101F040F8CB
:1058C000EA692046072101F03BF802A0BDE8B0409C
:1058D00001F08EBA2D2D2D2D2D2D2D2D2D2D2D2D73
:1058E0002D2D2D0070B541F20044C4F2010405468F
:1058F0004EF21806204610210022CEF20006FEF7D6
:105900000FFD204680210022FEF70AFD40F20C0127
:10591000C2F200013068096844F6D352C1F2620253
:10592000A1FB02129109C822514300BF49B132685C
:1059300090423CBF56F8043C1844801A091A10469D
:10594000F4D84FF65846204610210122CFF6FF76B4
:10595000FEF7E6FC204680210122FEF7E1FC2968E3
:105960000020FAF77DFC29680120FAF779FC296804
:105970000220FAF775FC29680320FAF771FC296800
:105980000420FAF76DFC29680520FAF769FC2968FC
:105990000620FAF765FC29680720FAF761FC204623
:1059A00040210022FEF7BCFC204620210122FEF708
:1059B000B7FC304600BF00BF00BF00BF00BF00BF44
:1059C00000BF00BF00BF00BF00BF00BF00BF00BFDF
:1059D00000BF00BF00BF00BF00BF00BF00BF00BFCF
:1059E00000BF00BF00BF00BF00BF00BF00BF00BFBF
:1059F00000BF00BF00BF00BF00BF00BF00BF00BFAF
:105A000000BF00BF00BF00BF00BF00BF00BF00BF9E
:105A100000BF00BF00BF00BF00BF00BF00BF00BF8E
:105A200000BF00BF00BF00BF00BF00BF00BF00BF7E
:105A300000BF00BF00BF00BF00BF00BF00BF00BF6E
:105A400000BF483000BFB5D1204620210022FEF71C
:105A500067FC304600BF00BF00BF00BF00BF00BFF3
:105A600000BF00BF00BF00BF00BF00BF00BF00BF3E
:105A700000BF00BF00BF00BF00BF00BF00BF00BF2E
:105A800000BF00BF00BF00BF00BF00BF00BF00BF1E
:105A900000BF00BF00BF00BF00BF00BF00BF00BF0E
:105AA00000BF00BF00BF00BF00BF00BF00BF00BFFE
:105AB00000BF00BF00BF00BF00BF00BF00BF00BFEE
:105AC00000BF00BF00BF00BF00BF00BF00BF00BFDE
:105AD00000BF00BF00BF00BF00BF00BF00BF00BFCE
